:020000040800F2
:10000000C005002005010008BD170008A116000862
:10001000BB170008F50600082D1D000800000000B1
:10002000000000000000000000000000C7170008EA
:10003000A107000800000000BF170008C91700084A
:100040001F0100081F0100081F0100081F01000810
:100050001F0100081F0100081F0100081F01000800
:100060001F0100081F0100081F0100081F010008F0
:100070001F0100081F0100083D070008490700088C
:100080001F0100081F0100081F0100081F010008D0
:100090001F0100081F0100081F0100081F010008C0
:1000A0001F0100081F0100081F0100081F010008B0
:1000B0001F0100081F010008000000001F010008C8
:1000C0001F01000800000000000000001F010008E0
:1000D00000000000AD1B00081F0100080000000028
:1000E0001F0100081F0100081F010008DFF810D0E1
:1000F00000F070FA0048004771310008AFF300804B
:10010000C00500200648804706480047FEE7FEE796
:10011000FEE7FEE7FEE7FEE7FEE7FEE7FEE7FEE7B7
:1001200049180008ED000008202A04DB203A21FAD3
:1001300002F00021704721FA02F3D040C2F1200200
:10014000914008431946704740EA01039B0703D0DA
:1001500009E008C9121F08C0042AFAD203E011F806
:10016000013B00F8013B521EF9D27047D2B201E0C8
:1001700000F8012B491EFBD270470022F6E710B5AC
:1001800013460A4604461946FFF7F0FF204610BD05
:10019000421C10F8011B0029FBD1801A704710B5D2
:1001A000002200E0521C835C8C5CA34201D1002B36
:1001B000F8D1D8B2E1B2401A10BD30B504460020E3
:1001C000034600E05B1C934203D2E05CCD5C401B25
:1001D000F8D030BD30B50B46014600202022012466
:1001E00009E021FA02F59D4205D303FA02F5491B05
:1001F00004FA02F52844151EA2F10102F1DC30BD1B
:100200002DE9F05F0546002092469B46884606464B
:10021000814640241BE02846414647462246FFF7D8
:1002200083FF53465A46C01A914110D311461846CF
:10023000224600F0E1F92D1A67EB01084F462246ED
:100240000120002100F0D8F917EB00094E41201ED3
:10025000A4F10104DFDC484631462A464346BDE8A6
:10026000F09F2DE9FE4F804681EA0300C00F0C4647
:10027000009021F0004123F00045B8EB0200A941B5
:1002800005D24046214690461C460B46024623F0C6
:100290000040104347D0270DC7F30A00C3F30A51AB
:1002A0000290401A019040286BDAC3F3130040F427
:1002B000801B0098924620B10023D2EB030A63EB27
:1002C0000B0B01985946C0F14002504600F094F9DA
:1002D00006460D4650465946019A00F09CF910EB2F
:1002E00008006141002487EA115284EAE7731A4347
:1002F00040D0009A62B3019A012A4FEA075215DCF6
:10030000001B61EB02014FF0004202EA0752CDE907
:100310000042001C41F5801132462B4600F09CF94A
:1003200003B0BDE8F08F40462146F9E7001B61EBC2
:100330000201001C41F5801300185B412018A2F552
:10034000001747EB030140EAD570B6196D4111E083
:100350006D084FEA360645EAC0754FEA0752001BA2
:1003600061EB0201001C41F5801149084FEA3000A1
:100370000019514132462B4603B0BDE8F04F00F062
:100380005CB90098012240000023D0EB020263EB2D
:10039000E073009821464FEAE074B8EB000061EB8F
:1003A0000401E9E783F000435BE781F0004158E78F
:1003B0002DE9FE4F81EA030404F0004421F00041DE
:1003C00000944FF0000B23F0004350EA01045ED08C
:1003D00052EA03045BD0C3F30A54C1F30A552C4418
:1003E000A4F2F3340194A0FB0254C1F3130141F4CD
:1003F0008011C3F3130343F4801301FB024400FB99
:10040000034E840A970A44EA815447EA8357A4FBBF
:10041000076802958D0A05FB07854FEA932C04FBBC
:100420000C542705029D4FEA065847EA1637B5EBEC
:1004300008056EEB070C870E920E47EA811742EA19
:100440008312A7FB0201B6EB0B0164EB00042B0D3A
:1004500043EA0C335E1844EB1C50DA465146E7FB86
:100460000201C5F313044FEA0B3343EA14534FEA76
:100470000432019C43EA0603A4F10C040294009C9C
:10048000CDE900B400F0E8F803B0BDE8F08F00203B
:100490000146F9E72DE9F04D81EA030404F0004B31
:1004A00021F0004514464FF0000A23F0004150EAC5
:1004B000050220D054EA01021DD0C5F30A570246B6
:1004C000C5F31303C1F31300C1F30A5640F48015BA
:1004D00043F48013A7EB0608101BD64608F2FD383C
:1004E00073EB050002D308F1010801E092185B41AB
:1004F000B8F1000F03DA00200146BDE8F08D0020BE
:100500004FF48011064684460EE0171B73EB050777
:1005100005D3121B63EB050306434CEA010C4908A3
:100520004FEA300092185B4150EA0107EDD152EAE0
:10053000030012D082EA040083EA0501084305D0D3
:10054000101BAB4106D20122002306E000224FF02F
:10055000004302E06FF0010253101AEB06004CEB6F
:10056000085110EB0A0041EB0B01BDE8F04D00F023
:1005700064B8C1F30A52C1F3130140F2FF3341F4EE
:1005800080119A4202DA00200146704740F233435C
:100590009A42A2F2334202DC5242FFF7C5BD00F09C
:1005A0002BB8000030B5041E71F1000404DB4FF0DD
:1005B0000044404264EB0101141E73F1000405DBAA
:1005C0001C464FF00043524263EB0403994208BFBC
:1005D000904230BD064C074D06E0E06840F0010354
:1005E00094E8070098471034AC42F6D3FFF782FD39
:1005F0006C4400088C440008202A04DB203A00FAEE
:1006000002F1002070479140C2F1200320FA03F369
:10061000194390407047202A06DBCB17203A41FA55
:1006200002F043EAE07306E041FA02F3D040C2F17F
:100630002002914008431946704710B5141E73F10B
:10064000000408DA401C41F1000192185B411A4392
:1006500001D120F0010010BD2DE9F04D92469B46DE
:1006600011B1B1FA81F202E0B0FA80F22032904684
:10067000FFF7C2FF04460F4640EA0A0041EA0B01B9
:1006800053465A46084313D0114653EA010019D085
:10069000C8F140025046FFF747FD05460E4650465A
:1006A00059464246FFF7A8FF084305D0012004E061
:1006B00020463946BDE8F08D0020054346EAE07645
:1006C0002C4337430A986305E40AA0EB0800002294
:1006D000FD0A44EA47540A3002D500200146E9E702
:1006E000010510196941DDE9084500196941BDE8B6
:1006F000F04DA2E7FEE7000038B50D48816941F0F2
:100700000401816180690B4C00F00400009000221C
:100710002821204600F0BBFA0749204600F0D2F914
:100720002046BDE838400449103100F0CBB9000044
:10073000001002400008014034000020014800F091
:100740009FB800007C010020014800F099B800002B
:100750003801002030B590F840500124AC40C56B02
:100760006C60046863604368102B036803D0996071
:100770000068C26030BD9A600068C16030BD000092
:1007800001220821014800F082BA0000000801405F
:1007900000220821014800F07ABA00000008014058
:1007A000704710B590F821100022022905D00421CD
:1007B000816380F82020012010BD01680B6823F0C0
:1007C0000E030B6001680B6823F001030B6090F8C7
:1007D0004030C46B012101FA03F3636080F82110FB
:1007E00080F82020104610BD10B590F8211000248C
:1007F000022903D00421816301243DE001680A68D5
:1008000022F00E020A6001680A6822F001020A6002
:100810001A4A0168914201D1012121E0174A14329C
:10082000914201D110211BE0144A2832914201D19A
:10083000891515E0114A3C32914201D189140FE02B
:100840000E4A5032914202D14FF4803108E00B4AF7
:100850006432914202D14FF4801101E04FF0807177
:10086000064A083A5160012180F82110002180F8E1
:100870002010416B01B18847204610BD080002409E
:100880002DE9F05FC16B0C6801680B68D0F840C0BF
:10089000042202FA0CF2494DDFF824A1494E4A4FD6
:1008A000DFF828B1DFF828E122422CD05A072AD5F8
:1008B0000A68920603D40A6822F004020A600168FA
:1008C000A94201D1042219E0514501D1402215E08D
:1008D000B14202D14FF4806210E0B94202D14FF42C
:1008E00080420BE0594502D14FF4802206E0714569
:1008F00002D14FF4800201E04FF080622F490839A5
:100900004A60C16A3BE04FF0020808FA0CF818EAA6
:10091000040F4FF000094FF0010235D05FEA8378F1
:1009200032D50B689B0605D40B6823F00A030B60D5
:1009300080F821200168A94201D1022219E0514525
:1009400001D1202215E0B14202D14FF4007210E033
:10095000B94202D14FF400520BE0594502D14FF495
:10096000003206E0714502D14FF4001201E04FF071
:100970000072124908394A6080F82090816A002983
:100980001AD0BDE8F05F0847082505FA0CF52542A6
:1009900012D01B0710D50B6823F00E030B6090F8E4
:1009A0004010C36B02FA01F15960826380F8212084
:1009B00080F82090016BE2E7BDE8F09F080002405C
:1009C0001C00024030000240440002405800024037
:1009D0006C00024030B528B308C8134914221944EA
:1009E000B1FBF2F18900C1631049816302214177B3
:1009F0001A6843F6F0718A43D0E900142143D0E924
:100A000002452C43214304692143446921438469FD
:100A1000214311431960002141630122427701778C
:100A2000084630BD012030BDF8FFFDBF0000024088
:100A300070B5044690F82000002501280CD0012054
:100A400084F8200094F821600020012E06D084F85C
:100A500020000225284670BD022070BD022684F8C1
:100A60002160A0632068066826F001060660204623
:100A7000FFF770FEE06A00282068016802D041F0AC
:100A80000E0106E021F0040101602068016841F0D8
:100A90000A0101602068016841F001010160D9E7A5
:100AA00070B5044600F0F8F80546601C02D0044812
:100AB0000078044400F0F0F8401BA042FAD370BD67
:100AC000000000202DE9F84FDFF89C91002409F187
:100AD000040A0AF1040B23460F270BF1040EBBE0B6
:100AE0000125A5402A40AA4276D1DFF880C14E6890
:100AF000A6EB0C0866452BD00DDC032E34D005DCAC
:100B000036B3012E19D0022E2FD11BE0112E16D094
:100B1000122E2AD119E0B8F5881F19D006DCB8F5D5
:100B2000803F15D0B8F5801F1FD111E0B8F5001F28
:100B30000ED0B8F5041F18D10AE0CB6815E0CB68D9
:100B40001B1D12E0CB6808330FE0CB680C330CE0C0
:100B50008B682BB1012B4FF0080303D0456104E0F3
:100B6000042302E0056100E00023FF2A01D80646C5
:100B700001E000F104064FEA840501D9A5F1200542
:100B8000D6F8008007FA05FC28EA0C0803FA05F5F8
:100B900048EA0508C6F800804D68ED005BD5344D85
:100BA000AE6946F00106AE61AD6924F0030605F0BA
:100BB000010500952F4D06EB050CDCF80850A60743
:100BC000360F07FA06F825EA0805DFF8AC8040453D
:100BD00003D14FF0000810E03DE0DFF8A080404571
:100BE00002D14FF0010808E0DFF89480404502D1BF
:100BF0004FF0020801E04FF0030808FA06F848EA4F
:100C00000508CCF808804D68D9F80060ED034D4622
:100C100001D5164300E096432E604D68DAF8006077
:100C2000AD03554601D5164300E096432E604D684E
:100C3000DBF80060ED025D4601D5164300E0964307
:100C40002E604D68DEF80060AD02754601D5164392
:100C500000E096432E60641C0A6832FA04F57FF4C3
:100C60003FAFBDE8F88F0000000401400000111004
:100C7000001002400000014000080140000C01404B
:100C8000001001408068084000D0012070470AB180
:100C9000016170470904FBE7014880687047000064
:100CA000000000200248816802781144816070478A
:100CB00000000020074810B5016841F010010160F4
:100CC000032000F075F8002000F006F800F024F88A
:100CD000002010BD0020024070B50D4D04464FF4B9
:100CE0007A712878B1FBF0F00A490968B1FBF0F09D
:100CF00000F0ECFA48B9102C07D200222146501E11
:100D000000F036F800206C6070BD012070BD00005E
:100D1000000000200C0000200C4808B5816941F05B
:100D200001018161816901F001010091C16941F016
:100D30008051C161C06900F0805000900448416852
:100D400021F0E06141F08071416008BD0010024077
:100D500000000140002809DB00F01F020121914042
:100D60004009800000F1E020C0F800117047000049
:100D7000F0B40E4B1B680C46C3F30223C3F1070506
:100D8000042D00D90425191D072901D2002300E0F4
:100D9000DB1E012606FA05F1491E214099409E40BE
:100DA000761E16403143F0BC01F084BC0CED00E02F
:100DB000064900F0070208684FF6FF03184040EAB2
:100DC0000220034A10430860704700000CED00E069
:100DD0000000FA052DE9F0470F46050061D0434EAB
:100DE000306800F00700B84209D2306820F00700F0
:100DF00038433060306800F00700B84251D12868AD
:100E00003B4C810712D5400703D5606840F4E06091
:100E100060602878000703D5606840F46050606027
:100E20006068A96820F0F000084360602878C00777
:100E300028D06868012810D02168022810D08907BE
:100E400000292EDA616821F0030101436160FFF798
:100E500023FF804641F288390DE021688903EFE7DE
:100E60008901EDE7FFF718FFA0EB0801494502D91A
:100E70000320BDE8F0876068696800F00C00B0EB03
:100E8000810FEFD1306800F00700B8420BD930680D
:100E900020F0070038433060306800F00700B842A7
:100EA00001D00120E5E72878400705D56068E968AA
:100EB00020F4E060084360602878000706D5606889
:100EC000296920F4605040EAC100606000F038F801
:100ED0006168084AC1F30311515CC84006490860C3
:100EE00006480068FFF7F8FE0020C2E70020024035
:100EF00000100240003500080C0000200400002013
:100F00000448054900684968044AC1F30221515C5C
:100F1000C84070470C000020001002401035000847
:100F20000448054900684968044AC1F3C221515C7C
:100F3000C84070470C000020001002401035000827
:100F400012A185B00FC98DE80F0014A0144A0068E3
:100F500004905168134801F00C03042B10D0082BA7
:100F60000ED1C1F38343C9031DF803000AD55168AC
:100F700004AAC1F34041515C0A4A5043B0FBF1F06E
:100F800005B0704708494843FAE70000020304052A
:100F9000060708090A0B0C0D0E0F101001020000C5
:100FA0000010024000127A0000093D002DE9F84FC0
:100FB000040070D02078C04DC00749D06868C0F3E5
:100FC0008100012807D06868C0F38100022809D198
:100FD0006868C00306D52868800339D56068002892
:100FE000E7D035E06068B0F5803F0BD010B1B0F5C8
:100FF000A02F11D0286820F480302860286820F4C1
:10100000802002E0286840F480302860606890B159
:10101000FFF742FE06460AE0286840F48020286078
:10102000F0E700BFFFF738FE801B642873D82868FC
:101030008003F7D50CE0FFF72FFE064605E000BF62
:10104000FFF72AFE801B6428F0D828688003F7D4B5
:1010500020789A4E80074FF001094FF0000839D5EB
:10106000686810F00C0F07D06868C0F38100022890
:1010700009D16868C00306D42868800714D52069A0
:10108000012808D110E02069B0B1C6F80090FFF740
:1010900003FE074605E00AE1FFF7FEFDC01B02283C
:1010A000C4D828688007F7D52868616920F0F8005F
:1010B00040EAC10028600DE0C6F80080FFF7ECFDB3
:1010C000074604E0FFF7E8FDC01B022823D8286884
:1010D0008007F7D4207800072CD57948A169D9B1C9
:1010E000C0F80090FFF7D8FD074604E0FFF7D4FDF5
:1010F000C01B02280FD8686A8007F7D571484FF4E3
:10110000FA510068B0FBF1F0009000BF0098411E5A
:101110000091FAD20EE080E0C0F80080FFF7BCFD3D
:10112000074604E0FFF7B8FDC01B022875D8686ABF
:101130008007F7D42078400760D5E8690027C00011
:1011400008D4E86940F08050E861E869012700F0C0
:10115000805000905C480168C90513D4016883463B
:1011600041F480710160FFF797FD824606E000BF01
:10117000FFF792FDA0EB0A0064284ED8DBF80000D0
:10118000C005F5D5E06801280AD008B1052813D0BC
:10119000286A20F001002862286A20F0040002E09A
:1011A000286A40F001002862E06841F2883B98B16B
:1011B000FFF772FD82460BE0286A40F004002862C7
:1011C000EEE700BFFFF768FDA0EB0A0159455AD8CA
:1011D000286A8007F6D50CE0FFF75EFD824605E041
:1011E000FFF75AFDA0EB0A0159454CD8286A800741
:1011F000F6D41FB1E86920F08050E861E06988B357
:101200006968C1F38101022944D00228C6F86080D0
:1012100004D0FFF741FD044638E034E0FFF73CFD21
:10122000074604E0FFF738FDC01B02282BD82868CA
:101230008001F7D4206AB0F5803F05D16868A168C5
:1012400020F4003008436860D4E908010843696865
:1012500021F4741108436860C6F86090FFF71CFD24
:10126000044606E025E000BFFFF716FD001B02283C
:1012700009D828688001F7D51BE000BFFFF70CFDF7
:10128000001B022802D90320BDE8F88F28688001DE
:10129000F4D40EE00128F7D06868226A00F48031A7
:1012A000914204D1616A00F47010884201D001209B
:1012B000EAE70020E8E70000001002400000424298
:1012C000800442420C0000200070004010B5401E17
:1012D000B0F1807F01D3012010BD4FF0E0246061A8
:1012E0000F21601701F0E6F90020A06107202061BE
:1012F000002010BD10B504460068416994F83920FB
:10130000C1F3C011212A0BD151B1416921F08001F3
:101310004161206B08B1FFF744FA204600F032FB30
:101320002068416994F83A20C1F38011222A0BD138
:1013300051B1416921F040014161606B08B1FFF793
:1013400030FA204600F010FB002010BD704700006E
:1013500070B5026804461068D168536910F00F0F29
:1013600050D003F0010501F4907635435DD0C207FB
:1013700005D0CA0503D5E26B42F00102E2634207E1
:1013800005D5DA0703D0E26B42F00202E26382077E
:1013900005D5DA0703D0E26B42F00402E2630207EC
:1013A00005D5DA0703D0E26B42F00802E263E26B94
:1013B000002A33D0800604D5880602D5204600F0E6
:1013C000EAFA20684069E16BC0F38010090700D495
:1013D00028B3204600F0C8FA2068416949061AD5AA
:1013E000416921F040014161606BA0B11B4941633B
:1013F000606BFFF7F9F9002810D0606B416BBDE816
:1014000070400847830610D58B060ED52046BDE8F0
:10141000704000F0C0BA2046FFF798FF70BD20462C
:10142000FFF794FF0020E06370BD030606D50B06AE
:1014300004D52046BDE8704000F054BB4006F3D50B
:101440004806F1D5D168204621F04001D160202125
:1014500084F8391000F022F970BD000091180008DE
:1014600070B5040004D094F83900002510B106E0EE
:10147000012070BD84F83850204600F022F8242066
:1014800084F839002068C16821F40051C160204609
:1014900000F0CCFA2068016921F4904101612068D4
:1014A000416921F02A0141612068C16841F400517D
:1014B000C160E563202084F8390084F83A000020F8
:1014C00070BD7047F8B5044690F83A0020283CD12A
:1014D000C1B3BAB394F83800012836D0012084F89B
:1014E0003800A162A2850025E563222084F83A0035
:1014F000636B17489862636B1648D862636B164833
:101500001863606B134645630846666B21680246A4
:101510003046091DFFF78CFA206801684168009188
:1015200084F83850C16841F48071C1602068416915
:1015300041F0010141612068416941F04001416190
:101540000020F8BDFFE70120FBE70220F9E70000DB
:10155000EB18000827190008A11800087047704709
:101560002DE9F843044690F839001F4616460D460B
:10157000202850D1A5B19EB194F8380001284AD056
:10158000012084F838004FF00008C4F83C80212086
:1015900084F83900FFF780FBA6848146E68426E0C4
:1015A0000120BDE8F883E08C401EE084A0684B4633
:1015B000B0F5805F4FF000024FF0800120460097A9
:1015C00003D000F0C0FAE8B90DE000F0BCFAC8B9E9
:1015D00028882168C0F308004860206908B16D1CA4
:1015E00005E0AD1C03E0216815F8010B4860E08CB4
:1015F0000028D8D14B46002240212046009700F019
:10160000A2FA08B10320CCE7202084F8390084F83E
:1016100038800020C5E70220C3E7000070B504460B
:1016200090F83900202830D169B362B394F83800BB
:1016300001282AD0012084F838002162A284E284A3
:101640000025E563212084F83900236B1048986257
:10165000236B1048D862236B0F481863206B134626
:1016600045632668206B321DFFF7E2F921686FF0B1
:101670004000086084F838502068416941F08001DA
:101680004161002070BD012070BD022070BD0000CE
:10169000311900085F190008A11800087047704749
:1016A000FEE700000A460146064810B5012300780F
:1016B00001F09CFE012803D0002800D1062010BDB7
:1016C000002010BD680000200A460146064810B5FB
:1016D000007801F0BFFE012803D0002800D10620C9
:1016E00010BD002010BD0000680000202DE9F04171
:1016F0000746002015460E46044608E03819311901
:10170000C0B2FFF7CFFF002803D1641CE4B2AC42A3
:10171000F4D3BDE8F081FFF7E9BF2DE9F0410746BA
:10172000002015460E46044608E03819315DC0B267
:10173000FFF7CAFF002803D1641CE4B2AC42F4D323
:10174000BDE8F081FFF7E9BF084808B5816941F0BD
:10175000080181618069064900F008000090054891
:10176000FFF7B0F9BDE8084000F006B800100240ED
:1017700058000020000C0140012291020148FFF7AF
:1017800086BA0000000C014000224FF4806101483D
:10179000FFF77DBA000C01400548017819B100211E
:1017A0000170FFF7E9BF01210170FFF7EDBF0000F5
:1017B0005400002040F652707047FEE7FEE7704785
:1017C0000122FFF793BF7047FFF76CBA10B5FFF720
:1017D00071FA00F00AF8FFF7B7FF4FF4E13000F0BC
:1017E00013FABDE8104001F0FBBC30B58FB02821E2
:1017F0006846FEF7C2FC14210AA8FEF7BEFC0121D0
:101800000804CDE900100024029402250491CDE9DA
:1018100007504FF4E01009906846FFF7C7FB08B186
:1018200072B6FEE70F20CDE90A054FF48060CDE9DE
:101830000C4002210AA80E94FFF7CCFA002801D030
:1018400072B6FEE70FB030BD0D48016841F00101EE
:10185000016041680B4A1140416001680A4A114029
:101860000160016821F480210160416821F4FE01DA
:1018700041604FF41F0181600449C0030860704754
:10188000001002400000FFF8FFFFF6FE08ED00E048
:1018900010B5406A0021C185C184FFF757FD10BD16
:1018A00070B5446A2068406994F83910C0F3C010DC
:1018B0000025212904D118B1E584204600F062F802
:1018C0002068406994F83A10C0F38010222904D1AE
:1018D00018B1E585204600F047F8E06B40F01000B5
:1018E000E0632046FFF732FD70BD10B50146406A47
:1018F00009680968890613D40021C1850168CA688E
:1019000022F48072CA6001684A6922F001024A61C9
:1019100001684A6922F040024A61202180F83A10A9
:10192000FFF71CFE10BD10B5406AFFF718FE10BD92
:1019300010B50146406A0968096889060CD400217F
:10194000C18401684A6922F080024A610068C16866
:1019500041F04001C16010BDFFF7A0FE10BD10B501
:10196000406AFFF79CFE10BD0168CA6822F49072BD
:10197000CA6001684A6922F001024A61202180F8A8
:101980003A1070470168CA6822F0C002CA6020217C
:1019900080F83910704710B590F83A10222901D01C
:1019A000022010BD8168B1F5805F11D00169002966
:1019B00001681FD0496801F07F03816A4A1C826276
:1019C0000B70C18D491E0904090CC18518D02BE08C
:1019D0000269816A002A0268526805D0D2B20A8080
:1019E000816A491C8162ECE7C2F308020A80816ABD
:1019F000891CF7E74A68816A4B1C83620A70E0E73A
:101A00000168CA6822F02002CA600168CA6822F42C
:101A10008072CA6001684A6922F001024A6120218D
:101A200080F83A10FFF79AFD002010BD2DE9F04133
:101A3000044600680169E26821F4405111430161E4
:101A40002169A0680843616908432168CA6841F2B6
:101A50000C639A430243CA6020684169A26921F479
:101A60004071114341611E49206864253226884235
:101A700002D1FFF755FA01E0FFF742FA00EBC0018F
:101A800001EB001160686FF018078000B1FBF0F205
:101A9000B2FBF5F2B1FBF0F37A4303EB8202B1FB48
:101AA000F0F306EB0212B2FBF5F2B3FBF5F302F032
:101AB000F00202EB0312B1FBF0F3B1FBF0F0B0FB6C
:101AC000F5F0784303EB800006EB0010B0FBF5F077
:101AD000216800F00F0010448860BDE8F08100002C
:101AE0000038014090F83910212901D002207047B8
:101AF0008168B1F5805F016A0BD04A1C02620268FE
:101B000009785160C18C491E0904090CC1840ED0AA
:101B100017E009880268C1F30801516001690029D2
:101B2000016A02D0491C0162ECE7891CFBE70168ED
:101B3000CA6822F08002CA600068C16841F04001B2
:101B4000C160002070472DE9F041984617460E46C7
:101B50000446069D1DE0681C1BD02DB1FFF79CF8C4
:101B6000A0EB0800A84214D92068C16821F4D07104
:101B7000C1602068416921F001014161202084F8A1
:101B8000390084F83A00002084F838000320BDE8CA
:101B9000F0812068006836EA000004D00020B842D6
:101BA000D9D00020F3E70120F9E7000038B512484A
:101BB00000680168C943C90618D401680025406857
:101BC00000900D48FFF796FB0C48006840680C4CED
:101BD0000090C0F18000206080220A490648FFF78B
:101BE00071FC08482168455401F0CEF9BDE8384041
:101BF0000148FFF7ADBB0000F800002038010020CD
:101C00001000002078000020F0B5434E074685B054
:101C1000B06940F48040B061B06900F48040049045
:101C2000B06940F00400B061B069002400F0040025
:101C30000490701500900220CDE901040320374D77
:101C4000039069462846FEF73DFF2815CDE90004BC
:101C5000694628460294FEF735FF324D3048286029
:101C6000C5E901740C20EC60C5E90440AC6128466C
:101C7000EC61FFF7F5FB2868C16841F01001C16015
:101C8000706940F0010070617069002200F001008D
:101C9000049011460E20FFF76BF80E20FFF75AF85C
:101CA000002211460F20FFF763F80F20FFF752F8CC
:101CB00005F140061C48C6E900048027C6E9024732
:101CC00020203461C6E905403046F461FEF782FE0B
:101CD0006E63154875624436143801C6102091C6EB
:101CE00005F1840046F810497461B461F461FEF7AF
:101CF00071FE2E630022114625207562FFF738F829
:101D00002520FFF727F88022A5F180012846FFF75C
:101D1000D9FB05B0F0BD00000010024000080140F2
:101D200000380140F800002058000240FEE710B5DE
:101D300000F008F800F0BEF8D82801D0012010BD4E
:101D4000002010BD10B5FEF7D7FCFEF721FD1420D2
:101D500001F0D6F9FEF714FDBDE81040502001F067
:101D6000CFB9000010B50021084600F067FC0C2137
:101D7000012000F063FC0021072000F05FFC01213E
:101D8000072000F05BFC0021072000F057FC212118
:101D9000042000F053FC0E21052000F04FFC002130
:101DA000082000F04BFC8021372000F047FC1B4846
:101DB000007810B1302806D00DE00021382000F066
:101DC0003DFC002104E03021382000F037FC3021B8
:101DD0003A2000F033FC0021392000F02FFC802154
:101DE0003B2000F02BFC80213C2000F027FC8021D0
:101DF0003D2000F023FC00213E2000F01FFC0021CC
:101E00003F2000F01BFC0E21072000F017FC0F21E3
:101E1000BDE81040072000F011BC00006A0000205F
:101E200010B5002400F0D2FA00F04AFA01210C208B
:101E300000F004FC01210D2000F000FC00210E2028
:101E400000F0FCFB054801780F2000F0F7FB0921AA
:101E50000A2000F0F3FB204610BD000070000020B7
:101E600070B5050AC4B200F02BFA01210C2000F075
:101E7000E5FB00281DD102210D2000F0DFFB00282A
:101E800017D104210E2000F0D9FB002811D12946DA
:101E90000F2000F0D3FB00280BD12146102000F0CA
:101EA000CDFB002805D1BDE8704009210A2000F0D3
:101EB000C5BB70BD08B500208DF80000694606203E
:101EC000FFF77EFC9DF8000008BD000070B50C46D1
:101ED0000646002500F0F8FA00281AD10BE000BFF2
:101EE00006EB4511202000F095FA002811D1203C86
:101EF0006D1CA4B2EDB2202CF2D234B106EB451128
:101F0000E0B200F087FA002803D1BDE8704000F08D
:101F100099BA70BDF0B589B00446202269460C20FC
:101F2000FFF7F9FB002879D19DF81C009DF81F10E0
:101F30009DF80B2040EA01659DF81E009DF81D10DC
:101F4000000440EA012005439DF808009DF809605F
:101F500040EA02609DF80A209DF81770120442EAD8
:101F6000062210439DF816209DF81960BDF90C302B
:101F700042EA06629DF81860BDF81A10360446EA77
:101F80000726324322F07F42B0F5803F04D9000299
:101F9000B0FBF2F0000202E00004B0FBF2F0000B34
:101FA000404200EB80004FF4995202EB4000524A4D
:101FB000B2FBF0F00A22A0F2827090FBF2F000284F
:101FC00000DA0020184406B2C8082D280BD2E420FD
:101FD000484340F2EC4202EBD00240F20D1048437D
:101FE00040F6EC0370E05E280BD2C1EB811080005C
:101FF000AC2202EBD0024FF49670484340F2853396
:1020000062E09A280BD2BE20484341F2B27202EB42
:10201000D002E320484341F6176355E069E0F62813
:102020000AD2D120484340F6E33202EBD002ED2041
:10203000484341F2E97347E0B0F5347F0AD8C52040
:10204000484341F2767202EBD002D820484342F670
:10205000244339E0B0F5A56F0AD2C920484340F6C1
:10206000694202EBD002E220484341F2C3132BE065
:1020700040F6ED2290420ED2C1EB811000EBC11070
:1020800044F2EA1202EBD002C1EB4110C0EBC000F7
:1020900043F6D47318E040F6FD5290420AD2BC20B9
:1020A000484345F6755202EBD002DA20484343F22A
:1020B000BC6309E0B42048434DF2141202EBD00295
:1020C000CC2048434FF2613303EBD003954201D259
:1020D000002009E09D4201D9642005E0A81A642788
:1020E00078439A1AB0FBF2F0268065602181E060A7
:1020F000002009B0F0BD000098DA8C0001460320F2
:10210000FFF75EBB38B5044600208DF80000684636
:10211000FFF7F4FF002806D19DF80000C00703D0A8
:102120002046FFF7F7FE38BD012038BD10B5FFF798
:1021300009FE00F017FA00F021F9BDE8104000F0A8
:102140000BB9000010B5FFF735FB0146BDE81040A4
:102150000148FFF7BBBE00001835000870B5C5B2D6
:10216000C0F30724C0F3074600F0AAF801210C20B1
:1021700000F064FA002823D103210D2000F05EFA5C
:1021800000281DD101210E2000F058FA002817D197
:1021900029460F2000F052FA002811D121461020C4
:1021A00000F04CFA00280BD13146112000F046FA1D
:1021B000002805D1BDE8704009210A2000F03EBA90
:1021C00070BD000038B5002425468DF800406946F2
:1021D0000420FFF7F5FA04439DF8000040F00101E8
:1021E0008DF80010042000F029FA04436946042009
:1021F000FFF7E6FA04436D1C052D04DA9DF8000094
:10220000C007E4D003E003A000F01EFA0624204635
:1022100038BD0000456E61626C6520696E74657240
:1022200072757074204661696C656421000000005D
:102230001FB5002000900190029003906846FFF7C0
:1022400061FF002808D1BDF9001041F26800814209
:1022500003D305A000F0F8F91FBDBDF808200BA0BE
:10226000039B00F0F1F91FBD564935333030204D46
:102270006178696D756D2064697374616E63652042
:102280006578636565646564210D0A0056493533D8
:1022900030302044697374616E63653A2025646D43
:1022A0006D2C204E6F6973653A2025642C20436F96
:1022B0006E666964656E63653A2025640D0A0000E8
:1022C00010B50F21072000F0B9F90E21072000F00A
:1022D000B5F904001BD10E480078A0B9012000F028
:1022E0000FFF2421E92000F0A9F900280FD10021D7
:1022F000EE2000F0A3F9002809D10021F52000F01C
:102300009DF9040003D1042000F0FAFE204610BD20
:102310006A000020024640F2B75048430A23B0FB4F
:10232000F3F00B4B10B5B3FBF2F2101A094A10444C
:1023300049F6C472B0FBF2F084B20846FFF70EFF14
:10234000002804D12046BDE81040FFF789BD10BD2C
:1023500000CA9A3B0096E7FF08B500208DF8000000
:102360006846FFF7CBFE00F031F8FFF759FDFFF7A5
:10237000A7FF0F2000F05EF908BD00001CB5002487
:1023800000F024F8FFF79CFF0D210A2000F056F919
:1023900064200EE0032269460C20FFF7BCF90A48CE
:1023A0009DF800100170BDF80110418020461CBD51
:1023B000322000F0A5FE01A90320FFF701FA9DF8E5
:1023C0000400C007F4D0E5E77000002038B5002411
:1023D000012000F095FE69460220FFF7F1F9214641
:1023E000641C142903DA9DF80010C907F0D1142CDD
:1023F00005DB9DF8001002A000F026F9012038BD91
:1024000043505520427573792073746174203D20C8
:1024100025640A0038B50D460446202801D9062057
:1024200038BD03208DF800008DF801400222694676
:102430000A20FFF787F9224629460C20FFF782F988
:1024400038BD000010B50C21012000F0F7F800287D
:1024500037D1062100F0F2F8002832D1A0213B202C
:1024600000F0ECF800282CD180213B2000F0E6F8A9
:10247000002826D11348007888B92421E92000F0EB
:10248000DDF800281DD10021EE2000F0D7F800284B
:1024900017D10021F52000F0D1F8002811D1072133
:1024A000002000F0CBF800280BD10221072000F01B
:1024B000C5F8002805D10021BDE81040072000F034
:1024C000BDB810BD6A00002010B5FFF7F9FE082165
:1024D000072000F0B3F8002840D10A21072000F0BF
:1024E000ADF800283AD1062100F0A8F8002835D12F
:1024F0001B490120FFF764F900282FD1184C641EF6
:10250000607840F00101012000F098F8002825D102
:10251000207858B93021382000F090F800281DD1DB
:1025200030213A2000F08AF8002817D101210A2032
:1025300000F084F8002811D102210B2000F07EF871
:1025400000280BD100210C2000F078F8002805D1DC
:102550000021BDE810400D2000F070B810BD000053
:102560006B000020F8B50026314D8DF80060344630
:102570002F493820891CFFF723F9A878302801D08B
:1025800050B110E02A493A20C91CFFF719F9E87840
:10259000302808D128700AE025493A20C91CFFF7E5
:1025A0000FF9E878F0B3641CE4B2052CE0D3FFF730
:1025B000D9FBFFF70BFF69460820FFF701F901205F
:1025C00000F09EFD0021082000F038F8012000F006
:1025D00097FD69460820FFF7F3F89DF8000020B149
:1025E0002046641CE4B20528ECD30024FFF7AAFDC2
:1025F0000A2000F085FD69460820FFF7E1F89DF804
:102600000000552806D0662804D02046641CE4B299
:102610000528EBD3052C08D2FFF7D4FD4FF4003189
:102620001E2000E002E0FFF775FEF8BD2E70BEE749
:102630006A00002001460A20AFF3008013B5012292
:1026400001A9FFF76AF81CBD0FB4054B10B503A92B
:10265000044A029800F010F910BC5DF814FB000069
:1026600059310008740000200FB4084B10B504A9BC
:1026700002AA039800F000F9044602A9002000F025
:102680007EFC204610BC5DF814FB00007F2F000884
:1026900037B514460846064B6A46214600F0ECF86A
:1026A00004466946002000F06AFC20463EBD00005A
:1026B0007F2F00080907090E002804DB00F1E02045
:1026C00080F80014704700F00F0000F1E02080F85F
:1026D000141D704702E008C8121F08C1002AFAD171
:1026E00070477047002001E001C1121F002AFBD192
:1026F000704700002DE9FF5F82B00021DDE9043062
:10270000020DDDF840B0034318D044F61050A2F299
:10271000FF3242431514119801281FD0A5EB0B007E
:10272000401C5FEA000A4FF000064E4FDFF8389178
:10273000B046504615D5CAF1000413E011980124A3
:102740004AA3012801D16FEA0B010298119AC0E94E
:102750000031C0E9024206B0BDE8F09FCBF10000B5
:10276000DFE704460021404A491842EB0450CDE916
:10277000001012E0E00707D032463B46404649468B
:10278000FDF716FE8046894632463B4610461946FE
:10279000FDF70EFE06460F466410002CEAD1DDE977
:1027A0000401DDE90023BAF1000F06DAFDF700FEAF
:1027B00042464B46FDF7FCFD05E0FDF76BFE424649
:1027C0004B46FDF767FE04460E460022284BFDF7F8
:1027D000E9FE03D84FF0FF30014607E00022254B09
:1027E00020463146FDF73DFDFDF7C3FE102409E00C
:1027F000002C0ADB0A220023FDF702FD039B303286
:102800001A55641E50EA0102F2D1641C039AC4F105
:1028100011031444119A012A03D0012208430DD157
:102820000AE0084304D000204FF0110B119072E72A
:10283000A3EB0B056D1E0DE05B4504DD4FF00002C0
:1028400005F1010504E003DA4FF00002A5F10105EE
:10285000002AECD002981199C0E90231C0E9004584
:1028600079E70000000014400000F03F3000000055
:102870000000F0430000E03F2DE9FF4F95B09A467D
:10288000884606460025EEE1252877D10024274614
:10289000F94A0121039400E0044316F8013F203B6C
:1028A00001FA03F01042F7D130782A2811D06FF0E6
:1028B0002F033078A0F13002092A16D8039A44F089
:1028C000020402EB820203EB42021044761C0390E6
:1028D000EFE758F8042B0392002A03DA504244F43D
:1028E0000054039044F00204761C30782E2816D150
:1028F00016F8010F44F004042A280DD06FF02F02BF
:102900003078A0F13003092B09D807EB870302EBDD
:102910004303C718761CF3E758F8047B761C30781D
:102920006C280FD006DC4C2817D068280DD06A28F8
:1029300014D104E0742810D07A280FD10DE044F4AB
:1029400000140AE044F4801401E044F44014727866
:10295000824202D104F58014761C761C30786628F9
:102960000BD013DC582877D009DC002875D0452817
:10297000F6D04628F4D047281AD193E118E063280E
:1029800035D0642879D0652812D18BE1702873D0B6
:1029900008DC6728F1D069286FD06E280DD06F2829
:1029A00006D1ACE073282CD0752874D0782853D089
:1029B0005246179990476D1C54E1C4F30250022807
:1029C00009D003280DD0D8F8001004280DD00D60D0
:1029D00008F1040846E1D8F80010EA17C1E90052EE
:1029E000F6E7D8F800100D80F2E70D70F0E718F860
:1029F000041B8DF8001000208DF80100EB4601202B
:102A000003E058F804BB4FF0FF3061074FF00001BE
:102A100002D40DE009F101018946B9420FDA81457E
:102A2000F8DB1BF809100029F4D108E009F10101D5
:102A300089468142FADB1BF809100029F6D1039878
:102A40005346A0EB090721463846179A00F080FA52
:102A5000284400EB090507E044E008E10DE01BF81D
:102A6000010B524617999047B9F10109F7D2534625
:102A700021463846179AF2E039E00A21C4F302529F
:102A80004FF0000B0091022A06D058F8040BC11732
:102A9000032A09D00AE023E008F1070020F007022A
:102AA000F2E80201904605E000B2C117042A01D104
:102AB00040B2C117002906DA0A460021404261EB04
:102AC00002012D2202E0220504D52B228DF80420DC
:102AD000012203E0E20701D02022F7E7914657E008
:102AE0000A2100E010214FF0000B00910BE01021B3
:102AF0004FF0000B44F004040827009103E0082085
:102B00004FF0000B0090C4F30252022A05D058F88F
:102B1000040B0021032A08D008E008F1070020F088
:102B20000702F2E80201904603E080B2042A00D1D5
:102B3000C0B24FF0000922072AD53278702A07D098
:102B4000DDF800C08CF0100C5CEA0B0C05D00EE038
:102B500040228DF80420012208E050EA010306D04B
:102B600030238DF804308DF8052002229146009B19
:102B700083F0080353EA0B030AD150EA010201D1A2
:102B8000620705D530228DF804204FF001097F1E21
:102B90003278582A04D039A20C920CAA02920BE087
:102BA0003BA2F9E75B46009AFDF72AFB0C9B9B5C76
:102BB000029A521E0292137050EA0102F2D1029858
:102BC00004A9081A00F1200B600702D524F4803410
:102BD00000E001275F4502DDA7EB0B0000E00020CD
:102BE00000EB0B01009003984944401A0390E00366
:102BF00006D453462146179A039800F0A9F90544D4
:102C0000002706E001A85246C05D179990476D1C49
:102C10007F1C4F45F6DBE0030CD553462146179A3F
:102C2000039800F095F9054404E0302052461799C6
:102C300090476D1C0099481E00900029F5DC08E0C3
:102C40000298029952460078491C029117999047C0
:102C50006D1CBBF10001ABF1010BF1DC5BE100F09D
:102C600065F90544761C307800287FF40DAE19B064
:102C70002846BDE8F08F00000928010030313233CA
:102C800034353637383961626364656600000000A8
:102C90003031323334353637383941424344454692
:102CA00000000000600700D4062708F1070020F0AC
:102CB0000700F0E80223804603F0004C5FEA0C00B6
:102CC00001D097A009E0200501D596A005E0E00716
:102CD00001D095A001E0AFF24C001390307823F0C2
:102CE000004365280CD006DC452809D046281DD0B5
:102CF00047287FD13BE0662818D067287AD136E094
:102D00000021112F01DB112000E0781CCDE900012A
:102D100004A90CA8FFF7EEFCDDE90D010C9A4FF0B9
:102D2000000B07F10109109200914EE04FF00040B6
:102D30000097CDE9011004A90CA8FFF7DBFCDDE941
:102D40000D020C9B0F994FF0000B914610930092CF
:102D500011B9791C00EB0109B7EB090003D4C0F1EC
:102D6000FF3B07F10109A9EB0700019042E0012FA9
:102D700000DA01270021112F01DD112000E0384683
:102D8000CDE9000104A90CA8FFF7B4FCDDE90D01B1
:102D90000C9A00914FF0000BB946109221070FD406
:102DA000009A4A4503DA914601E0A9F10109B9F117
:102DB000010F05DD109AA9F10101515C3029F4D011
:102DC000B84202DA10F1040F03DA0121CDE9011053
:102DD00010E0002803DC8344A9EB000102E0411C61
:102DE000494500DD8946A0EB0B00401C01904FF0E7
:102DF00000400290200705D40198484502DB4FF0BF
:102E0000FF30019000208DF84B0002980DF14B0728
:102E1000B0F1004F25D002200C902B200D9002988D
:102E200000280CDA404202902D200D9007E00A2184
:102E30000298FDF7CFF93031029007F8011D0C9987
:102E4000481E0C900029F2DC02980028EFD1791E70
:102E50000D980870307800F0200040F0450007F829
:102E6000020D11A8C01BC01D02901398007800B17C
:102E7000012000EB0901019801EBE0710298014487
:102E80000398401A401E0390E00306D4534621469F
:102E9000179A039800F05CF805441398007818B16D
:102EA0005246179990476D1CE00323D5534621469F
:102EB000179A039800F04CF805441BE0BBF1000F93
:102EC00007DB0098584504DD1098179910F80B009F
:102ED00001E0179930205246904701980BF1010B01
:102EE000401E05F10105019004D12E20524617998C
:102EF00090476D1CB9F10001A9F10109DEDC05E084
:102F000017F8010B5246179990476D1C0299481EFD
:102F100002900029F4DC53462146179A03989EE656
:102F20002D0000002B000000200000002DE9F041E2
:102F3000044600251E461746880404D405E0394699
:102F40002020B0476D1C641EF9D52846BDE8F081ED
:102F50002DE9F041044600251E469046C80301D5E0
:102F6000302700E02027880404D505E04146384694
:102F7000B0476D1C641EF9D52846BDE8F0810A688B
:102F8000531C0B60107070472DE9FF47814620A14C
:102F9000FDF705F9204E10F0FF0F4FF000054FF43C
:102FA00080382DD0681E03AFCDE9027001240023C4
:102FB00022461AA14846CDE9004500F053F838B141
:102FC0008DE8B0004346012217A1484600F04AF8B8
:102FD000039C4FF6FF72210C0904A0B212D04145A8
:102FE00004D1904202D113A000F0E4F8601C0DD08F
:102FF000B44203D113A000BF00F0DCF8BDE8FF87A6
:103000000396E5E79042F1D110A0EDE712A0F3E7B7
:1030100041540D0A000000000000FFFF41542B53F3
:10302000454E534F523D000041542B564552534993
:103030004F4E3D005649353330302056312E300D3D
:103040000A0000004F4B210D0A000000564935339D
:1030500030300D0A000000004552524F52210D0A37
:10306000000000002DE9F04F89B08046DDE91376BD
:103070001D46924689460846DDF848B0FDF788F8B7
:10308000C4B2224641466846FDF75EF822464946EC
:103090006846FDF792F810F0FF0F20D1A044BAF176
:1030A000000F08D013A16846FFF7DEFA69464046D4
:1030B000FDF775F808B15C460FE04FF6FF70054369
:1030C000356015E022460CA16846FFF7CDFA694647
:1030D0004046FDF764F848B1641CBC42F2D94FF099
:1030E000FF303060012009B0BDE8F08F2819306052
:1030F0000020F8E73F0D0A0025640D0A00000000DB
:1031000040F2E7330DE0194600BF00BF00BF00BF2B
:1031100000BF00BF00BF00BF00BF00BF491E89B293
:10312000F2D2401E80B2EED2704711E000BF00BF65
:1031300000BF00BF00BF00BF00BF00BF00BF00BF97
:1031400000BF00BF00BF00BF00BF00BF00BF00BF87
:10315000401E80B2EAD2704713B54FF47A73012251
:1031600069460248FEF7FCF900981CBDF8000020F3
:10317000FEF72CFB5FF00004FEF7D9FD48B10024F8
:1031800007A0FFF761FA2120FDF78AFCFEF704FB98
:10319000F2E714B90124FEF7C9FFFFF749F8F2E797
:1031A0006E6F2066696E6420564935333030210DCC
:1031B0000A0000000FB400B5C1B043AA68464299A6
:1031C000FFF766FA6846FCF7E3FF82B269460348F8
:1031D000FEF724FA41B05DF814FB0000F80000206F
:1031E00038B51248816941F0080181618069104C4D
:1031F00000F0080000900022C0212046FDF747FDA6
:103200000C492046FDF75EFC0A4920461031FDF7C7
:1032100059FC012240212046FDF739FD2046BDE83A
:10322000384001228021FDF732BD0000001002402D
:10323000000C0140140000202DE9F041274F80468A
:103240000020274D786039462846FDF73BFC0024D6
:103250002646002240212846FDF719FD0A20FFF7E7
:1032600064FF012240212846FDF711FD6006040E8F
:1032700080212846FDF706FD08B1641CE4B20A204F
:10328000FFF753FF761CF6B2082EE2D34646002223
:1032900040212846FDF7FBFC012078600F492846B5
:1032A000FDF710FC0EB1002200E00122802128462B
:1032B000FDF7EDFC0A20FFF738FF012240212846E8
:1032C000FDF7E5FC0A20FFF730FF002240212846E9
:1032D000FDF7DDFC2046BDE8F08100002400002061
:1032E000000C014010B511490120114C48602046E6
:1032F000FDF7E8FB012280212046FDF7C8FC0122F2
:1033000040212046FDF7C3FC0A20FFF70EFF0022F4
:1033100080212046FDF7BBFC0A20FFF706FF204670
:103320000022BDE810404021FDF7B1BC2400002080
:10333000000C014010B511490120114C4860204695
:10334000FDF7C0FB002240212046FDF7A0FC002233
:1033500080212046FDF79BFC0A20FFF7E6FE0122B4
:1033600040212046FDF793FC012280212046FDF7F5
:103370008EFCBDE810400A20FFF7D7BE24000020D5
:10338000000C014070B5174906460120164D4860F3
:103390002846FDF797FB002240212846FDF777FCE1
:1033A0005FF0070426FA04F0C00701D0012200E014
:1033B000002280212846FDF76AFC01224021284690
:1033C000FDF765FC0A20FFF7B0FE002240212846E9
:1033D000FDF75DFC0A20FFF7A8FE641E64B2002C16
:1033E000E0DA70BD24000020000C01402DE9F0411E
:1033F0001E4615460F460446FFF774FF2046FFF7AA
:10340000C1FF00F045F870B93846FFF7BBFF00F088
:103410003FF840B9FFF766FF44F00100FFF7B2FF45
:1034200000F036F810B10020BDE8F0810024761ECF
:1034300006E00120FFF700FF641C05F8010BE4B271
:10344000B442F6DB0020FFF7F7FE2870FFF772FFAB
:103450000120E9E770B515460E460446FFF742FF26
:103460002046FFF78FFF00F013F858B93046FFF7FA
:1034700089FF00F00DF828B92846FFF783FF00F018
:1034800007F808B1002070BDFFF754FF012070BDA0
:1034900070B519490020194D48602846FDF712FB08
:1034A000012280212846FDF7F2FB0A20FFF73DFEAE
:1034B000012240212846FDF7EAFB0A20FFF735FEEE
:1034C00000244FF47A760AE0641CA4B2B44203D319
:1034D000FFF730FF012070BD0A20FFF726FE802194
:1034E0002846FDF7CFFB0028EED1002240212846D8
:1034F000FDF7CDFB002070BD24000020000C014032
:103500000000000000000000010203040607080993
:103510000000000001020304020F46020EB8C28C34
:10352000D2D5320200065391EF3200020E118E29DD
:103530008F2AC2D5632AFF6329FF85298C852A8AB1
:10354000D28C20D512000000000000000000000016
:10355000000000000080EB2200000002000E0000CE
:10356000000000020AF0000000000002081900003C
:1035700000000002005EC0E0C0F0C083C082C085D1
:10358000C084C086758600C0D075D000C000C00160
:10359000C002C003C004C005C006C00753917F75B8
:1035A000970085BC0885BD09E509AE087802C333DC
:1035B000CE33CED8F92400FFEE3408F50C8F0D7809
:1035C00039E66042AA0CA9077B01900003120CB4F3
:1035D0007F14120F07850D82850C83E0FD0F120FFB
:1035E00028783DE6B40F0C18760175FF0375FF01CE
:1035F0000204A475FF0375FF00783B76007D0E7C06
:10360000007F070203E7E50D24FCF582E50C34FF9B
:10361000F583E0FCA3E0FDA3E0FEA3E0FFE50D24BD
:1036200004F582E4350CF583E0F8A3E0F9A3E0FAB1
:10363000A3E0FBC3120D15E50D403F24FCF582E528
:103640000C34FFF583E0F8A3E0F9A3E0FAA3E0FB74
:10365000E50D2404F582E4350CF583E0FCA3E0FDE0
:10366000A3E0FEA3E0C39BF512EE9AF511ED99F5E8
:1036700010EC98F50F750E00803D2404F582E435BA
:103680000CF583E0F8A3E0F9A3E0FAA3E0FBE50D75
:1036900024FCF582E50C34FFF583E0FCA3E0FDA3F8
:1036A000E0FEA3E0C39BF512EE9AF511ED99F5103B
:1036B000EC98F50F750E01AF12AE11AD10AC0F788E
:1036C00007120D398F128E118D108C0F759718857A
:1036D0000FF18510F28511F38512F4E50D24FCF548
:1036E00082E50C34FFF583E0FCA3E0FDA3E0FEA33C
:1036F000E0FFE50D2404F582E4350CF583E0F8A342
:10370000E0F9A3E0FAA3E02FFFEA3EFEE93DFDE881
:103710003CFC7801120D39C004C005C006C0078505
:103720000D82850C83E0FCA3E0FDA3E0FEA3E0FF97
:103730007802120D39D003D002D001D000C3EF9B24
:10374000F512EE9AF511ED99F510EC98F50F85103C
:10375000F58511F68512F775E10075E21F0085FB0E
:103760001385FC14E50E6019E509AE087807C3332C
:10377000CE33CED8F9C39514F514EE9513F5138016
:1037800016E509AE087807C333CE33CED8F9251431
:10379000F514E5133EF5138513E38514E485EA0A71
:1037A00085EB0B7597007838E67003020471782F6B
:1037B000E670030203ED08E6706A783EE6FE08E66E
:1037C000FFC3E5099FFFE5089EFE7837EF26F61850
:1037D000EE36F6850D82850C83A3A3E0FEA3E07888
:1037E0002D26F618EE36F67830760175970275A21A
:1037F0000475A36075A60075A74075A40875A5009B
:103800007856E6F5BE08E6F5BF08E6F5C208E6F527
:10381000C308E6F5C408E6F5C508E6F5C608E6F50A
:10382000C70204697832E6250BFF18E6350AFEC3A5
:10383000EF7834967932F7EE189619F7783C7601DE
:10384000782BE6C3940850030204A4782F760078FE
:1038500036E6FE08E6FF30E2147803CEC313CE133B
:10386000D8F924017837F6E43E18F680157836E664
:10387000FE08E67803CEC313CE13D8F97937F7EEF6
:1038800019F7782CE6FE08E67803CEC313CE13D8DA
:10389000F9792DF7EE19F77831E6FE08E67803CED0
:1038A000A2E713CE13D8F87932F7EE19F77865E668
:1038B000FF3395E0FEC37832E69FF618E69EF67871
:1038C00036E6FC08E6FD7F0C120F28782DE6FD7C1D
:1038D000000F120F2818E6FD0F120F287832E6FDB0
:1038E0000F120F2818E6FD0F120F287DAA7F08126D
:1038F0000F2875FF0375FF00783B76007D0E1F12C1
:103900000F280204A4AA0CA90D7B01900003120C3D
:10391000B47F28120F07850D82850C83E0FD0F12FE
:103920000F28C3E50B783496FFE50A1896FE7865F4
:10393000E6FD3395E0FCC3EF9DF50BEE9CF50AE543
:103940000BFD7C007F18120F28E50AFD0F120F28CF
:103950007839760175970275A20475A36075A60182
:1039600075A7BF75A40875A50075BE0075BF007565
:10397000C20075C31175C40175C50075C60075C751
:103980000075A10375A1028033783EA60808A60938
:103990007833A60A08A60B7838760175970475D295
:1039A0000275D30075D41075D50075D61475D7007F
:1039B00075D90475DA0075D10175D100D007D0062C
:1039C000D005D004D003D002D001D000D0D0D08612
:1039D000D084D085D082D083D0F0D0E03275FF0182
:1039E00075890175A8827B007A0079417F07120FE3
:1039F000357841E630E303020599759720E4F59A9E
:103A0000759C01F59CE59BB4FF0F759A01759C01AF
:103A1000E4F59C78457602800D759A31759C01E439
:103A2000F59C78457632759337859B947596027F21
:103A3000147E00120016759307759408759602E4BB
:103A40007850F608F608F60876020876010876310E
:103A50000876650876870876A90876DB0876FE087A
:103A600076FF0876DE08766A7861A69B7840F6785D
:103A700040E6FFC3940550217845E62FF59A759CE2
:103A80000100E4F59CFEFB74622FF9EE3400FAE5C8
:103A90009B120CE178400680D6E4F5977D1EFC7FF2
:103AA00005120F287D667F08120F287D0F1F120F49
:103AB00028783C7601E47835F6782FF6783BF6786E
:103AC0002E7601782BF67836F608F6782CF608F67E
:103AD0007831F608F67D04FC7F41120F287D0A7FBD
:103AE00051120F287D217FD6120F287FDC120F285C
:103AF000FD7FF5120F28FB7A00793D7F0A120F3502
:103B0000E4F58E75B80675880575E80E75A8867893
:103B10003DE624F7601924EA600E241F60030206C4
:103B2000FF783BE6F58780E77D0F7C000206F7E42F
:103B3000783DF67F0C120F307A0079447F0D120F1A
:103B4000357A0079427F0E120F357841E6703318CE
:103B5000F67840E6FFC378449640030206F1EF246E
:103B60000CFF7842E67C007B002450F9EC3400FA2C
:103B70007840E629F9EC3AFA120C9BFD120F280660
:103B800080CF7841E66401702C18F67840E6FFC3D8
:103B90007844965074EF240FFF7842E67C007B0057
:103BA0002450F9EC3400FA7840E629F9EC3AFA129C
:103BB0000F350680D67841E66403704D7F01120F01
:103BC000307D087C007F01120F28759720E418F6DD
:103BD0007840E6FFC378449650217842E6F59A751E
:103BE0009C0100E4F59C08A69BEF240FFFE6FD7CFA
:103BF00000120F28180678400680D5E4F597784122
:103C0000E6FD7C007F01120F28E4F5FF7D0FFC7FAD
:103C100007120F280205F77835E670047F0180024D
:103C20007F00783CE6FE70047D0180027D00ED5F40
:103C30006005783BE6F587783DE6FF640F6004EFAA
:103C4000B40D05EE6401600A783DE6640E6003027F
:103C500005F7E4783AF67838F67D01FC7FBD120F5F
:103C6000287F50120F287862E6FD7FC0120F287857
:103C700064E6FD7FD7120F2818E6FD7FE4120F28B7
:103C80007866E6FD7FF4120F28783DE6640D703209
:103C9000FD7F45120F280F120F287D030F120F28EA
:103CA0007D5A0F120F28FD0F120F287D100F120FD3
:103CB00028FD0F120F28782F7601782B067830F622
:103CC000803C7851E6FD7C007F45120F2808E6FD18
:103CD0000F120F2808E6FD0F120F287D6F0F120F2D
:103CE000287D010F120F287D100F120F28E4FD0F01
:103CF000120F287D7F0F120F28FD0F120F28783D1D
:103D0000E6B40E04E4F68004E4783CF67FB87E0B5B
:103D10001200167597017835E67006783B760180BB
:103D200004E4783BF67D077C007F50120F280205E3
:103D3000F7C0E0C0F0C083C082C085C084C0867573
:103D40008600C0D075D000C000C001C002C003C052
:103D500004C005C006C0075391BF759700783AE6C6
:103D6000FF6408703D75970275A20475A360F5A9FC
:103D7000F5AAF5AB75A60175A7BF75A408F5A578DA
:103D800056E6F5BE08E6F5BF08E6F5C208E6F5C357
:103D900008E6F5C408E6F5C508E6F5C608E6F5C781
:103DA0008049EF64076003020AAB783E08E678506A
:103DB000262426F52025E0F520782FE66036759735
:103DC0000275A20475A36075A40875A50075A60008
:103DD00075A78075BE0075BF0075C20075C31175EB
:103DE000C40175C50075C60075C70075A10375A12E
:103DF00002020ACF783A0675270475282075240038
:103E0000752300752200752100751F0085288285A5
:103E1000278375F002E51F120D4CE0FEA3E0FFE4DE
:103E2000FCFDE5242FF524E5233EF523ED3522F5B1
:103E300022EC3521F521051FE51FB420CFAF24AEBC
:103E400023AD22AC217802120D268F248E238D22E1
:103E50008C21EFFD7C007F26120F28E523FD0F1239
:103E60000F28E5202412FFE43404AD07FCFEEF2404
:103E7000FEFFEE34FFF5278F28751F008D828C839F
:103E800075F002E51F120D4CE0FEA3E0FF852882CD
:103E9000852783E0FAA3E0C39FEA9E5011E51F2522
:103EA000E0FFE433FEEF2DFFEE3CF5278F28051FE2
:103EB000E51FB404C7AF24AE23AD22AC21780312B2
:103EC0000D26852882852783E0FCA3E0C39FF52685
:103ED000EC9EF52575971875F10075F2008525F3B0
:103EE0008526F475F50075F600900D62E493F5F7FC
:103EF0007527007528000000AFFBAEFC859DF2859C
:103F00009EF375F4007853E6F5F618E6F5F775E1DB
:103F10000075E2020075970885FBE385FCE4EF700D
:103F200006EED395EB4004AFEB8003EE04FFAE0743
:103F300075E1008EE275E300751F00E51FB42313E1
:103F400085FBE185FCE275E402EED395EB401AAE09
:103F5000EB8016E51FB4551685FBE185FCE275E4A0
:103F600002EED395EB4002AEEB75E1008EE2E51F69
:103F7000900D5893F5E4852882852783E5EBF0AA18
:103F800027A9287B01900001E5EC120CF3740225AF
:103F900028F528E43527F527051FE51F64B9709B30
:103FA0007597048520D575D40475D20075D3B9757D
:103FB000D60075D7008520DA75D90475D10375D17F
:103FC00002802475970475D40475D500783AE625E7
:103FD000E025E02418F5D675D70075D90475DA0008
:103FE0000675D10175D100D007D006D005D004D018
:103FF00003D002D001D000D0D0D086D084D085D0DC
:1040000082D083D0F0D0E032C0E0C0F0C083C08264
:10401000C085C084C086758600C0D075D000C00041
:10402000C001C002C003C004C005C006C007539150
:10403000DF7D077C007FBD120F28E4FD7F50120F4B
:1040400028F597AF9FEFFD7F22120F28AF9EEFFD5F
:104050007F23120F28AF9DEFFD7F24120F28783D9C
:10406000E6640F6003020C3A859D17859E1878530D
:10407000E6F51918E6F51AC39518F516E51995171A
:10408000F51575970875E1EA75E2AA8515E38516B9
:10409000E4759700751B00751C0085E91D85EA1EF7
:1040A000782EE6701F7854E6FE08E6FFE4FDE51E74
:1040B0002FF51EE51D3EF51DED351CF51CEC351BE1
:1040C000F51B80327854E6FE08E6FFD3946EEE943A
:1040D00001401FEF2492FFEE34FEFEE4FCFDE51EDE
:1040E0002FF51EE51D3EF51DED351CF51CEC351BB1
:1040F000F51B782E7600851C1B851D1C851E1D85D5
:10410000EB1EE4FFFE7D01FCAB1EAA1DA91CA81B33
:10411000D3120D15402174FFFFFE120016E51E9408
:1041200000F51EE51D9400F51DE51C9401F51CE548
:104130001B9400F51B80CBE47F14FEFDFCAB1EAA94
:104140001DA91CA81BD3120D154007AE1DAF1E12D2
:1041500000167839760075970275A60075A73F7529
:10416000A23475A36075A40875A5007856E6F5BE5F
:1041700008E6F5BF08E6F5C208E6F5C308E6F5C4AB
:1041800008E6F5C508E6F5C608E6F5C775A10375A6
:10419000A102D007D006D005D004D003D002D001B0
:1041A000D000D0D0D086D084D085D082D083D0F03B
:1041B000D0E032BB010689828A83E0225002E722E6
:1041C000BBFE02E32289828A83E49322BB010CE5D1
:1041D0008229F582E5833AF583E0225006E92582BB
:1041E000F8E622BBFE06E92582F8E222E58229F5FF
:1041F00082E5833AF583E49322BB010689828A83B0
:10420000F0225002F722BBFE01F322F8BB010DE5BC
:104210008229F582E5833AF583E8F0225006E92504
:1042200082C8F622BBFE05E92582C8F222EB9FF583
:10423000F0EA9E42F0E99D42F0E89C45F022E860F9
:104240000FECC313FCED13FDEE13FEEF13FFD8F1DB
:1042500022E8600FEFC333FFEE33FEED33FDEC33A6
:10426000FCD8F122A42582F582E5F03583F583227E
:10427000050A0F265D95C2C4C8C8C8C8C8BCB282AA
:10428000664F49342F2B2B212121211D1B19181674
:10429000161616121212120F0F0F0F0E0D0C0B0B1B
:1042A0000B0B0B0909090908080808070706060689
:1042B00006060605050505040404040404030303B7
:1042C00003030303030303020202020202020202C7
:1042D00002020202020202010101010101010101C7
:1042E00001010101010101010101010101010101BE
:1042F00001010101010101010101010101010101AE
:10430000010101010101010101010101010101019D
:104310000101010101010100000000000000000096
:10432000000000000000000000C0E0C0F0C083C03A
:1043300082C085C084C086758600C0D075D000C09C
:1043400000C001C002C003C004C005C006C007C051
:1043500094C0937B007A00793D7F0A120F3575FF78
:1043600001782F7600783C760178357600783B76B8
:1043700000783DE624F3600C14603014602D2406B0
:10438000701D8027782B76007836760008760078C6
:104390002C760008760078317600087600800C7D57
:1043A0000F7C007F07120F28758701D093D094D01F
:1043B00007D006D005D004D003D002D001D000D061
:1043C000D0D086D084D085D082D083D0F0D0E032D7
:1043D000C0E0C0F0C083C082C085C084C08675863E
:1043E00000C0D075D000C000C001C002C003C0042E
:1043F000C005C006C007C094C093D093D094D00726
:10440000D006D005D004D003D002D001D000D0D047
:10441000D086D084D085D082D083D0F0D0E032FD59
:104420007C00120F28AA0CA90D900002120CB4FDFA
:104430000F120F28AA0CA90D900001120CB4FD0F49
:104440008D948F9375960222FB7A0079418F937534
:104450009601E4FF000FBF02FBE595020CE1783FF7
:10446000E4F6D8FD7581660204C500008C4400089E
:104470000000002078000000D42600080445000851
:104480007800002048050000E42600080100000034
:1044900010000000000000000024F40000000000F4
:1044A00040000000010000000000000003000000C8
:1044B0008000000001000000000000000300000078
:1044C00020000000000000000000000003000000C9
:1044D00008000000010000000000000003000000D0
:1044E00000000000000400000100000000000000C7
:1044F00003000000D80000000000000000000000E1
:0445000000000000B7
:04000005080000ED02
:00000001FF
