:020000040800F2
:1000000098050020050100087F1600083D1600082D
:100010007D160008F5060008E51B0008000000003A
:10002000000000000000000000000000831600082F
:100030003B07000800000000811600088516000834
:100040001F0100081F0100081F0100081F01000810
:100050001F0100081F0100081F0100081F01000800
:100060001F0100081F0100081F0100081F010008F0
:100070001F0100081F010008F90600080507000815
:100080001F0100081F0100081F0100081F010008D0
:100090001F0100081F0100081F0100081F010008C0
:1000A0001F0100081F0100081F0100081F010008B0
:1000B0001F0100081F010008000000001F010008C8
:1000C0001F01000800000000000000001F010008E0
:1000D00000000000651A00081F0100080000000071
:1000E0001F0100081F0100081F010008DFF810D0E1
:1000F00000F070FA00480047B1280008AFF3008014
:10010000980500200648804706480047FEE7FEE7BE
:10011000FEE7FEE7FEE7FEE7FEE7FEE7FEE7FEE7B7
:1001200001170008ED000008202A04DB203A21FA1C
:1001300002F00021704721FA02F3D040C2F1200200
:10014000914008431946704740EA01039B0703D0DA
:1001500009E008C9121F08C0042AFAD203E011F806
:10016000013B00F8013B521EF9D27047D2B201E0C8
:1001700000F8012B491EFBD270470022F6E710B5AC
:1001800013460A4604461946FFF7F0FF204610BD05
:10019000421C10F8011B0029FBD1801A704710B5D2
:1001A000002200E0521C835C8C5CA34201D1002B36
:1001B000F8D1D8B2E1B2401A10BD30B504460020E3
:1001C000034600E05B1C934203D2E05CCD5C401B25
:1001D000F8D030BD30B50B46014600202022012466
:1001E00009E021FA02F59D4205D303FA02F5491B05
:1001F00004FA02F52844151EA2F10102F1DC30BD1B
:100200002DE9F05F0546002092469B46884606464B
:10021000814640241BE02846414647462246FFF7D8
:1002200083FF53465A46C01A914110D311461846CF
:10023000224600F0E1F92D1A67EB01084F462246ED
:100240000120002100F0D8F917EB00094E41201ED3
:10025000A4F10104DFDC484631462A464346BDE8A6
:10026000F09F2DE9FE4F804681EA0300C00F0C4647
:10027000009021F0004123F00045B8EB0200A941B5
:1002800005D24046214690461C460B46024623F0C6
:100290000040104347D0270DC7F30A00C3F30A51AB
:1002A0000290401A019040286BDAC3F3130040F427
:1002B000801B0098924620B10023D2EB030A63EB27
:1002C0000B0B01985946C0F14002504600F094F9DA
:1002D00006460D4650465946019A00F09CF910EB2F
:1002E00008006141002487EA115284EAE7731A4347
:1002F00040D0009A62B3019A012A4FEA075215DCF6
:10030000001B61EB02014FF0004202EA0752CDE907
:100310000042001C41F5801132462B4600F09CF94A
:1003200003B0BDE8F08F40462146F9E7001B61EBC2
:100330000201001C41F5801300185B412018A2F552
:10034000001747EB030140EAD570B6196D4111E083
:100350006D084FEA360645EAC0754FEA0752001BA2
:1003600061EB0201001C41F5801149084FEA3000A1
:100370000019514132462B4603B0BDE8F04F00F062
:100380005CB90098012240000023D0EB020263EB2D
:10039000E073009821464FEAE074B8EB000061EB8F
:1003A0000401E9E783F000435BE781F0004158E78F
:1003B0002DE9FE4F81EA030404F0004421F00041DE
:1003C00000944FF0000B23F0004350EA01045ED08C
:1003D00052EA03045BD0C3F30A54C1F30A552C4418
:1003E000A4F2F3340194A0FB0254C1F3130141F4CD
:1003F0008011C3F3130343F4801301FB024400FB99
:10040000034E840A970A44EA815447EA8357A4FBBF
:10041000076802958D0A05FB07854FEA932C04FBBC
:100420000C542705029D4FEA065847EA1637B5EBEC
:1004300008056EEB070C870E920E47EA811742EA19
:100440008312A7FB0201B6EB0B0164EB00042B0D3A
:1004500043EA0C335E1844EB1C50DA465146E7FB86
:100460000201C5F313044FEA0B3343EA14534FEA76
:100470000432019C43EA0603A4F10C040294009C9C
:10048000CDE900B400F0E8F803B0BDE8F08F00203B
:100490000146F9E72DE9F04D81EA030404F0004B31
:1004A00021F0004514464FF0000A23F0004150EAC5
:1004B000050220D054EA01021DD0C5F30A570246B6
:1004C000C5F31303C1F31300C1F30A5640F48015BA
:1004D00043F48013A7EB0608101BD64608F2FD383C
:1004E00073EB050002D308F1010801E092185B41AB
:1004F000B8F1000F03DA00200146BDE8F08D0020BE
:100500004FF48011064684460EE0171B73EB050777
:1005100005D3121B63EB050306434CEA010C4908A3
:100520004FEA300092185B4150EA0107EDD152EAE0
:10053000030012D082EA040083EA0501084305D0D3
:10054000101BAB4106D20122002306E000224FF02F
:10055000004302E06FF0010253101AEB06004CEB6F
:10056000085110EB0A0041EB0B01BDE8F04D00F023
:1005700064B8C1F30A52C1F3130140F2FF3341F4EE
:1005800080119A4202DA00200146704740F233435C
:100590009A42A2F2334202DC5242FFF7C5BD00F09C
:1005A0002BB8000030B5041E71F1000404DB4FF0DD
:1005B0000044404264EB0101141E73F1000405DBAA
:1005C0001C464FF00043524263EB0403994208BFBC
:1005D000904230BD064C074D06E0E06840F0010354
:1005E00094E8070098471034AC42F6D3FFF782FD39
:1005F000B82B0008D82B0008202A04DB203A00FA88
:1006000002F1002070479140C2F1200320FA03F369
:10061000194390407047202A06DBCB17203A41FA55
:1006200002F043EAE07306E041FA02F3D040C2F17F
:100630002002914008431946704710B5141E73F10B
:10064000000408DA401C41F1000192185B411A4392
:1006500001D120F0010010BD2DE9F04D92469B46DE
:1006600011B1B1FA81F202E0B0FA80F22032904684
:10067000FFF7C2FF04460F4640EA0A0041EA0B01B9
:1006800053465A46084313D0114653EA010019D085
:10069000C8F140025046FFF747FD05460E4650465A
:1006A00059464246FFF7A8FF084305D0012004E061
:1006B00020463946BDE8F08D0020054346EAE07645
:1006C0002C4337430A986305E40AA0EB0800002294
:1006D000FD0A44EA47540A3002D500200146E9E702
:1006E000010510196941DDE9084500196941BDE8B6
:1006F000F04DA2E7FEE70000014800F08FB80000CF
:1007000050010020014800F089B800000C010020D1
:1007100030B590F840500124AC40C56B6C60046863
:1007200063604368102B036803D099600068C2605F
:1007300030BD9A600068C16030BD704710B590F858
:1007400021100022022905D00421816380F8202095
:10075000012010BD01680B6823F00E030B600168D7
:100760000B6823F001030B6090F84030C46B01214B
:1007700001FA03F3636080F8211080F8202010460E
:1007800010BD000010B590F821100024022903D0FC
:100790000421816301243DE001680A6822F00E0211
:1007A0000A6001680A6822F001020A601A4A0168B8
:1007B000914201D1012121E0174A1432914201D125
:1007C00010211BE0144A2832914201D1891515E00D
:1007D000114A3C32914201D189140FE00E4A503245
:1007E000914202D14FF4803108E00B4A64329142C9
:1007F00002D14FF4801101E04FF08071064A083AAF
:100800005160012180F82110002180F82010416BF7
:1008100001B18847204610BD080002402DE9F05F75
:10082000C16B0C6801680B68D0F840C0042202FA62
:100830000CF2494DDFF824A1494E4A4FDFF828B1A8
:10084000DFF828E122422CD05A072AD50A689206FE
:1008500003D40A6822F004020A600168A94201D1A7
:10086000042219E0514501D1402215E0B14202D1E4
:100870004FF4806210E0B94202D14FF480420BE0A5
:10088000594502D14FF4802206E0714502D14FF460
:10089000800201E04FF080622F4908394A60C16A46
:1008A0003BE04FF0020808FA0CF818EA040F4FF08A
:1008B00000094FF0010235D05FEA837832D50B682A
:1008C0009B0605D40B6823F00A030B6080F82120F7
:1008D0000168A94201D1022219E0514501D120222B
:1008E00015E0B14202D14FF4007210E0B94202D1DA
:1008F0004FF400520BE0594502D14FF4003206E0AC
:10090000714502D14FF4001201E04FF0007212491C
:1009100008394A6080F82090816A00291AD0BDE821
:10092000F05F0847082505FA0CF5254212D01B0791
:1009300010D50B6823F00E030B6090F84010C36BCA
:1009400002FA01F15960826380F8212080F820903A
:10095000016BE2E7BDE8F09F080002401C00024086
:100960003000024044000240580002406C00024047
:1009700030B528B308C8134914221944B1FBF2F169
:100980008900C16310498163022141771A6843F6E7
:10099000F0718A43D0E900142143D0E902452C4389
:1009A000214304692143446921438469214311435C
:1009B000196000214163012242770177084630BD6A
:1009C000012030BDF8FFFDBF0000024070B50446B5
:1009D00090F82000002501280CD0012084F8200088
:1009E00094F821600020012E06D084F82000022512
:1009F000284670BD022070BD022684F82160A063E5
:100A00002068066826F0010606602046FFF780FE93
:100A1000E06A00282068016802D041F00E0106E07B
:100A200021F0040101602068016841F00A010160C1
:100A30002068016841F001010160D9E770B5044602
:100A400000F0F8F80546601C02D004480078044421
:100A500000F0F0F8401BA042FAD370BD0000002067
:100A60002DE9F84FDFF89C91002409F1040A0AF1FE
:100A7000040B23460F270BF1040EBBE00125A54014
:100A80002A40AA4276D1DFF880C14E68A6EB0C0856
:100A900066452BD00DDC032E34D005DC36B3012E99
:100AA00019D0022E2FD11BE0112E16D0122E2AD1D2
:100AB00019E0B8F5881F19D006DCB8F5803F15D0CD
:100AC000B8F5801F1FD111E0B8F5001F0ED0B8F5A2
:100AD000041F18D10AE0CB6815E0CB681B1D12E09B
:100AE000CB6808330FE0CB680C330CE08B682BB17C
:100AF000012B4FF0080303D0456104E0042302E01A
:100B0000056100E00023FF2A01D8064601E000F15C
:100B100004064FEA840501D9A5F12005D6F8008026
:100B200007FA05FC28EA0C0803FA05F548EA050867
:100B3000C6F800804D68ED005BD5344DAE6946F0D7
:100B40000106AE61AD6924F0030605F001050095CC
:100B50002F4D06EB050CDCF80850A607360F07FAF8
:100B600006F825EA0805DFF8AC80404503D14FF0D0
:100B7000000810E03DE0DFF8A080404502D14FF0D2
:100B8000010808E0DFF89480404502D14FF00208E8
:100B900001E04FF0030808FA06F848EA0508CCF827
:100BA00008804D68D9F80060ED034D4601D5164325
:100BB00000E096432E604D68DAF80060AD035546BC
:100BC00001D5164300E096432E604D68DBF80060C7
:100BD000ED025D4601D5164300E096432E604D6858
:100BE000DEF80060AD02754601D5164300E096437D
:100BF0002E60641C0A6832FA04F57FF43FAFBDE84A
:100C0000F88F0000000401400000111000100240A5
:100C10000000014000080140000C014000100140AC
:100C20008068084000D0012070470AB10161704718
:100C30000904FBE7014880687047000000000020BD
:100C400002488168027811448160704700000020EA
:100C5000074810B5016841F010010160032000F061
:100C600075F8002000F006F800F024F8002010BD10
:100C70000020024070B50D4D04464FF47A7128787B
:100C8000B1FBF0F00A490968B1FBF0F000F0ECFAB2
:100C900048B9102C07D200222146501E00F036F829
:100CA00000206C6070BD012070BD000000000020BD
:100CB0000C0000200C4808B5816941F001018161F8
:100CC000816901F001010091C16941F08051C16168
:100CD000C06900F0805000900448416821F0E06154
:100CE00041F08071416008BD0010024000000140E9
:100CF000002809DB00F01F0201219140400980001B
:100D000000F1E020C0F8001170470000F0B40E4B75
:100D10001B680C46C3F30223C3F10705042D00D959
:100D20000425191D072901D2002300E0DB1E01263E
:100D300006FA05F1491E214099409E40761E164054
:100D40003143F0BC01F06AB80CED00E0064900F058
:100D5000070208684FF6FF03184040EA0220034AE2
:100D600010430860704700000CED00E00000FA0539
:100D70002DE9F0470F46050061D0434E306800F082
:100D80000700B84209D2306820F0070038433060CD
:100D9000306800F00700B84251D128683B4C810709
:100DA00012D5400703D5606840F4E06060602878A1
:100DB000000703D5606840F4605060606068A9680F
:100DC00020F0F000084360602878C00728D06868E9
:100DD000012810D02168022810D0890700292EDAB6
:100DE000616821F0030101436160FFF723FF804642
:100DF00041F288390DE021688903EFE78901EDE7C9
:100E0000FFF718FFA0EB0801494502D90320BDE810
:100E1000F0876068696800F00C00B0EB810FEFD1DB
:100E2000306800F00700B8420BD9306820F00700A6
:100E300038433060306800F00700B84201D001202C
:100E4000E5E72878400705D56068E96820F4E060A8
:100E5000084360602878000706D56068296920F497
:100E6000605040EAC100606000F038F86168084AEC
:100E7000C1F30311515CC840064908600648006888
:100E8000FFF7F8FE0020C2E70020024000100240F9
:100E9000A02B00080C000020040000200448054995
:100EA00000684968044AC1F30221515CC840704798
:100EB0000C00002000100240B02B00080448054937
:100EC00000684968044AC1F3C221515CC8407047B8
:100ED0000C00002000100240B02B000812A185B0C9
:100EE0000FC98DE80F0014A0144A006804905168DF
:100EF000134801F00C03042B10D0082B0ED1C1F3C2
:100F00008343C9031DF803000AD5516804AAC1F33D
:100F10004041515C0A4A5043B0FBF1F005B07047C4
:100F200008494843FAE700000203040506070809D8
:100F30000A0B0C0D0E0F10100102000000100240F1
:100F400000127A0000093D002DE9F84F040070D02E
:100F50002078C04DC00749D06868C0F381000128DF
:100F600007D06868C0F38100022809D16868C0030F
:100F700006D52868800339D560680028E7D035E0B9
:100F80006068B0F5803F0BD010B1B0F5A02F11D044
:100F9000286820F480302860286820F4802002E04F
:100FA000286840F480302860606890B1FFF742FE06
:100FB00006460AE0286840F480202860F0E700BF79
:100FC000FFF738FE801B642873D828688003F7D5A4
:100FD0000CE0FFF72FFE064605E000BFFFF72AFEF4
:100FE000801B6428F0D828688003F7D420789A4EB4
:100FF00080074FF001094FF0000839D5686810F0FC
:101000000C0F07D06868C0F38100022809D1686816
:10101000C00306D42868800714D52069012808D1A8
:1010200010E02069B0B1C6F80090FFF703FE074654
:1010300005E00AE1FFF7FEFDC01B0228C4D82868BE
:101040008007F7D52868616920F0F80040EAC10000
:1010500028600DE0C6F80080FFF7ECFD074604E0CD
:10106000FFF7E8FDC01B022823D828688007F7D4C3
:10107000207800072CD57948A169D9B1C0F8009033
:10108000FFF7D8FD074604E0FFF7D4FDC01B022898
:101090000FD8686A8007F7D571484FF4FA51006895
:1010A000B0FBF1F0009000BF0098411E0091FAD211
:1010B0000EE080E0C0F80080FFF7BCFD074604E0CA
:1010C000FFF7B8FDC01B022875D8686A8007F7D4FF
:1010D0002078400760D5E8690027C00008D4E86997
:1010E00040F08050E861E869012700F080500090EE
:1010F0005C480168C90513D40168834641F48071D6
:101100000160FFF797FD824606E000BFFFF792FD02
:10111000A0EB0A0064284ED8DBF80000C005F5D526
:10112000E06801280AD008B1052813D0286A20F009
:1011300001002862286A20F0040002E0286A40F0DA
:1011400001002862E06841F2883B98B1FFF772FD28
:1011500082460BE0286A40F004002862EEE700BFF8
:10116000FFF768FDA0EB0A0159455AD8286A8007A5
:10117000F6D50CE0FFF75EFD824605E0FFF75AFD6D
:10118000A0EB0A0159454CD8286A8007F6D41FB154
:10119000E86920F08050E861E06988B36968C1F3CC
:1011A0008101022944D00228C6F8608004D0FFF7EC
:1011B00041FD044638E034E0FFF73CFD074604E01B
:1011C000FFF738FDC01B02282BD828688001F7D410
:1011D000206AB0F5803F05D16868A16820F400302E
:1011E00008436860D4E908010843696821F4741170
:1011F00008436860C6F86090FFF71CFD044606E0EF
:1012000025E000BFFFF716FD001B022809D828685B
:101210008001F7D51BE000BFFFF70CFD001B022883
:1012200002D90320BDE8F88F28688001F4D40EE0CD
:101230000128F7D06868226A00F48031914204D115
:10124000616A00F47010884201D00120EAE70020B2
:10125000E8E70000001002400000424280044242E1
:101260000C0000200070004010B5401EB0F1807FDF
:1012700001D3012010BD4FF0E02460610F21601701
:1012800000F0CCFD0020A06107202061002010BDEF
:1012900010B504460068416994F83920C1F3C011C3
:1012A000212A0BD151B1416921F080014161206BAC
:1012B00008B1FFF743FA204600F0C0FA2068416900
:1012C00094F83A20C1F38011222A0BD151B141691F
:1012D00021F040014161606B08B1FFF72FFA204611
:1012E00000F09EFA002010BD7047000070B5026843
:1012F00004461068D168536910F00F0F50D003F006
:10130000010501F4907635435DD0C20705D0CA05CA
:1013100003D5E26B42F00102E263420705D5DA072A
:1013200003D0E26B42F00202E263820705D5DA07DE
:1013300003D0E26B42F00402E263020705D5DA074C
:1013400003D0E26B42F00802E263E26B002A33D082
:10135000800604D5880602D5204600F078FA206879
:101360004069E16BC0F38010090700D428B3204620
:1013700000F056FA2068416949061AD5416921F002
:1013800040014161606BA0B11B494163606BFFF795
:10139000F9F9002810D0606B416BBDE87040084738
:1013A000830610D58B060ED52046BDE8704000F0B0
:1013B0004EBA2046FFF798FF70BD2046FFF794FF16
:1013C0000020E06370BD030606D50B0604D5204659
:1013D000BDE8704000F0E2BA4006F3D54806F1D50A
:1013E000D168204621F04001D160202184F83910D5
:1013F00000F022F970BD00004917000870B5040024
:1014000004D094F83900002510B106E0012070BD29
:1014100084F83850204600F022F8242084F839005F
:101420002068C16821F40051C160204600F05AFADA
:101430002068016921F4904101612068416921F02F
:101440002A0141612068C16841F40051C160E5632F
:10145000202084F8390084F83A00002070BD7047DD
:10146000F8B5044690F83A0020283CD1C1B3BAB38D
:1014700094F83800012836D0012084F83800A162A1
:10148000A2850025E563222084F83A00636B1748A3
:101490009862636B1648D862636B16481863606B7A
:1014A000134645630846666B216802463046091DAF
:1014B000FFF78CFA206801684168009184F8385081
:1014C000C16841F48071C1602068416941F0010147
:1014D00041612068416941F0400141610020F8BD4F
:1014E000FFE70120FBE70220F9E70000A31700084F
:1014F000DF17000859170008704770472DE9F843B7
:10150000044690F839001F4616460D46202850D153
:10151000A5B19EB194F8380001284AD0012084F882
:1015200038004FF00008C4F83C80212084F83900CE
:10153000FFF780FBA6848146E68426E00120BDE813
:10154000F883E08C401EE084A0684B46B0F5805FD5
:101550004FF000024FF080012046009703D000F0CA
:101560004EFAE8B90DE000F04AFAC8B928882168B7
:10157000C0F308004860206908B16D1C05E0AD1C8F
:1015800003E0216815F8010B4860E08C0028D8D1F1
:101590004B46002240212046009700F030FA08B167
:1015A0000320CCE7202084F8390084F8388000201C
:1015B000C5E70220C3E7000070B5044690F8390083
:1015C000202830D169B362B394F8380001282AD0BA
:1015D000012084F838002162A284E2840025E563BA
:1015E000212084F83900236B10489862236B10483F
:1015F000D862236B0F481863206B13464563266837
:10160000206B321DFFF7E2F921686FF0400008609F
:1016100084F838502068416941F080014161002020
:1016200070BD012070BD022070BD0000E9170008E8
:10163000171800085917000870477047FEE70000A8
:10164000012291020148FFF7F0BA0000000C0140AE
:1016500000224FF480610148FFF7E7BA000C014017
:101660000548017819B100210170FFF7E9BF012198
:101670000170FFF7EDBF000034000020FEE7FEE739
:1016800070477047FFF7DCBA10B5FFF7E1FA00F0DA
:1016900008F84FF4E13000F013FABDE8104001F013
:1016A00041B930B58FB028216846FEF766FD142198
:1016B0000AA8FEF762FD01210804CDE9001000240C
:1016C000029402250491CDE907504FF4E0100990EF
:1016D0006846FFF739FC08B172B6FEE70F20CDE986
:1016E0000A054FF48060CDE90C4002210AA80E944F
:1016F000FFF73EFB002801D072B6FEE70FB030BD09
:101700000D48016841F00101016041680B4A114038
:10171000416001680A4A11400160016821F480219A
:101720000160416821F4FE0141604FF41F018160B6
:101730000449C00308607047001002400000FFF831
:10174000FFFFF6FE08ED00E010B5406A0021C185FC
:10175000C184FFF7C9FD10BD70B5446A20684069B7
:1017600094F83910C0F3C0100025212904D118B114
:10177000E584204600F062F82068406994F83A1049
:10178000C0F38010222904D118B1E585204600F06D
:1017900047F8E06B40F01000E0632046FFF7A4FD3F
:1017A00070BD10B50146406A09680968890613D4FE
:1017B0000021C1850168CA6822F48072CA6001688C
:1017C0004A6922F001024A6101684A6922F0400236
:1017D0004A61202180F83A10FFF78EFE10BD10B547
:1017E000406AFFF78AFE10BD10B50146406A0968DD
:1017F000096889060CD40021C18401684A6922F075
:1018000080024A610068C16841F04001C16010BDBA
:10181000FFF712FF10BD10B5406AFFF70EFF10BDB5
:101820000168CA6822F49072CA6001684A6922F0AD
:1018300001024A61202180F83A1070470168CA68A5
:1018400022F0C002CA60202180F83910704710B51C
:1018500090F83A10222901D0022010BD8168B1F51C
:10186000805F11D00169002901681FD0496801F02B
:101870007F03816A4A1C82620B70C18D491E090474
:10188000090CC18518D02BE00269816A002A026820
:10189000526805D0D2B20A80816A491C8162ECE7A5
:1018A000C2F308020A80816A891CF7E74A68816AE4
:1018B0004B1C83620A70E0E70168CA6822F02002CC
:1018C000CA600168CA6822F48072CA6001684A6905
:1018D00022F001024A61202180F83A10FFF70CFE45
:1018E000002010BD2DE9F041044600680169E2685E
:1018F00021F44051114301612169A06808436169E5
:1019000008432168CA6841F20C639A430243CA60E3
:1019100020684169A26921F44071114341611E4967
:10192000206864253226884202D1FFF7C7FA01E019
:10193000FFF7B4FA00EBC00101EB001160686FF033
:1019400018078000B1FBF0F2B2FBF5F2B1FBF0F347
:101950007A4303EB8202B1FBF0F306EB0212B2FB17
:10196000F5F2B3FBF5F302F0F00202EB0312B1FB68
:10197000F0F3B1FBF0F0B0FBF5F0784303EB80003F
:1019800006EB0010B0FBF5F0216800F00F001044EA
:101990008860BDE8F08100000038014090F83910FF
:1019A000212901D0022070478168B1F5805F016A6A
:1019B0000BD04A1C0262026809785160C18C491E32
:1019C0000904090CC1840ED017E009880268C1F32C
:1019D0000801516001690029016A02D0491C0162B5
:1019E000ECE7891CFBE70168CA6822F08002CA6044
:1019F0000068C16841F04001C160002070472DE9D6
:101A0000F041984617460E460446069D1DE0681CA8
:101A10001BD02DB1FFF70EF9A0EB0800A84214D996
:101A20002068C16821F4D071C1602068416921F04B
:101A300001014161202084F8390084F83A00002037
:101A400084F838000320BDE8F0812068006836EA99
:101A5000000004D00020B842D9D00020F3E70120D4
:101A6000F9E7000038B5124800680168C943C906A3
:101A700018D401680025406800900D48FFF708FC65
:101A80000C48006840680C4C0090C0F18000206059
:101A900080220A490648FFF7E3FC084821684554BC
:101AA00000F026FEBDE838400148FFF71FBC0000EB
:101AB000CC0000200C010020100000204C00002071
:101AC000F0B5434E074685B0B06940F48040B06140
:101AD000B06900F480400490B06940F00400B06147
:101AE000B069002400F004000490701500900220FA
:101AF000CDE901040320374D039069462846FEF7DF
:101B0000AFFF2815CDE90004694628460294FEF788
:101B1000A7FF324D30482860C5E901740C20EC6005
:101B2000C5E90440AC612846EC61FFF767FC286812
:101B3000C16841F01001C160706940F0010070613E
:101B40007069002200F00100049011460E20FFF79A
:101B5000DDF80E20FFF7CCF8002211460F20FFF72A
:101B6000D5F80F20FFF7C4F805F140061C48C6E978
:101B700000048027C6E9024720203461C6E90540F9
:101B80003046F461FEF7F4FE6E6315487562443624
:101B9000143801C6102091C605F1840046F810499A
:101BA0007461B461F461FEF7E3FE2E630022114616
:101BB00025207562FFF7AAF82520FFF799F8802203
:101BC000A5F180012846FFF74BFC05B0F0BD0000F1
:101BD000001002400008014000380140CC00002005
:101BE00058000240FEE710B5044600F01DFF5220E9
:101BF00000F06AFF00F09CFF204600F065FF00F057
:101C000097FF00F011FF532000F05EFF00F090FFFF
:101C1000204600F059FF002000F0B0FE044600F01E
:101C20002BFF204610BD00002DE9F0411D46144653
:101C30000F46064600F0F8FE7006000E00F044FF66
:101C400000F076FF20B100F017FF0120BDE8F08121
:101C5000384600F039FF00F06BFF00F0E5FE012090
:101C600000EB4600C0B200F02FFF00F061FF09E07A
:101C7000012C0DD05FF0010000F080FE641E05F81D
:101C8000010BE4B2002CF3D100F0F6FE0020DDE7FA
:101C90000020F1E770B50C46054600F0C5FE522065
:101CA00000F012FF00F044FF50B9284600F00CFF8E
:101CB00000F03EFF204600F007FF00F039FF18B1AA
:101CC00000F0DAFE012070BD00F0D6FE002070BDED
:101CD0001FB500200090019002900446012103905E
:101CE000FFF7D8FF0120FEF7A9FE1420FFF77BFFC6
:101CF000C00702D1641C642CF4D36B460C2214215F
:101D00002920FFF791FF9DF80000C008000702D5C9
:101D1000002004B010BD0120FBE700001FB500202B
:101D2000009001900290044601210390FFF7B2FF5A
:101D30000120FEF783FE1420FFF755FFC00702D1F4
:101D4000641C642CF4D36B460C2214212920FFF769
:101D50006BFF9DF806109DF8070000F0C9FD9DF887
:101D600008109DF8090000F0C3FD9DF80A109DF8C9
:101D70000B0000F0BDFD01469DF80000C0F3C3025A
:101D80000B2A02D101A000F013F81FBD564C3533C9
:101D90004C302044697374616E63653A2025646D2C
:101DA0006D2C205374617475733A2025640D0A00FC
:101DB0000FB4054B10B503A9044A029800F010F9BE
:101DC00010BC5DF814FB00009928000848000020B2
:101DD0000FB4084B10B504A902AA039800F000F94B
:101DE000044602A9002000F07EFC204610BC5DF8ED
:101DF00014FB0000E726000837B514460846064BDA
:101E00006A46214600F0ECF804466946002000F0DE
:101E10006AFC20463EBD0000E72600080907090EBF
:101E2000002804DB00F1E02080F80014704700F087
:101E30000F0000F1E02080F8141D704702E008C890
:101E4000121F08C1002AFAD170477047002001E034
:101E500001C1121F002AFBD1704700002DE9FF5F6E
:101E600082B00021DDE90430020DDDF840B003430B
:101E700018D044F61050A2F2FF32424315141198C4
:101E800001281FD0A5EB0B00401C5FEA000A4FF0B1
:101E900000064E4FDFF83891B046504615D5CAF1CE
:101EA000000413E0119801244AA3012801D16FEA2C
:101EB0000B010298119AC0E90031C0E9024206B054
:101EC000BDE8F09FCBF10000DFE704460021404A67
:101ED000491842EB0450CDE9001012E0E00707D0AA
:101EE00032463B4640464946FEF762FA80468946FE
:101EF00032463B4610461946FEF75AFA06460F464A
:101F00006410002CEAD1DDE90401DDE90023BAF117
:101F1000000F06DAFEF74CFA42464B46FEF748FA47
:101F200005E0FEF7B7FA42464B46FEF7B3FA044621
:101F30000E460022284BFEF735FB03D84FF0FF304A
:101F4000014607E00022254B20463146FEF789F97D
:101F5000FEF70FFB102409E0002C0ADB0A22002305
:101F6000FEF74EF9039B30321A55641E50EA010207
:101F7000F2D1641C039AC4F111031444119A012A8A
:101F800003D0012208430DD10AE0084304D0002009
:101F90004FF0110B119072E7A3EB0B056D1E0DE0D6
:101FA0005B4504DD4FF0000205F1010504E003DAB2
:101FB0004FF00002A5F10105002AECD0029811991A
:101FC000C0E90231C0E9004579E700000000144093
:101FD0000000F03F300000000000F0430000E03F50
:101FE0002DE9FF4F95B09A46884606460025EEE15A
:101FF000252877D100242746F94A0121039400E0DF
:10200000044316F8013F203B01FA03F01042F7D1D8
:1020100030782A2811D06FF02F033078A0F13002E9
:10202000092A16D8039A44F0020402EB820203EB59
:1020300042021044761C0390EFE758F8042B0392F9
:10204000002A03DA504244F40054039044F002049E
:10205000761C30782E2816D116F8010F44F00404AF
:102060002A280DD06FF02F023078A0F13003092B11
:1020700009D807EB870302EB4303C718761CF3E785
:1020800058F8047B761C30786C280FD006DC4C287E
:1020900017D068280DD06A2814D104E0742810D015
:1020A0007A280FD10DE044F400140AE044F48014BF
:1020B00001E044F440147278824202D104F58014A5
:1020C000761C761C307866280BD013DC582877D025
:1020D00009DC002875D04528F6D04628F4D04728DA
:1020E0001AD193E118E0632835D0642879D06528A7
:1020F00012D18BE1702873D008DC6728F1D06928F1
:102100006FD06E280DD06F2806D1ACE073282CD08C
:10211000752874D0782853D05246179990476D1C73
:1021200054E1C4F30250022809D003280DD0D8F896
:10213000001004280DD00D6008F1040846E1D8F81D
:102140000010EA17C1E90052F6E7D8F800100D8038
:10215000F2E70D70F0E718F8041B8DF8001000206E
:102160008DF80100EB46012003E058F804BB4FF066
:10217000FF3061074FF0000102D40DE009F10101C9
:102180008946B9420FDA8145F8DB1BF809100029AE
:10219000F4D108E009F1010189468142FADB1BF81C
:1021A00009100029F6D103985346A0EB09072146F0
:1021B0003846179A00F080FA284400EB090507E03A
:1021C00044E008E10DE01BF8010B524617999047D7
:1021D000B9F10109F7D2534621463846179AF2E081
:1021E00039E00A21C4F302524FF0000B0091022A99
:1021F00006D058F8040BC117032A09D00AE023E0DF
:1022000008F1070020F00702F2E80201904605E01D
:1022100000B2C117042A01D140B2C117002906DA61
:102220000A460021404261EB02012D2202E0220514
:1022300004D52B228DF80420012203E0E20701D00F
:102240002022F7E7914657E00A2100E010214FF0E5
:10225000000B00910BE010214FF0000B44F0040440
:102260000827009103E008204FF0000B0090C4F312
:102270000252022A05D058F8040B0021032A08D084
:1022800008E008F1070020F00702F2E8020190469A
:1022900003E080B2042A00D1C0B24FF00009220747
:1022A0002AD53278702A07D0DDF800C08CF0100CE7
:1022B0005CEA0B0C05D00EE040228DF804200122D0
:1022C00008E050EA010306D030238DF804308DF881
:1022D000052002229146009B83F0080353EA0B037A
:1022E0000AD150EA010201D1620705D530228DF8EA
:1022F00004204FF001097F1E3278582A04D039A2F9
:102300000C920CAA02920BE03BA2F9E75B46009A02
:10231000FDF776FF0C9B9B5C029A521E0292137093
:1023200050EA0102F2D1029804A9081A00F1200B28
:10233000600702D524F4803400E001275F4502DD08
:10234000A7EB0B0000E0002000EB0B0100900398CE
:102350004944401A0390E00306D453462146179A95
:10236000039800F0A9F90544002706E001A85246A9
:10237000C05D179990476D1C7F1C4F45F6DBE0034D
:102380000CD553462146179A039800F095F9054459
:1023900004E030205246179990476D1C0099481E62
:1023A00000900029F5DC08E0029802995246007876
:1023B000491C0291179990476D1CBBF10001ABF1CC
:1023C000010BF1DC5BE100F065F90544761C307827
:1023D00000287FF40DAE19B02846BDE8F08F00004C
:1023E00009280100303132333435363738396162EB
:1023F00063646566000000003031323334353637AF
:10240000383941424344454600000000600700D48B
:10241000062708F1070020F00700F0E802238046B5
:1024200003F0004C5FEA0C0001D097A009E0200502
:1024300001D596A005E0E00701D095A001E0AFF23C
:102440004C001390307823F0004365280CD006DC54
:10245000452809D046281DD047287FD13BE0662873
:1024600018D067287AD136E00021112F01DB112026
:1024700000E0781CCDE9000104A90CA8FFF7EEFCF0
:10248000DDE90D010C9A4FF0000B07F101091092E4
:1024900000914EE04FF000400097CDE9011004A9F3
:1024A0000CA8FFF7DBFCDDE90D020C9B0F994FF048
:1024B000000B91461093009211B9791C00EB0109B1
:1024C000B7EB090003D4C0F1FF3B07F10109A9EB09
:1024D0000700019042E0012F00DA01270021112FAF
:1024E00001DD112000E03846CDE9000104A90CA867
:1024F000FFF7B4FCDDE90D010C9A00914FF0000BE1
:10250000B946109221070FD4009A4A4503DA914642
:1025100001E0A9F10109B9F1010F05DD109AA9F156
:102520000101515C3029F4D0B84202DA10F1040FF5
:1025300003DA0121CDE9011010E0002803DC834417
:10254000A9EB000102E0411C494500DD8946A0EBF2
:102550000B00401C01904FF000400290200705D472
:102560000198484502DB4FF0FF30019000208DF8C4
:102570004B0002980DF14B07B0F1004F25D002201F
:102580000C902B200D90029800280CDA404202900B
:102590002D200D9007E00A210298FDF71BFE303137
:1025A000029007F8011D0C99481E0C900029F2DCDE
:1025B00002980028EFD1791E0D980870307800F04D
:1025C000200040F0450007F8020D11A8C01BC01DF7
:1025D00002901398007800B1012000EB09010198E6
:1025E00001EBE071029801440398401A401E0390E9
:1025F000E00306D453462146179A039800F05CF88E
:1026000005441398007818B15246179990476D1CED
:10261000E00323D553462146179A039800F04CF85F
:1026200005441BE0BBF1000F07DB0098584504DDB3
:102630001098179910F80B0001E0179930205246B6
:10264000904701980BF1010B401E05F10105019027
:1026500004D12E205246179990476D1CB9F1000104
:10266000A9F10109DEDC05E017F8010B52461799C4
:1026700090476D1C0299481E02900029F4DC5346D5
:102680002146179A03989EE62D0000002B000000BB
:10269000200000002DE9F041044600251E461746A3
:1026A000880404D405E039462020B0476D1C641E20
:1026B000F9D52846BDE8F0812DE9F0410446002512
:1026C0001E469046C80301D5302700E02027880425
:1026D00004D505E041463846B0476D1C641EF9D567
:1026E0002846BDE8F0810A68531C0B6010707047E3
:1026F0002DE9FF47814620A1FDF751FD204E10F046
:10270000FF0F4FF000054FF480382DD0681E03AF47
:10271000CDE902700124002322461AA14846CDE9E2
:10272000004500F053F838B18DE8B000434601226F
:1027300017A1484600F04AF8039C4FF6FF72210C9F
:102740000904A0B212D0414504D1904202D113A095
:1027500000F0D2F8601C0DD0B44203D113A000BF2A
:1027600000F0CAF8BDE8FF870396E5E79042F1D193
:1027700010A0EDE712A0F3E741540D0A000000009D
:102780000000FFFF41542B53454E534F523D000074
:1027900041542B56455253494F4E3D00564C35330C
:1027A0004C302056312E300D0A0000004F4B210DC9
:1027B0000A000000564C35334C300D0A0000000072
:1027C0004552524F52210D0A000000002DE9F04FF2
:1027D00089B08046DDE913761D4692468946084653
:1027E000DDF848B0FDF7D4FCC4B222464146684645
:1027F000FDF7AAFC224649466846FDF7DEFC10F0CC
:10280000FF0F20D1A044BAF1000F08D013A16846F1
:10281000FFF7DEFA69464046FDF7C1FC08B15C46A9
:102820000FE04FF6FF700543356015E022460CA11E
:102830006846FFF7CDFA69464046FDF7B0FC48B15F
:10284000641CBC42F2D94FF0FF303060012009B067
:10285000BDE8F08F281930600020F8E73F0D0A002E
:1028600025640D0A0000000011E000BF00BF00BF9A
:1028700000BF00BF00BF00BF00BF00BF00BF00BF60
:1028800000BF00BF00BF00BF00BF00BF00BF401EB1
:1028900080B2EAD27047000013B54FF47A73012278
:1028A00069460248FEF72AFE00981CBDCC000020B5
:1028B000FEF7EAFE5FF00004FFF70AFA48B10024D1
:1028C00006A0FFF775FA6420FEF7B8F8FEF7C8FE19
:1028D000F2E704B90124FFF721FAF4E76E6F2066EE
:1028E000696E6420564C35334C30210D0A000000CF
:1028F000C9B261F31F2070470FB400B5C1B043AA3D
:1029000068464299FFF778FA6846FDF741FC82B2C3
:1029100069460348FEF750FE41B05DF814FB000025
:10292000CC00002038B51248816941F0080181616E
:102930008069104C00F0080000900022C021204661
:10294000FEF773F90C492046FEF78AF80A4920463B
:102950001031FEF785F8012240212046FEF765F987
:102960002046BDE8384001228021FEF75EB9000014
:1029700000100240000C0140140000202DE9F0413D
:10298000274F80460020274D786039462846FEF7BD
:1029900067F800242646002240212846FEF745F924
:1029A0000A20FFF761FF012240212846FEF73DF98A
:1029B0006006040E80212846FEF732F908B1641C37
:1029C000E4B20A20FFF750FF761CF6B2082EE2D3DD
:1029D0004646002240212846FEF727F9012078606C
:1029E0000F492846FEF73CF80EB1002200E0012214
:1029F00080212846FEF719F90A20FFF735FF01224A
:102A000040212846FEF711F90A20FFF72DFF00228A
:102A100040212846FEF709F92046BDE8F081000074
:102A200024000020000C014010B511490120114C78
:102A300048602046FEF714F8012280212046FEF768
:102A4000F4F8012240212046FEF7EFF80A20FFF7B4
:102A50000BFF002280212046FEF7E7F80A20FFF74F
:102A600003FF20460022BDE810404021FEF7DDB8FC
:102A700024000020000C014010B511490120114C28
:102A800048602046FDF7ECFF002240212046FEF77B
:102A9000CCF8002280212046FEF7C7F80A20FFF775
:102AA000E3FE012240212046FEF7BFF801228021EB
:102AB0002046FEF7BAF8BDE810400A20FFF7D4BE62
:102AC00024000020000C014070B517490646012083
:102AD000164D48602846FDF7C3FF002240212846D6
:102AE000FEF7A3F85FF0070426FA04F0C00701D050
:102AF000012200E0002280212846FEF796F80122FC
:102B000040212846FEF791F80A20FFF7ADFE00228B
:102B100040212846FEF789F80A20FFF7A5FE641E2B
:102B200064B2002CE0DA70BD24000020000C0140EB
:102B300070B519490020194D48602846FDF790FFEF
:102B4000012280212846FEF770F80A20FFF78CFE4C
:102B5000012240212846FEF768F80A20FFF784FE8C
:102B600000244FF47A760AE0641CA4B2B44203D382
:102B7000FFF782FF012070BD0A20FFF775FE80215C
:102B80002846FEF74DF80028EED1002240212846C5
:102B9000FEF74BF8002070BD24000020000C01401F
:102BA00000000000000000000102030406070809FD
:102BB0000000000001020304D82B000800000020E0
:102BC0004C0000003C1E0008242C00084C00002093
:102BD0004C0500004C1E0008010000001000000021
:102BE000000000000024F40000000000400000008D
:102BF0000100000000000000030000008000000051
:102C000001000000000000000300000000000000C0
:102C100000040000010000000000000003000000AC
:042C200000000000B0
:04000005080000ED02
:00000001FF
