:020000040800F2
:10000000F80F002071020008790200087B02000846
:100010007D0200087F020008810200080000000045
:100020000000000000000000000000008302000843
:10003000850200080000000087020008890200080D
:100040008B0200088B0200088B0200088B0200085C
:100050008B0200088B0200082D210008B521000842
:100060008B0200088B0200088B0200088B0200083C
:100070008B0200088B0200088B0200088B0200082C
:100080008B0200088B0200088B0200088B0200081C
:100090008B0200088B0200088B0200084522000832
:1000A0008B0200088B0200088B0200088B020008FC
:1000B000115B00088B0200088B0200088B0200080D
:1000C0008B0200088B0200088B0200088B020008DC
:1000D0008B0200088B0200088B0200088B020008CC
:1000E0008B0200088B0200088B0200088B020008BC
:1000F0008B0200088B0200088B0200088B020008AC
:100100008B0200088B0200088B0200088B0200089B
:100110008B0200088B0200088B0200088B0200088B
:100120008B0200088B0200088B0200088B0200087B
:100130008B0200088B0200088B0200088B0200086B
:100140008B0200088B0200088B0200088B0200085B
:100150008B0200088B0200088B0200088B0200084B
:100160008B0200088B0200088B0200088B0200083B
:100170008B0200088B0200088B0200088B0200082B
:100180008B0200088B02000800F002F800F060F813
:100190000AA090E8000C82448344AAF10107DA45E2
:1001A00001D100F055F8AFF2090EBAE80F0013F0D4
:1001B000010F18BFFB1A43F00103184768660000DF
:1001C000886600000A444FF0000C10F8013B13F061
:1001D000070408BF10F8014B1D1108BF10F8015BA0
:1001E000641E05D010F8016B641E01F8016BF9D193
:1001F00013F0080F1EBF10F8014BAD1C0C1B09D1EA
:100200006D1E58BF01F801CBFAD505E014F8016B5B
:1002100001F8016B6D1EF9D59142D6D370470000ED
:100220000023002400250026103A28BF78C1FBD8FF
:10023000520728BF30C148BF0B6070471FB505F09B
:1002400031FE9DE8030000F02FF91FBD10B510BD71
:1002500000F0E0F91146FFF7F1FF05F00DFE00F0A8
:10026000FEF903B4FFF7F2FF03BC00F02FFA000021
:100270000948804709480047FEE7FEE7FEE7FEE73A
:10028000FEE7FEE7FEE7FEE7FEE7FEE70448054976
:10029000054A064B70470000A95A0008890100086A
:1002A000F8090020F80F0020F80B0020F80B0020C0
:1002B00070B5064600F0DCF8056806F10B0020F08A
:1002C0000704B4429CBF002070BD2B466A68BAB1D7
:1002D0001068A04210D304F1080188423CBF506866
:1002E000586007D35168101941601168091B0160FB
:1002F00058601460101D70BD13465268002AE7D183
:100300002146284600F0BCF80028DED170BD70B54B
:100310000446051F00F0ACF80068002C14BF4468C8
:1003200070BD002C18BFAC423CBF20466468F8D3B7
:1003300001680A18AA4218BF456003D12A68054619
:100340001144016028684119A1421CBF6C6070BD56
:100350006168696021680844286070BD10B5431C5D
:1003600002E010F8011B71B18107FAD14FF00132A0
:1003700002C88C1A8C4314EAC211F9D0C01A0A06BA
:1003800003D0C01E10BDC01A10BD0A0401D0801ECB
:1003900010BD0902FCD0401E10BD032A40F230807F
:1003A00010F0030C00F0158011F8013BBCF1020FB6
:1003B000624498BF11F801CB00F8013B38BF11F837
:1003C000013BA2F1040298BF00F801CB38BF00F84E
:1003D000013B11F0030300F09D80083AC0F0088053
:1003E00051F8043B083A51F804CBA0E80810F5E7AF
:1003F000121D5CBF51F8043B40F8043BAFF3008092
:10040000D20724BF11F8013B11F801CB48BF11F806
:10041000012B24BF00F8013B00F801CB48BF00F8D6
:10042000012B70474FF000020429C0F0128010F039
:10043000030C00F0A380CCF1040CBCF1020F18BF38
:1004400000F8012BA8BF20F8022BA1EB0C0100F053
:1004500095B85FEAC17C24BF00F8012B00F8012B9E
:1004600048BF00F8012B7047704770477047000085
:1004700000487047A00900207047704770477047D8
:1004800038B504460A4600206946AFF300800028CC
:1004900008BF38BD02460099204600F099F80120B7
:1004A00038BD012000F0AEB8F8B5AFF300800546C6
:1004B00000200C46102000BF0646A819A0420DD906
:1004C000324669460020AFF30080070008BF00F005
:1004D00099F80098A04218BF0546C419FFF7C8FF55
:1004E00005600746F01D20F007004619284600F079
:1004F0000AF8B44208BFF8BDA21B31463868BDE80F
:10050000F84000F065B800210160C0E901107047B3
:100510001020704710B5203AC0F00B80B1E8185099
:10052000203AA0E81850B1E81850A0E81850BFF4DD
:10053000F5AF5FEA027C24BFB1E81850A0E818507C
:1005400044BF18C918C0BDE810405FEA827C24BFD0
:1005500051F8043B40F8043B08BF7047D20728BF5E
:1005600031F8023B48BF11F8012B28BF20F8023BAD
:1005700048BF00F8012B70474FF0000200B513464A
:1005800094469646203922BFA0E80C50A0E80C50B3
:10059000B1F12001BFF4F7AF090728BFA0E80C5064
:1005A00048BF0CC05DF804EB890028BF40F8042B5D
:1005B00008BF704748BF20F8022B11F0804F18BFCA
:1005C00000F8012B70470000004870479809002090
:1005D000034640688C46002818BF88423CBF03464B
:1005E0004068F8D318681844884207D00CF103001B
:1005F00020F00700001D411A521A0146081D0A602A
:10060000FFF785BE10B500F039F8BDE8104000F0E6
:100610002FB870477546FFF7D7FFAE46050069460D
:10062000534620F00700854618B020B5FFF72EFE90
:10063000BDE820404FF000064FF000074FF00008E3
:100640004FF0000B21F00701AC46ACE8C009ACE864
:10065000C009ACE8C009ACE8C0098D46704710B5C8
:100660000446AFF300802046BDE81040FFF7F9BD17
:10067000002801D000F02AB87047000010B501280A
:1006800005D0002103A000F027F8012010BD09A12A
:10069000F8E7000053494752544D454D3A204F75F5
:1006A00074206F662068656170206D656D6F72796A
:1006B000000000003A2048656170206D656D6F7222
:1006C0007920636F72727570746564000149182037
:1006D000ABBEFEE72600020070B505460C460A20B8
:1006E00000E06D1C00F011F835B128780028F8D131
:1006F00002E0641C00F009F814B120780028F8D159
:10070000BDE870400A20AFF3008008B569468DF857
:1007100000000320ABBE08BD21B1826842F0010297
:10072000826003E0826822F001028260704700006C
:100730000021084A1168084A1140D0E900231A43F1
:1007400083681A43C3681A431143044AC2F8041366
:100750007047000004230140E030FCFF002001400E
:1007600000B59BB00121880503F032FC0121084649
:1007700003F02EFC0121080203F05AFC0020029035
:1007800034480390344804900020059001200690DE
:100790000020079008904FF40060099080000A90B4
:1007A00040110B9040020C9000200D9001200E9003
:1007B00000200F90109002A9284801F0D3FA0121DF
:1007C000264801F0C3FA8020009003208DF8040031
:1007D00000208DF807006946214801F0F3FD002054
:1007E00011904FF48030129000201390149011A8B3
:1007F000FFF79EFF002015908DF8580001208DF81E
:100800005900002017901890199001208DF8680069
:1008100015A910484C3800F03BF8002301220721AD
:100820000C484C3800F05EF801210A484C3800F0C2
:1008300024F8012107484C3800F014F8012105483C
:100840004C38FFF769FF03484C3800F0A7F81BB09D
:1008500000BD00004C2001400C0600201064024046
:100860000000024021B1826842F48072826003E09D
:10087000826822F480728260704721B1826842F4FB
:100880000072826003E0826822F400728260704726
:1008900030B50246002000235068104C20400D79EE
:1008A0000C6844EA05242043506090680C4C2040BA
:1008B000D1E903542C438D682C434D7944EA450417
:1008C00020439060D06A20F470000C7D641EE4B276
:1008D000234340EA0350D06230BD0000FFFEFFFC1E
:1008E000FDF7FFC0F0B504460D4600200021092D9C
:1008F00011DDE068A5F10A0606EB4607072606FAB1
:1009000007F18843A5F10A0606EB460603FA06F14D
:100910000843E0600CE0206905EB4507072606FA6E
:1009200007F1884305EB450603FA06F10843206109
:10093000072A0FDA606B561E06EB86071F2606FA9B
:1009400007F18843561E06EB860605FA06F10843B2
:10095000606322E00D2A0FDA206BD61F06EB8607B4
:100960001F2606FA07F18843D61F06EB860605FA0E
:1009700006F10843206310E0E06AA2F10D0606EBE1
:1009800086071F2606FA07F18843A2F10D0606EB3B
:10099000860605FA06F10843E062F0BD816841F081
:1009A00080418160704700002DE9F04105460F4607
:1009B0000024A046601EFD4908800120FC49087003
:1009C00005F0100040B14FF00108FA48007820F01F
:1009D0001000F849087010E0F648007800F01000A8
:1009E00028B105F00F00012801D0BDE8F081F148E1
:1009F000007800F00F00EF49087005F00F05ED4892
:100A000006783007060E7019C6B2442E24D008DCD2
:100A1000122E0FD0222E10D0242E13D0422E22D1EF
:100A20000AE0482E16D0822E05D0842E13D0882EB0
:100A300019D112E000BF00BF00BF022000F012FF7A
:100A4000044610E0DC49DD4800F0AAFB044604B18E
:100A500009E000BF00BF00BF00BFD948007800F028
:100A600001FF044600BF00BF002C7DD10020D54906
:100A700008803046342E78D01EDC222876D00EDC5A
:100A8000142874D006DC112872D0122833D0132811
:100A90006FD12AE018286DD02128F9D1C3E0282889
:100AA00069D004DC232867D02428F1D143E0312821
:100AB0001DD03228ECD1E8E0482864D00CDC422874
:100AC0007AD004DC382878D04128E1D19FE043284F
:100AD00074D04428DCD1B2E08138082849D2DFE85C
:100AE00000F08A76D36ED8D8D8AF1324D3E013247D
:100AF00000F0C4FCCFE005F081F9B348007800B9FC
:100B00005124BCB902F018F904464CB90020A84998
:100B1000087000F014FC044614B90120AB490870B9
:100B200044B1FF2C06D0A248007808B900F00DFCB3
:100B300002F062F9AFE004F06BFB044674B90020E8
:100B40009B490870A24800F0F7FB044634B9A0485E
:100B5000008804F0A9FA01209E49087094B1FF2C86
:100B600010D09348007808E096E08FE066E086E0D9
:100B700061E08EE084E084E084E008B900F0E3FB0B
:100B800004F06AFE87E004F04BFE04464CB90020F6
:100B90008749087000F0D5FB044614B901208E493E
:100BA000087044B1FF2C06D08148007808B900F0E5
:100BB000CFFB04F0B9FE6EE015E068E063E000F002
:100BC000C7FB04F0B1FE00207949087063E000F033
:100BD000BFFB044604F0A8FE00207549087004B16C
:100BE00059E0422600BF00F0AEFB04F035FE0020C5
:100BF0006F4908704FE000F0ABFB044604F094FE30
:100C000000206B49087004B145E0412600BF00F0A8
:100C10009AFB044604F020FE00206549087004B1E8
:100C200039E0212600BF02F0E7F800F08EFB044611
:100C300000F024FC2FE000F021FC00BF00BF00BF4B
:100C4000B8F1000F02D0304600F0E6F963480078B2
:100C500098B95848007800F00C0070B156480088E8
:100C6000002803DD022001F045FB06E05348008820
:100C7000002802DD032001F03DFBFE240BE000BF55
:100C800000BF00BF00BF00BF00BF00BF00BF1124F6
:100C900001E0122400BF1EE04648007802280DD073
:100CA000042806D0082816D100F052FB04F03CFEC0
:100CB00000BF00F048FB04F0CFFD00BF162C07D1A9
:100CC00002F09AF800F041FB01203A49087002E076
:100CD000022038490870FF2C26D1012040490870B5
:100CE000384806800088122806D0132805D024280A
:100CF00008D048280CD106E000BF4FF4FA602B4919
:100D0000088009E000BF42F228302849088003E04B
:100D1000C8202649088000BF00BF24480088323818
:100D200000B22249088065E02248007800F00F00F8
:100D3000A84257D004B9DFB11E480078284300F01C
:100D40000800A8B12448007818B100F001FB04F0B5
:100D5000EBFD19480088002803DD022001F02EF881
:100D600006E016480088002802DD032001F026F87E
:100D70006CB110480078082802D104200D49087091
:100D80000C48007840F010000A49087005E017B1DF
:100D90003C4645F0100507480570002010490870D2
:100DA00021460448007804F099F923E00A00002065
:100DB0002A00002036000020300000202E000020F5
:100DC000320000202C0000204C00002052000020A7
:100DD0003E00002005000020040000202600002026
:100DE0002B000020002004490870002103480078EF
:100DF00004F074F900BFF8E52B0000203600002055
:100E000070B57548007800287AD0002400250026A7
:100E100072480088002855D171480088C0F3071532
:100E20006F480088122806D0132805D0242812D035
:100E3000482846D11EE000BF6A48007808B900F093
:100E400084FA01F0D9FF6848007810B16748068835
:100E500000E0012635E06348007808B900F073FA35
:100E600004F0FAFC6048007810B16048068800E0A1
:100E7000012626E05E48007878B15E48007808B91F
:100E80002D2615E05C48007828B95C4800880028C9
:100E900001DD1B260CE01A260AE0584800880028CD
:100EA00001DD1B2604E008250026012054490870B6
:100EB00036B14C48007808B900F04AFA04F034FD25
:100EC00000BF7BE046480088122806D0132805D0D2
:100ED00024281DD0482870D131E000BF4148007857
:100EE000A8B100203F49087000F029FA044644B92F
:100EF0000120444908703A48007800F00F0506E0E8
:100F000068E0FF2C03D000F020FA01F075FF54E0F8
:100F10003448007890B10020324908703A4800F017
:100F20000BFA044624B9012038490870042505E06D
:100F3000FF2C03D000F007FA04F08EFC3DE02948B6
:100F4000007818B32A48007808B33148B0F9000097
:100F5000002831DD2E48B0F900002E49B1F900100B
:100F6000884229DC00202A4908802A49088000F0AC
:100F7000E8F9044624B901202149087008251BE03E
:100F8000FF2C19D000F0E4F904F0CEFC14E01B486B
:100F9000008810B11848007870B100F0D2F904460A
:100FA00024B9012016490870082505E0FF2C03D05C
:100FB00000F0CEF904F0B8FC00BF00BF4DB1002036
:100FC000054908700EB145F010053146284604F079
:100FD00085F800BF70BD00002B0000200A00002033
:100FE0002C0000202A0000202600002028000020DD
:100FF000080000200C000020060000203000002027
:1010000004000020520000203E00002005000020C7
:1010100014000020160000207047000010B557484B
:10102000807800F001005649086054488078C0F389
:1010300040005449C1F8B40250488078C0F38000A1
:10104000C1F8B0024D488078C0F3C000C1F8AC02CE
:101050004A488078C0F30010C1F88402474880787D
:10106000C0F380104849C1F8940244488078C0F326
:1010700040104449C1F8800240488078C0F3C01055
:101080004149C1F890023D48807800F0010028B144
:101090004FF480413D4801F002FA04E04FF48041F2
:1010A0003A4801F0FAF93A4800683A49498860F349
:1010B0000001384841803648001F0068354949889A
:1010C00060F34101334841803148083800683149B4
:1010D000498860F382012F4841802D480C38006810
:1010E0002C49498860F3C3012A48418028481038B8
:1010F00000682849498860F3041126484180244843
:10110000143800682349498860F34511214841801B
:101110001F48183800681F49498860F386111D4828
:10112000418017487C3800681A49498860F3C71124
:10113000184841809FED180A184880ED010A408840
:10114000012181EAD0301549498860F3CF31134835
:10115000418010488078C0F3C00040B10F484088FB
:1011600020F4804000F580400C49488005E00B48A1
:10117000408820F480400949488010BDDC050020EB
:10118000B8824042008040420000414200040240D8
:1011900030024142CE0500201F853341D405002096
:1011A0002DE9F34F81B081460020009000250024F6
:1011B0008246834600260027804600BF24E033494C
:1011C00031F8150002F0E4F80446B4B1A069B0F8B3
:1011D00000A000260EE0711CC8B2214602F01FF8E4
:1011E000A16901EBE00B9BF8000040441FFA80F876
:1011F000701C86B25645EEDB04E04FF00008252057
:10120000009006E0681C85B22048801E0088A84235
:10121000D5DC00BF08F107004FEAE008009850BB9A
:10122000002522E01A4931F8150002F0B1F8044611
:10123000ACB1A069B0F800A000260DE0711CC8B2E6
:10124000214601F0ECFFA16901EBE00B9BF80000E7
:10125000384487B2701C86B25645EFDB03E00027A6
:101260002420009006E0681C85B20948801E008892
:10127000A842D7DC00BFF81DC710A9F8007002987B
:10128000A0F800800098BDE8FE8F0000C605002091
:10129000CA05002002460021104600BF1FE0134B84
:1012A00033F81130B3F5D05F04D0A3F5D053023B2F
:1012B00093B904E00E4B5B8820F8023B0CE00D4B29
:1012C0005B8820F8023B0B4B9B8820F8023B094BC4
:1012D000DB8820F8023B00BF00BF4B1C99B2034BD8
:1012E0009B1E1B888B42DADC70470000CA05002079
:1012F000CE050020D405002010B5014600200A4686
:1013000000BF0EE00A4B33F810306FF4B0542344A2
:1013100023B932F8023B074C638000BF00BF431C77
:1013200098B2034B9B1E1B888342EBDC10BD000070
:10133000C6050020DC050020014600207047002083
:101340007047002070470020704700207047000061
:101350002F48408820F001002D49488008464088E9
:1013600020F0020048800846408820F004004880B1
:101370000846408820F0080048800846408820F051
:10138000100048800846408820F040004880084609
:10139000408820F0200048800846408820F08000E7
:1013A00048800846807800F001001A490860184813
:1013B0008078C0F340001849C1F8B402144880781E
:1013C000C0F38000C1F8B00211488078C0F3C000BB
:1013D000C1F8AC020E488078C0F30010C1F8840256
:1013E0000B488078C0F380100C49C1F8940208487B
:1013F0008078C0F340100849C1F880020448807822
:10140000C0F3C0100549C1F89002002070470000E9
:10141000DC050020B882404200804042000041428A
:1014200070B5054600262C4607E0204600F02CF853
:1014300006460EB1304670BD283420894FF6FF7144
:101440008842F2D13046F6E77CB504460D4645EABF
:10145000C40080B201904FF48071074801F01DF87C
:101460009DF8050004F0ECFC00909DF8040004F0E9
:10147000E7FC00907CBD0000000402400020014910
:1014800008707047740000200146002940D02148B0
:10149000006848B91F48016000201E4A1268506069
:1014A0001C4A1268106070471A48006800890A894F
:1014B00090420BDD0020086016480068486015481F
:1014C00000680160134801600020ECE711480268E1
:1014D0001BE010890B89984201D10120E3E71089B4
:1014E0000B89984209DD106808604A60106808B1ED
:1014F0001068416011600020D5E7506820B9516044
:101500000A6000204860CEE75268002AE1D100BF9F
:101510000120C8E77403002030B50748046800259F
:1015200004E025896468284600F00CF9002CF8D105
:1015300000200149086030BD7403002010B5044646
:101540000E48006840B100210C48006801F044FBDF
:1015500000200A4908600FE04FF48070FEF7A8FEF3
:1015600004460CB9072010BD0E2205492046FEF79F
:1015700014FF204602F0F0FF0020F4E700000020F6
:101580000009002001480068704700007403002033
:1015900000200249086002490880704700000020CE
:1015A000AC00002038B5002425480068002845D04C
:1015B000244800780090244803682448026824489E
:1015C0000178244800881E4D2D68A8470446FF2C4A
:1015D00034D021480078012811D0022804D00328F3
:1015E00014D004281AD110E01C48006830B11B4800
:1015F0000068FEF78CFE00201849086000BF00223A
:101600001146204603F01AF908E000BF0E480268B0
:101610000E480168204603F011F900BF00BF00200A
:101620000D4908700B49088009490870074908608E
:1016300005490860034908700149086038BD000089
:10164000A400002095000020A00000209C000020A5
:10165000960000209800002094000020A8000020A0
:1016600010B500240020074908600748FFF7D8FE9E
:1016700004460CB1204610BD0448FFF7D1FE0446D5
:101680002046F8E774030020780300200C010020B6
:1016900010B520201F4908800020488048608860DD
:1016A00044F21F0088811C4808610020486188833B
:1016B000086281F8400020201849088000204880F6
:1016C00014484068486000208860124880898881FA
:1016D00011480861002048618883086281F8400051
:1016E0000F490870FFF7BCFF04460CB1FFF714FF69
:1016F00000200C4908700C4908700C4908800C49FE
:1017000008700C4908600C4908600C4908600C49D5
:10171000086010BD7808002020A10700BC08002048
:101720007400002094000020950000209800002004
:10173000960000209C000020A0000020A4000020B3
:10174000A800002030B503460E49086815E001895D
:10175000994211D10268416802B1516001B10A6039
:101760000024046044600489064D2D682D89AC4234
:1017700001D1044C216030BD40680028E7D100BF92
:10178000F9E700007403002070B504460025E088E6
:10179000000B092817D2DFE800F01610050F111210
:1017A00013140A00204602F0B3FC05460DE0204663
:1017B00002F0D2FE054608E000BF00BF00BF00BF38
:1017C00000BF042501E0052500BF00BF284670BD0D
:1017D00008B51D480088F8B10020009002224FF49F
:1017E0008861684600F09CFEBDF800000090BDF8DE
:1017F000000000F0010070B91448008800280ADDDC
:101800001348007820B11B210420FFF7CDF808BD54
:1018100000201049087000BF0F48007890B10C48B4
:10182000007878B10D48007820B92C210420FFF70A
:10183000BBF8ECE70A48007820B91A210420FFF72A
:10184000B3F8E4E700BFE2E73800002030000020F2
:101850000400002006000020080000200C000020EA
:10186000120000202DE9F0478046002700250026C1
:10187000AC48008842F6FF7188420BDBA94800881B
:10188000884207DBA7480088884203DBA548008818
:10189000884202DA1420BDE8F087002000F032FE12
:1018A00004466588268805F00100002801DD172020
:1018B000F1E706F00100002801DD1720EBE7A07931
:1018C00000F0010008B916271FE0207900F00C0095
:1018D000042801D0162718E0207900F00200022821
:1018E00001D0162711E0222D01DA16270DE0B5F5FB
:1018F000807F01DD162708E0B6F5805F01DA162744
:1019000003E0B6F5405F00DB16271FBB012000F0A7
:10191000F9FD04466588268805F00100002801DDF0
:101920001720B8E706F00100002801DD1720B2E714
:10193000A07900F0010008B916271EE0207900F018
:101940000C0008B1162718E0207900F002000228E8
:1019500001D0162711E0222D01DA16270DE0B5F58A
:10196000807F01DD162708E0B6F5805F01DA1627D3
:1019700003E0B6F5405F00DB1627002F57D1B8F122
:10198000030F54DD012068490870032000F0BAFD00
:1019900004466588268805F00100002801DD17202F
:1019A00079E706F00100002801DD172073E7A07930
:1019B00000F0010010B10DB9042736E0A07900F065
:1019C000010068B359480088854204D1574800880F
:1019D00008B1442D01DD032727E0207900F00C0039
:1019E000E0B953480078022805D1B6F5805F02DBE4
:1019F000B6F5405F07DB4E48007802280CD04D4812
:101A00000088864208D1207900F0020002280CD11B
:101A100000204549087008E0022706E0042704E09A
:101A200015B94248008800B1032707B11E27EFBB54
:101A3000B8F1020F61DD022000F064FD0446658804
:101A4000268805F00100002801DD172023E706F0B5
:101A50000100002801DD17201DE7A07900F001003A
:101A600010B10DB9042746E0A07900F00100A8B339
:101A700031480088854237D12F48008878B3442DFB
:101A800032DC207900F00C0004282BD128480078A3
:101A9000022805D1B6F5805F02DBB6F5405F09DBB1
:101AA0002348007802281BD0244800E025E0008865
:101AB000864215D1207900F0400018B1012020495C
:101AC000087002E000201E490870207900F0020032
:101AD000022810D10020144908700CE006E003E051
:101AE000022708E0042706E0032704E015B912489E
:101AF000008800B1032707B11D2787B9C1460AE056
:101B0000484600F0FFFC0446E0880E49088009F1D1
:101B1000010000F0FF090C4800788145F0DB3846F1
:101B2000B9E6000034000020250000202E0000202F
:101B3000360000203C000020300000203A00002049
:101B40000700002042000020320000200246022947
:101B500040D003DC39B101296ED106E0032952D00F
:101B6000222969D125E00020704741F632408242A7
:101B70000BD133480088002807DD3248007B00F095
:101B80000200002801DD0020EEE741F633408242EA
:101B90000ED12D48007B00F00200002808DD284807
:101BA000008828B929480088002801DD0020DBE7EB
:101BB00042E041F6334082420BD12348007B00F0E3
:101BC0000200002805DD1E480088002801DD0020F5
:101BD000CAE731E041F63240824207D11948007B22
:101BE00000F00400002801DD0020BDE741F633408D
:101BF000824207D11448007B00F00400002801DD78
:101C00000020B1E718E041F63240824207D10D488A
:101C1000007B00F00800002801DD0020A4E741F669
:101C20003340824207D10848007B00F008000028BA
:101C300001DD002098E700BF00BF122094E70000FC
:101C40003000002078080020BC0800202E00002072
:101C500033480078002862D032480088002809DD27
:101C6000314800882F490988884203DB00202F492A
:101C700008700DE02C4800882A490988884204DA57
:101C800029480088401C28490880012027490870FD
:101C90002648007890B12648008800280EDD2548A7
:101CA000008823490988884205DA22480088401CB8
:101CB0002049088002E000201C4908701B48007879
:101CC00038B31D48008D1D49098988420EDA01206C
:101CD0001B4908701B48B0F9000000281FDD1A4896
:101CE0000088401C00B21849088018E014480078A9
:101CF000A8B100201249087001200F4981F8400066
:101D00001048B0F90000002809DD00200E490880C5
:101D100005E00B48007810B10020094908707047B1
:101D2000080000201A000020180000200C000020ED
:101D30001E0000201C0000207808002078000020F1
:101D400012000020140000201600002021B10268BB
:101D500042F00102026003E0026822F00102026028
:101D60007047000010B500220268134B1A40CC687F
:101D70000B6823434C6923438C692343CC69234379
:101D80000C6A23434C6A23438C6A23434C6B2343E2
:101D90008C6B23431A430260426922F00702D1E9A7
:101DA0000B3423431A4342610B6943604B688360E1
:101DB0008B68C36010BD00003F801CF038B504463E
:101DC0004FF480700090E00000F6060502222946DC
:101DD000684600F0F3FB00BF02222946684600F087
:101DE0009FFBBDF8000000F480700028F4D038BDDF
:101DF00010B5FFF713F910BD10B50C48406820B9B5
:101E00000B480088401C0A4908800A48007850B1F5
:101E10000948B0F90000002805DD07480088401E89
:101E200000B205490880FFF713FF10BD78080020B5
:101E3000400500202B0000200A00002038B50020BB
:101E4000009002220421684600F06AFBBDF8000001
:101E50000090BDF80000000A2949087002220621FE
:101E6000684600F05DFBBDF800000090BDF8000082
:101E700040F6FF7101EB80202249088003F0BEFF8D
:101E8000002404E02046FFF799FF601CC4B21C4800
:101E900000788442F6DB00F0B1FD00201A4908709A
:101EA0001A4908701A4908701A4908701A490870C6
:101EB0001A4908701A4908801A4908801A49088086
:101EC0001A4908801A4908801A4908701A49087086
:101ED0001A4908801A4908801A4908801A49088056
:101EE00001201A49087000211848007803F0F6F81C
:101EF00000201749088017490870FFF749FB38BDD3
:101F000032000020340000202A0000202B00002096
:101F1000060000200400002005000020070000202B
:101F200038000020180000201A0000201C000020AB
:101F30001E000020080000202600002028000020AD
:101F40003E000020300000202E000020360000203F
:101F50002C000020240000201CB50020019001204E
:101F6000009000F0C1FE4D48007840B1022240F6DA
:101F70000E01684600F0D4FABDF80000009000F0B1
:101F800065FB044600BF04F0010098B144480078A6
:101F900080B902224FF4907101A800F0C1FABDF897
:101FA0000400019024F01104BDF80410C8B200210F
:101FB000FEF7FAFC04F01000B0B13948007898B987
:101FC0003848007800F0100070B93648007820F0EA
:101FD0001000012808D024F010043249097801F0DB
:101FE0000F000021FEF7E0FC2D48007808B1FEF755
:101FF00007FF2A48007800284FD0BDF8000000F005
:10200000010030B92749097801F00F000021FEF7DF
:10201000CBFC04F4007060B1002023490880022248
:1020200022480188204800F0C9FA24F4007400F026
:102030004BFDBDF8000000F0020010B11C48007814
:1020400038B1BDF8000000F00200D8B91848007897
:10205000C0B100F08DFD1648007828B1BDF8000031
:1020600040F40070009004E0BDF8000020F400701F
:102070000090BDF800000090022240F60E01684674
:1020800000F09CFA00F0E2FA044600BF04F480700D
:1020900018B124F4807400F0B3FB1CBD5200002082
:1020A0002B00002036000020400000205A000020B5
:1020B0005300002000B585B00121084601F088FFDB
:1020C0000121880301F0B4FF00208DF808008DF88D
:1020D0000B000120019001A9134800F073F90021C1
:1020E000084602F031FD0120039000208DF8100019
:1020F0000C208DF8110001208DF8120003A800F0CB
:10210000AFF84FF4C06000F0E9FF06208DF8000042
:1021100001208DF801008DF802008DF8030068465B
:1021200000F0A0FF05B000BD0000024010B503F0B4
:1021300005FC012000F08EF810BD000000B585B050
:102140000121084601F044FF0121880301F070FFDE
:1021500000208DF808008DF80B000220019001A9E5
:10216000134800F02FF90121002002F0EDFC0220BD
:10217000039000208DF810000C208DF81100012034
:102180008DF8120003A800F06BF84FF4C06000F067
:10219000A5FF07208DF8000001208DF801008DF8C3
:1021A00002008DF80300684600F05CFF05B000BD3A
:1021B0000000024010B503F059FC022000F04AF87C
:1021C00010BD000000B585B00121084601F000FFF8
:1021D0000121880301F02CFF00208DF808008DF804
:1021E0000B004FF48070019001A9154800F0EAF847
:1021F0000821002002F0A8FC4FF48070039000201A
:102200008DF810000C208DF8110001208DF81200BF
:1022100003A800F025F84FF4C06000F05FFF17201E
:102220008DF8000000208DF801008DF802000120DB
:102230008DF80300684600F015FF05B000BD0000F2
:102240000000024010B501F0F9FD4FF4807000F07D
:1022500001F810BD0149086070470000143C0140BE
:10226000002123498279002A3AD00A46126803687D
:102270009A430B461A600A1D126803689A430B1DA5
:102280001A60027911440A6803681A430A60184AFE
:102290000832126803689A43154B08331A601A1DF6
:1022A000126803689A43124B0C331A604279102A61
:1022B0000ED11A1F126803681A430D4B08331A60B7
:1022C0001A1D126803681A43094B0C331A600DE09B
:1022D0000749427911440A6803681A430A6005E015
:1022E000027911440A6803689A430A607047000043
:1022F000003C014038B5044600200090E00000F6A4
:10230000060502222946684600F058F900BF02225D
:102310002946684600F004F9BDF8000000F480701A
:102320000028F4D138BD00001CB50121062001F0C1
:102330004FFE47F60300009001208DF804000020B6
:102340008DF8060002208DF8050000208DF80700AA
:1023500069461A4800F036F83020009001208DF8C8
:10236000040000208DF8060002208DF805000020F2
:102370008DF807006946124800F024F84FF4004039
:10238000009000208DF8040002208DF805008DF8E3
:1023900007006946094800F015F84FF4FE50009018
:1023A00000208DF8040002208DF805008DF807004C
:1023B0006946034800F006F81CBD00000004024016
:1023C00000080240F0B50A4600210023002400BFA7
:1023D0003DE0012505FA01F3156805EA03049C4276
:1023E00034D105684F000326BE40B543056015791A
:1023F0004E00B5400668354305601579012D02D0C1
:102400001579022D16D185684F000326BE40B543CD
:10241000856055794E00B5408668354385604568CE
:1024200001268E40B5434560456896798E40B6B228
:1024300035434560C5684F000326BE40B543C560BF
:10244000D5794E00B540C6683543C560491C102992
:10245000BFD3F0BDF0B5002300244D07ED0E02FA06
:1024600005F3CE1000F1200555F826504E07F70E63
:102470000F26BE40B543CF1000F1200646F8275086
:10248000CE1000F1200555F8265045EA0304CE1081
:1024900000F1200545F82640F0BD418370470183D7
:1024A0007047000010B572B64FF480710748FFF70F
:1024B000F4FF02224FF40871054800F057F84FF47A
:1024C00080710248FFF7EBFF62B610BD00040240C6
:1024D0000E06002010B501460A884B889A420ED09D
:1024E0000A8801F1080353F82200531C9AB20A80AB
:1024F0000B888C88A34201D100230B8000E00020D0
:1025000010BD000010B504464FF4006000EBC4019C
:102510000822024800F004F8004810BD44000020E2
:102520002DE9F04105460C461646B0462F4611E00F
:1025300072B602212046FEF787FFFF2003F080FCE1
:1025400007F8010B62B64FF480710748FFF7A7FF49
:10255000601C84B2B8F10000A8F101011FFA81F8F3
:10256000E6DCBDE8F0810000000402402DE9F04700
:1025700004460D461646B0464FF000092746022194
:10258000284600F007F909E0B8F1000F01D14FF03B
:10259000FF09484603F054FC07F8010BB8F10000AE
:1025A000A8F101011FFA81F8EEDC4FF480710248B6
:1025B000FFF775FFBDE8F087000402402DE9F843FE
:1025C00005460C461646B0462F4611E072B6042169
:1025D0002046FEF739FF17F8010B03F031FC00909D
:1025E00062B64FF480710748FFF759FF601C84B250
:1025F000B8F10000A8F101011FFA81F8E6DCBDE89E
:10260000F8830000000402402DE9F84304460D461B
:102610001646B04627460421284600F0BBF804E0E1
:10262000387803F00DFC00907F1CB8F10000A8F191
:1026300001011FFA81F8F3DC4FF480710248FFF7C3
:102640002EFFBDE8F88300000004024010B5FFF73C
:1026500029FF0148008810BD0E06002010B500F0CB
:10266000B3F80148008810BD0E06002008B5FFF73A
:102670005BFE02F059F9FEF773F800BF932000905B
:1026800002224FF401716846FFF798FF0020009086
:1026900002224FF401716846FFF742FFBDF80000C7
:1026A0009328EBD10020009004224FF4017168467A
:1026B000FFF784FFFFF786FD172000F0C8FCFFF747
:1026C000F9FCFFF73BFD062000F0C1FC072000F0FD
:1026D000BEFC0A2003F044FA1C2000F0B8FC62B6ED
:1026E000002008BD7047000030B52248007800285F
:1026F0003FD12148007800283BD000211F48808B23
:10270000012800D1012181B100201C4A5060908332
:102710001B4A506090831B4A108001201A4A107097
:102720008007406A194A106022E0174800780128A3
:102730001ED183075A6A00BF144B1B68D31A144C6E
:1027400063434FF4FA6493FBF4F40E4B1B8843F697
:1027500009556B4304EB8310084B5860084B5860D5
:102760000023084C2380094C2360074C237000BFD2
:1027700000BF30BD080000202400002078080020A1
:10278000BC0800204005002048050020440500202A
:1027900040420F007CB504460D4645EAC40080B2B5
:1027A00000904FF480710748FFF777FE9DF8010015
:1027B00003F046FB01909DF8000003F041FB0190FF
:1027C0007CBD00000004024010B54FF480710A483F
:1027D000FFF765FE4FF480710748FFF75EFE0222A7
:1027E0004FF408710548FFF7C1FE4FF480710248AD
:1027F000FFF755FE10BD0000000402400E06002049
:102800001CB502223D48018801A8FFF789FEBDF8EA
:10281000040001903A48007801281AD10A20FDF7F7
:1028200047FD0446A4B100202060606020810420A0
:102830002080A08820F47060A0800120E080072123
:1028400021810021204600F0C7F92046FDF75FFDF9
:1028500000BFBDF80400801D80B2019029480078B7
:1028600010B92948007818B101202849087042E0C1
:10287000002026490870BDF80400254909888842CF
:1028800002DD23480088019021480088FDF710FDF3
:10289000204908600846006818B901201B490870E3
:1028A0001CBDBDF80420154801881A480068FFF7D0
:1028B00037FE00200090022240F604016846FFF730
:1028C0002FFEBDF800000090BDF8000000F400608D
:1028D00068B1002010490880084800880C4A128816
:1028E0001044801E81B202220B48FFF719FE0948EE
:1028F000006800F0BBF900BFD2E7000058000020DC
:1029000070000020510000205E00002050000020D8
:10291000560000206000002040000020F8B504466A
:102920002D48007800F00F00012801D1F020F8BDFB
:102930002A48007808B9F020F9E72948007808B15A
:102940000720F4E72588A81D82B226480188204682
:10295000FFF734FE00200090022240F60C0168468A
:10296000FFF7DEFDBDF800000090BDF8000000F4A8
:102970000060F8B91C480178A81D081AC6B20020EA
:102980001A490880022E09DAA81D40084700C6F13E
:102990000202E1191548FDF700FD00BF114800884B
:1029A000114A12881044801E81B202220F48FFF79C
:1029B00005FE00BF0E48006818B100200D490860F0
:1029C00002E00D480B4908600948046001200449F1
:1029D00008700020ABE70000360000205200002005
:1029E000510000205A000020540000204000002028
:1029F00064000020600000201007002008B522209D
:102A0000204908804FF480701F49088000011F4949
:102A100008801F49088000201E49088048800A203D
:102A2000888000201C49088048800A208880002077
:102A30001A4908601A4908601A4908601A4908606A
:102A40001A4908700090022240F60E016846FFF70E
:102A500067FDBDF8000020F400700090022240F6EF
:102A60000E016846FFF7AAFD0020114908701149C0
:102A7000087011490870114908701149087011490E
:102A8000087008BD560000205400002058000020A7
:102A90005A00002044080020100800206000002098
:102AA00068000020640000206C000020530000201B
:102AB0005200002051000020500000205E00002045
:102AC0005C0000205D00002010B500202149087046
:102AD0002148006848B12148006830B91E480068A4
:102AE000FDF715FC00201C4908601D4800681A49C4
:102AF00008601A48006838B118480068FFF70EFFF0
:102B000000201649086008E01648FFF7E3FC044679
:102B100014B12046FFF702FF00BF13480078C0B190
:102B20001148007800F0020098B100240E480078A7
:102B300020F002000C4908700C480068FEF7FEFC0B
:102B400004462CB10848007840F00200064908709D
:102B500000BF10BD51000020680000206C00002064
:102B600064000020100800205E00002060000020AB
:102B700010B514480068D8B11248046812480078AB
:102B800078B11248006860B90120FFF717F91048C2
:102B900000680E4908600120FFF7ACFB00200A49DD
:102BA00008702046FFF7BAFE00200649086000BF03
:102BB0000848007808B9012000E0002005490870A5
:102BC00010BD000068000020510000206C000020B3
:102BD000640000205300002070B504460D46002616
:102BE0001E48007800F00F00012801D1F02070BDD0
:102BF000A08820F47040A0801948007800F00700F9
:102C000010B9012016490870A0881549097840EAD2
:102C10000130A0802046FFF781FE70B111492046A7
:102C200001F0C0F9064616B145F080050AE00C48EF
:102C30000078401C0A49087004E009480078401CEC
:102C40000749087005F0800030B105F07F000649A3
:102C500009780843044908703046C8E73600002068
:102C60005D000020100800205E0000202DE9F041EA
:102C700004460026A08805132788B7F5807F0EDD5F
:102C800004202080A08820F47060A0800120E080D3
:102C90000821218100212046FFF79EFF1EE01DB183
:102CA0000F480078854215D00D4805700D49204623
:102CB00001F078F906468EB104202080A08820F427
:102CC0007060A0800120E080268100212046FFF76F
:102CD00083FF03E02046FDF71AFB0024BDE8F081E6
:102CE0005C0000204408002070B5002400BF0025CF
:102CF0000F48FFF7EFFB04461CB1204600F004F933
:102D0000054665B104202080A08820F47060A08072
:102D10000120E080258100212046FFF75DFF002C87
:102D2000E5D10448007808B1FFF76AFD70BD0000E6
:102D3000440800205000002070B500250020FFF757
:102D4000E1FB0446608826490880208825490880E0
:102D50000120FFF7D7FB04466088234908802088BC
:102D6000224908801F4800881D49098808441F49D6
:102D7000098888420ADD1D4800881B4909880844E3
:102D800018490988884201DD162070BD0020FFF730
:102D9000B1FA0120FFF7AEFA11480088FDF788FA72
:102DA000134908600846006880B90120114908707D
:102DB0000A20FDF77DFA0E4908600846006800B950
:102DC00002250B480068FDF7A2FA06E00020094939
:102DD000087007480068FDF79AFA2846D5E7000012
:102DE0005600002058000020540000205A00002007
:102DF000600000207000002038B5002036490870BF
:102E0000FEF7DCFF0120FEF7D9FF3448006818B157
:102E100032480068FDF77BFA3148006848B1304815
:102E200000682E490968884203D02D480068FDF7E4
:102E30006EFA2C48006878B12A480068274909686A
:102E4000884209D02748006825490968884203D08C
:102E500024480068FDF75BFA0020204908602149FA
:102E600008601F490860204908700090022240F65F
:102E70000E016846FFF754FBBDF8000020F4007017
:102E80000090022240F60E016846FFF797FB0020F3
:102E900016490870164908701649087016490870D6
:102EA0001649087000BF1648FFF714FB04461CB112
:102EB0002046FDF72CFA0024002CF4D100BF114865
:102EC000FFF708FB04461CB12046FDF720FA00245A
:102ED000002CF4D138BD0000520000206800002012
:102EE0006C000020640000205300002051000020EE
:102EF000500000205E0000205C0000205D000020EB
:102F0000440800201008002070B50546A888C0F3CA
:102F10000320032804D12846FEF736FC044601E0CE
:102F2000022400BF00BF204670BD000010B5002481
:102F3000FEF784FFFEF7ACFB002005490880054939
:102F4000086005490870012004490870204610BD3A
:102F500040050020440500204805002049050020C8
:102F600010B52748007800B910BD2648007818B180
:102F70002548007800283AD124480078002836D126
:102F800020480078C8B9FFF761FB044600BF04F48D
:102F9000806040B101201C4908701D48007858B17C
:102FA00000F0EEFF08E01B48008828B904F4006038
:102FB00010B101201449087000BF17200121814081
:102FC000154A430942F8231000BFFEF711FF1348CA
:102FD000007808B100F0C2FF1720012181404209AA
:102FE000920002F1E022C2F8001100BF00BFFEF71C
:102FF000B3FFFEF7D7FAFEF7EBFB00BFB4E7000024
:1030000049050020240000200600002008000020C0
:10301000040000203000002080E100E005000020D6
:1030200000F01F0201219140024A430942F8231097
:103030007047000080E100E000F01F020121914094
:103040004209920002F1E022C2F80011704700F03C
:103050001F02012191404209920002F1E022C2F8D0
:103060000011704770B5002100230F22C4781CB3F3
:10307000174C246804F4E064C4F5E064C4F3072149
:10308000C1F10404E3B20A4144789C40E1B284787F
:10309000144021430C07210E0E4C0578615504782D
:1030A00004F01F050124AC4005786D11AD0005F159
:1030B000E025C5F8004109E0047804F01F0501246B
:1030C000AC40054D0678761145F8264070BD0000ED
:1030D0000CED00E000E400E080E100E00249014383
:1030E000024A1160704700000000FA050CED00E094
:1030F00010B530238370642391FBF3F304782344E9
:103100000370642391FBF3F403FB1413DAB20A2374
:1031100092FBF3F34478234443700A2392FBF3F4C5
:1031200003FB142384782344837010BD2DE9FF5FD3
:103130000F4690461C460026D8F81490B8F80C00AC
:10314000C0F3032B17B1BBF1070F0BD14846FDF7B6
:1031500005F986B2002C49D0324649462046FDF793
:103160001CF943E0BBF1090F2ED14FF0010A039780
:103170004846FDF7F3F8401C00EB090519E00398F9
:1031800082450DD12846FDF7E9F886B234B12EB15B
:10319000324629462046FDF700F900E0002611E0FE
:1031A0000AF101001FFA80FA2846FDF7D7F8401C03
:1031B00005440398824505DC2878FF2802D028784A
:1031C000FE28DCD100BF00BF86B90C2674B1094BC4
:1031D0000FCB8DE80F0039460DF10900FFF788FF8E
:1031E0000D2269462046FDF7D8F800BF304604B0EE
:1031F000BDE8F09F8400002030B502469489C4F3F6
:103200000323082B05D109B9106907E01469A01D33
:1032100004E001EB4105146904EB450030BDF0B555
:1032200004460D460021A889C0F30326002C02DDC8
:1032300001F1100081B2072E01D10020F0BD012361
:103240006CE0082E02D12869821D04E003EB4307DD
:10325000286900EB470210881F281FD00ADCA0F164
:103260000300092851D2DFE800F01632501731333D
:1032700050501A00B0F5187F12D006DC202829D053
:103280002E280AD02F2840D123E0A0F2622010B3CC
:1032900001283AD120E000BF00BF00BF00BF00BF3F
:1032A00001F10F004FF6F07700EA0701A3420CDAB4
:1032B00010880B2803D01088B0F5187F02D15088F1
:1032C000084481B201F1100081B224E000BF00BFC8
:1032D00000BF00BF00BF00BF01F11F004FF6E07745
:1032E00000EA0701A3420FDA108840F26227B842D1
:1032F00003D010887F1CB84203D15088084481B2A3
:1033000002E001F1200081B205E0A34202DA508818
:10331000084481B200BF00BF581C83B2A34290DDB5
:1033200008468BE72DE9F04705462020A8401FFA04
:1033300080F9FEF727F904464FF000081FE02089C6
:10334000B0F5805F1ADB2E4696B194F80CA00027EA
:103350000AE0F9B22046FFF74FFF808800EA090033
:1033600000B10026781C87B20EB15745F1DD00BFD1
:103370001EB908F101001FFA80F800BF6468002C34
:10338000DDD14046BDE8F087014601F10A007047F3
:1033900070B50546FEF7F6F8044605E02089A84218
:1033A00001D1204670BD6468002CF7D10020F9E7F8
:1033B0002DE9F04184460C461E469089C0F3032354
:1033C000177B00212EB3072B02D10020BDE8F0812E
:1033D000082B0BD1906907781069008900FB07F171
:1033E000C81DC10804B9891C0846EFE7012508E09B
:1033F00005EB4508106900EB480040880144681C53
:10340000C5B2BD42F4DDC81DC10804B9891C084617
:10341000DCE7072B04D110694088C01DC010D5E738
:103420000CB90120D2E7082B04D110690089C01D16
:10343000C010CBE704EB4405106900EB4500408861
:10344000C01DC010C2E700002DE9FC5F05460E4616
:1034500017469846DDF830B02020A84080B2019091
:103460003088B0F5805F0AD1FEF78CF8044644B985
:10347000BBF1000F05D01B208BF8000001E02048B5
:1034800004688CB32DE02089B0F5805F28DBA94665
:10349000B9F1000F19D0207B00904FF0000A0DE029
:1034A00051462046FFF7A8FE80880199084008B1E0
:1034B0004FF000090AF1010000F0FF0AB9F1000F16
:1034C00002D000988245EBDD00BFB9F1000F06D1B4
:1034D0002089A8F8000008F10208B81E87B200BFD2
:1034E00064680CB1012FCEDC14B12089308002E079
:1034F0004FF6FF703080024804603846BDE8FC9FFC
:10350000B00000202DE9FF4F87B0824689461F4654
:10351000149CC846B889C0F303200690387B0590F8
:10352000CDF810900698072805D0BAF5805F02DB29
:10353000B86900780590159860B10698072802D000
:10354000BAF5805F03DA05200BB0BDE8F08F05986F
:1035500004901EE00598814501DD1120F4E708F094
:10356000FF013846FFF748FE0546A88888B1F848AD
:10357000007800F00F00297901F00701B0EB410F4E
:1035800007DD287900F0070008B90620DCE71A20DB
:10359000DAE7F86940B1159800902346FE6949467C
:1035A0005046099AB047CFE7BAF5805F4BDAB9F1D8
:1035B000000F48D0BE6949463846FFF71DFE054654
:1035C0006888C01D4FEAE00B0396A9F10100039E35
:1035D00056F8206006F0010040B30020B1B221F09F
:1035E000010600BF0BE03188090A21802188B278EA
:1035F00041EA02212180A41CB61C411C88B20BEBBD
:10360000DB72B0EB620FEEDB59460BEBD17252105E
:10361000ABEB4202012A08D1218801F47F412180CD
:103620002188328841EA122121800BE030882080F5
:1036300070886080241D361DABF10402314620469F
:10364000FCF7ABFE98E1002003900290C8468AE1A7
:10365000D7F818B00026B8F1000F08D0BAF5805F8F
:1036600005DB08F0FF003946FFF7D9FD06463011AB
:103670000BEB400B08F0FF013846FFF7BDFD054698
:10368000B348007800F00F00297901F00701B0EB92
:10369000410F7CDCC84504D01598002878D0C84577
:1036A00076DBB8F1000F06D10698072803D00598FD
:1036B0002080A41C24E1288800902888B0F5E06FC1
:1036C00012DB6888082804DC68882F3080B20090FC
:1036D0000AE06888102802D10620009004E068887B
:1036E000202801D10720009000981F287ED013DCED
:1036F0001F287CD2DFE800F03A535D8F9F5E909EDA
:10370000A0E4C5C6FEFEFEFEFEB0FEFEFEB1FEFE5D
:10371000FEFEFEB2FEFE5F00342845D012DC3028EB
:103720003ED008DC202874D02D2841D02E2874D01B
:103730002F285CD181E0312833D0322832D0332891
:10374000F7D130E0B0F5187F72D006DC35282CD0E8
:1037500036282BD03728ECD129E0A0F261200028B0
:1037600067D001286FD00228E3D18FE0159898B177
:10377000A87800F00F00002805DDA878304400F09C
:103780000F0000B9A41CA878C0F3031001E0B8E052
:10379000E5E004EB400401E01820D5E6ACE000BF12
:1037A00000BF00BF00BF00BF00BF00BF00BF00BF21
:1037B00000BF00BF00BF00206988664A32F81110C0
:1037C00006F00F02914089B20191BBF8000006F0AB
:1037D0000F0109B90021218021882180159939B173
:1037E0002188019A02401143218009E016E081E01E
:1037F0000199014006F00F021141228811432180F6
:1038000021882180A978314401F00F0101B9A41C5D
:1038100072E013E001E000BF00BF00BF06F00F0040
:1038200008B1052090E6BBF800002080A41C63E0EE
:1038300029E029E000BF00BF00BF00BF06F00F0075
:1038400010B1052080E620E0BBF800002080BBF826
:1038500002006080241D4FE000BF00BF06F00F0093
:1038600008B1052070E6BBF800002080BBF802001C
:103870006080BBF80400A080BBF80600E08008343C
:103880003AE000BF00BF00BF00BF00BF06F00F005E
:1038900008B1052058E66888C01DC2105946204668
:1038A000FCF77BFD688820F00F000F30001104EB5F
:1038B0004004A87800F00F0008B1207820801BE0B9
:1038C00006F00F0008B105203EE66888C01DC21052
:1038D00059462046FCF761FD688820F00F000F3044
:1038E000001104EB4004A87800F00F0008B1207824
:1038F000208001E0182027E600BF0120039000BFD0
:103900002DE0002006F00F0109B900212180A978DF
:1039100001F00F01002907DDA978314401F00F0102
:1039200011B9A41C00212180002004E0A41C002166
:103930002180411CC8B2A978C1F303118142F5DC92
:10394000297901F0070139B90621029106E000004A
:1039500036000020AE5E00081A21029100BF08F177
:1039600001001FFA80F8049880457FF771AE039834
:1039700008B90298E8E500BF0020E5E52DE9FF4F12
:1039800089B006468B469A46169CD846BAF80C0073
:10399000C0F303200890002007909AF80C000690CE
:1039A00000200590CDF810B0089807281BD0DAF851
:1039B0001800007807900798A8B941F61040864291
:1039C00003DB41F62F4086420BDDB6F5B05F02DB2C
:1039D000B6F5C05F05DBB6F5D05F04DBB6F5E05F9A
:1039E00001DA06980790179880B10898072803D144
:1039F00005200DB0BDE8F08FBBF1000F03D10B988F
:103A000008B120780790079804901BE00798834539
:103A100001DD1120EDE759465046FFF7EDFB054665
:103A2000FE48007800F00F01287900F03800B1EB73
:103A3000A00F07DD287900F0380008B90720D8E783
:103A40001A20D6E7BBF1000F1ADD41F6104086427E
:103A500003DB41F62F4086420BDDB6F5B05F02DB9B
:103A6000B6F5C05F05DBB6F5D05F09DBB6F5E05F04
:103A700006DADAF81810087808B10121059100BFBC
:103A8000DAF8200048B1179800902346DAF8207041
:103A9000594630460B9AB847ABE700200390072001
:103AA00002900B9808B90020A3E7D846B2E1DAF8F3
:103AB00018704FF0000908F0FF015046FFF79CFB1B
:103AC000054608F0FF005146FFF7A9FB8146D348A1
:103AD000007800F00F00297901F03801B0EBA10F58
:103AE0006FDCB8F1000F03D04FEA291007EB400755
:103AF000D84504D0179800287ED0D8457CDBB8F193
:103B0000000F0CD10898072809D021780698884220
:103B100001DA13206DE720883880A41C5DE1288835
:103B200000902888B0F5E06F12DB6888082804DC74
:103B300068882F3080B200900AE06888102802D18F
:103B40000620009004E06888202801D1072000901A
:103B500000981F2877D013DC1F2875D2DFE800F00B
:103B60003B535D94DB5E95DADCF4F3F274747474A9
:103B700074FB747474FC7474747474FD74745F00F6
:103B8000342845D012DC30283ED008DC202878D0FC
:103B90002D2841D02E2879D02F2855D1BDE03128AD
:103BA00033D0322832D03328F7D130E0B0F5187F47
:103BB00069D007DC35282CD036282BD03728ECD11B
:103BC00029E00DE1A0F2612000287CD001287BD003
:103BD0000228E2D1E9E0179890B1A87800F00F0030
:103BE000002805DDA878484400F00F0000B9A41CA7
:103BF000A878C0F3031000E008E104EB400401E002
:103C00001820F6E6E7E000BF00BF00BF00BF00BF1E
:103C100000BF00BF00BF00BF00BF00BF00BF00214A
:103C200068887F4A32F8100009F00F02904080B295
:103C30000190398801988143179830B12088019A02
:103C40001040014315E022E0C3E020886A88744BED
:103C500033F81220904308B11220CAE620886A88FF
:103C60006F4B33F81220104009F00F0290400843C8
:103C700081B23980A878484400F00F0000B9A41C34
:103C8000A9E04BE002E08DE000BF00BF00BF09F0FB
:103C90000F0008B10520ACE62388059820B13888CC
:103CA000984201D01C20A4E641F61040864215DB64
:103CB00041F62F40864211DCB3F5B05F02DBB3F56D
:103CC000C05F0BDB01E06EE06EE0B3F5D05F02DBBE
:103CD000B3F5E05F02DB0BB112208AE641F6324019
:103CE000864202D0401C864211D1B8F1010F0ED19C
:103CF0003888984208D019463046FDF727FF0290D1
:103D0000029808B1029874E60120464908703B8089
:103D1000A41C60E000BF00BF00BF00BF09F00F009F
:103D200008B1052065E6059878B138882188884271
:103D300003D178886188884207D01C2059E60CE0BE
:103D40000AE008E02DE02BE016E02088388060884B
:103D50007880241D3FE000BF00BF09F00F0008B1CC
:103D6000052046E62088388060887880A088B88062
:103D7000E088F88008342EE009F00F0008B1052033
:103D800037E66888C01DC21021463846FCF705FB9F
:103D9000688820F00F000F30001104EB40041AE097
:103DA00000BF00BF00BF00BF00BF09F00F0008B197
:103DB00005201EE66888C01DC21021463846FCF763
:103DC000ECFA688820F00F000F30001104EB40047B
:103DD00001E018200DE600BF00BF0120039015E0B0
:103DE000B8F1000F01D1A41C0EE0A87800F00F007C
:103DF000002805DDA878484400F00F0000B9A41C95
:103E00006888000904EB40041820029008F10100C2
:103E10001FFA80F80498804506E000003600002074
:103E2000AE5E0008740000207FF741AE039808B929
:103E30000298DEE500BF0020DBE5000010B53B483E
:103E40000078002871D0FEF709FC044600BF04F496
:103E5000806068B33648007828B13648007810B1E1
:103E60000020354908803548008D002804DD33489E
:103E7000008D401E31490885FEF736FC012030498F
:103E800008703048007810B100F07AF810E0022293
:103E90002D4801882D48FEF769FB2B4800882C4AE5
:103EA00012881044801E81B202222848FEF75EFB71
:103EB00004F4006020B12648008808B9FEF714FC1D
:103EC0001E484088012801D1FDF792FF2148007863
:103ED00048B121484088012803D01F484088222843
:103EE00001D100F03BF8FEF7B9FB044600BF04F433
:103EF0008060C8B11148408D401C10494885084673
:103F0000408D1549488502220F4801880F48FEF769
:103F10002DFB0D4800880E4A12881044801E81B285
:103F200002220A48FEF722FB00BF10BD2400002039
:103F30000C000020080000200E000020780800205F
:103F400006000020040000203A000020400000206D
:103F50003000002005000020BC08002010B50548F6
:103F6000FDF798F904480288044801880148FEF7E3
:103F70004BFB10BD520900202E0000203C00002009
:103F800010B505480288054801880548FEF7EEFA95
:103F90000348FDF7B1F910BD300000203A000020C1
:103FA0000E09002010B503464888401C82B288885C
:103FB000904200D100220888904201D1072010BD14
:103FC0004C8801F1080040F824304A800020F6E7D0
:103FD00029B1064A12680243044B1A6004E0034AFE
:103FE00012688243014B1A6070470000303802406B
:103FF00029B1064A12680243044B1A6004E0034ADE
:1040000012688243014B1A6070470000403802403A
:1040100029B1064A12680243044B1A6004E0034ABD
:1040200012688243014B1A6070470000203802403A
:1040300029B1064A12680243044B1A6004E0034A9D
:1040400012688243014B1A607047000044380240F6
:1040500029B1064A12680243044B1A6004E0034A7D
:1040600012688243014B1A607047000024380240F6
:104070002DE9F04180460D4616461C46069F17B1B5
:104080000520BDE8F0811DB91248008820801EE09F
:10409000062D05D1DEB131462046FCF7C3F916E006
:1040A000072D08D12046002101700B494988C1F332
:1040B000803101700BE0092D07D1204600210170ED
:1040C00005494988C90B017001E01120D9E700209A
:1040D000D7E7000074050020D405002038B5044659
:1040E00002224FF401716846FEF71AFABDF800008B
:1040F000204000901720FEF793FF02224FF4017139
:104100006846FEF75BFA1720FEF796FF38BD000001
:104110002DE9F04F89B0044600200890267A06F079
:10412000E007208807904FF0000BD846002006904B
:10413000F448007818B1092009B0BDE8F08F002FCD
:1041400075D0202F04D0402F03D0602F70D1B3E161
:1041500000BF94F80A904FF6FF7000EA0929208901
:1041600009EB20201FFA80F960894FEA202A48468F
:10417000FFF70EF90546002D7ED000200590049033
:10418000039006F010032A4651464846FFF710F9FF
:1041900080460690402F23D107980A2801D0082096
:1041A000CAE7B8F1040F0DD8B8F1000F0AD001200A
:1041B000059004F10C0004900021049801800498FB
:1041C000418010E0D048008810380690069840459D
:1041D00002D20120039006E004F11000049002E0F6
:1041E00006F002000590202F36D1059868B1079897
:1041F0000A2801D008209FE7C6F38100C0F104001F
:10420000069004F10C00049026E0A289E08902EBFC
:10421000004101F11000BD4A1288904209D9BB4803
:104220000088801F079A90420AD0082084E742E164
:1042300054E101F10A00079A904201D008207BE77F
:1042400004F110000490069107980A3806998842F4
:1042500001D20120039000BF06F0100030B14FF0F2
:10426000010BBAF1010F01DD052008900898002824
:1042700038D10398002800E01AE17DD00120A4493C
:104280000870A4490870A44880F800B0A348A0F8BA
:104290000090A34880F800A0A2480560402F03D1F9
:1042A000A148C0F8008002E09F49069808609F4836
:1042B000006830B19D480068FCF729F800209B4950
:1042C000086099490968491C49084800FBF7F0FF54
:1042D000964908600846006840B9BBF1000F02D05B
:1042E00005200890E3E004200890E0E0402F4CD146
:1042F0008E4800682B4642465146CDE9000B4846A1
:10430000FFF700F90890089850B98848069A0168A4
:1043100004F11000FCF741F860208549087043E083
:104320000898FF2840D1042082490870824880F80C
:1043300000B0824880F800A08148A0F80090814831
:10434000C0F80080794800687F4908607F49E869C3
:10435000086001206B4908707D480460006800898E
:1043600020F0FF007A4909680881794800680089CF
:1043700006F0F001084300E01AE075490968088179
:1043800060206B4908700020D6E60798A0F10A0269
:1043900004F1100165480068FBF7FFFF0020644945
:1043A000087007980A3806906A49069808607EE007
:1043B000B8F1000F07D15948A0F80090584880F88C
:1043C00000A058480560402F38D104982B4642463B
:1043D0005146CDE9000B4846FFF794F8089008983D
:1043E000FF2864D1032053490870534880F800B077
:1043F000524880F800A05248A0F800905148C0F8F8
:1044000000805149049808605049E869086001201B
:104410003C4908704E4804600068008920F0FF00A5
:104420004B49096808814A480068008906F0F00194
:10443000084347490968088100207DE604982B4617
:10444000CDE9000B51464846069AFFF797FA0890C7
:104450000898FF282BD1012136480170364880F892
:1044600000B0364880F800A03548A0F800903549E3
:10447000069808603449049808603449286A08603E
:10448000012020490870324804600068008920F04B
:10449000FF012F48006801812D480068008906F05F
:1044A000F00108432A4909680881002044E601E038
:1044B0000820089015E000BF1D48007887420AD107
:1044C00027B9204600F060FB089006E0204600F087
:1044D0001BFD089001E00320089002E003200890F3
:1044E00000BF00BF0898FF2809D0CDE900840698D6
:1044F00083B206F010023946089800F097FC0020BD
:104500001AE60000B80000205400002056000020E9
:10451000BA000020C4000020BB000020BC00002026
:10452000BE000020CC000020C8000020A800002011
:10453000B900002094000020950000209600002083
:10454000980000209C000020A0000020A400002073
:10455000B4000020C00000202DE9FE4F04460020DA
:104560000290207A00F07F064FF00209052E05D157
:1045700020880A2807DA0620BDE8FE8F2088082850
:1045800001DA0620F8E7012E04D0032E7ED0052E96
:104590007DD18DE0A08905287ADC002594F80CA057
:1045A0000E2221469E48FBF7F8FEBAF10000AAF160
:1045B000010101F0FF0A14D19A49088080460BE0FE
:1045C0004046FEF7AFFE834608F10400A11D21F826
:1045D00010B0C01E00F0FF08B8F1050FF0DB122587
:1045E00044E04FF0000B8F48008870B18E4800887F
:1045F0000C3885B204F10C088C4800880190894879
:104600000088401E874908801DE05046FEF78AFE5C
:1046100083464FF480500190834800880E3885B25D
:1046200004F10E08B5EB4B0F0ADAA91C88B2C5EBF2
:104630004B02411E114491FBF0F17A4A118002E0D5
:1046400000207849088002A843462A4601A9009024
:104650005046FEF7F9FE0546BDF804007349088090
:1046600071480088401B801F85B200BF25809DF8DF
:104670000800D0B9208920F07F002081208940F0F7
:104680000200208167480188618102E00FE0A2E01A
:104690000CE0008848B1208920F08000208120892A
:1046A00040F0800020814FF0820900BF96E000BFFB
:1046B000A0890190BDF80400B0F5805F02DA052002
:1046C000029087E0BDF80400FEF762FE0746002F67
:1046D0007ED00025032E21D13846FEF755FE014637
:1046E0000968C4F80E1000233A461946BDF80400C4
:1046F000FEF71CFD0C3085B24B480088801FA84295
:1047000001D20C2554E004F112033A460021BDF811
:104710000400FEF70BFD0C3085B249E094F80E80E2
:104720003846FEF731FE90F802B0D8453DDC4146F0
:104730003846FEF761FD01460A6822618988A18238
:10474000A17BE1813846FEF71FFEB0F802A0CAF354
:10475000032ABAF1080F02D0BAF1090F0AD1B8F151
:10476000000F07D10D22324904F11600FBF715FEA8
:104770001C2519E000233A464146BDF80400FEF727
:10478000D5FC103085B228480088801FA84201D28D
:10479000102509E004F116033A464146BDF804002D
:1047A000FEF7C4FC103085B201E01120029000BF7A
:1047B0009DF8080050B9002161812580208920F0F2
:1047C0007F0020812089711C0843208102E0FFE7DF
:1047D0000820029002E00320029000BF00BF9DF875
:1047E0000800A0B10A202080208920F07F002081CD
:1047F000208940F007002081002161810D489DF84B
:10480000081050F82110E160002006490880494650
:104810002046FEF7E1F908B1074804600020ABE646
:1048200000090020AC00002054000020AE00002051
:1048300084000020D05E0008000000202DE9FC4725
:1048400081460C46154600262D480078002854D095
:104850002C480068007A00F0E0072A480068007AD7
:1048600000F01008402F3AD127480088103886B24F
:10487000A64218D20120254908702549087025480C
:1048800080F800802448046060202449087024488F
:104890000560324629461B4800681030FBF77DFD55
:1048A000204806601BE0042C0DD864B11548006850
:1048B0000C30854213D022462946124800680C303D
:1048C000FBF76BFD0BE00F4800681030854206D007
:1048D000224629460B4800681030FBF75EFD002099
:1048E0000749087007480068334642463946CDE913
:1048F0000040484600F09AFA00BFBDE8FC8700007F
:10490000B8000020B400002054000020BA000020AD
:10491000C4000020BB000020C8000020B900002017
:10492000A8000020C00000201CB501218803FFF76B
:104930005FFB01210620FFF74BFB05220A212248DD
:10494000FDF788FD052202212048FDF783FD0522A1
:1049500003211E48FDF77EFD02208DF804008DF82E
:10496000050000208DF8060002208DF807004002A7
:10497000009069461448FDF725FD04200090694623
:104980001248FDF71FFD0820009069460F48FDF70B
:1049900019FD01210220FFF71BFB4FF480700090EE
:1049A00001208DF8040002208DF8050000208DF80C
:1049B000060001208DF8070069460348FDF702FD57
:1049C00000F006F81CBD0000000402400008024090
:1049D00000B585B0134800F033F80020ADF80000B2
:1049E000ADF804000220ADF806000120ADF8080083
:1049F0004002ADF80A000020ADF80C00ADF80E0042
:104A00000720ADF810004FF48270ADF8020069463F
:104A1000044800F07BF80121024800F005F805B0D9
:104A200000BD00000038004021B1028842F0400281
:104A3000028004E002884FF6BF731A40028070477C
:104A400010B504462448844208D101218014FFF7A0
:104A5000FFFA0021A014FFF7FBFA3CE01F48844254
:104A600008D101210014FFF7D3FA00212014FFF729
:104A7000CFFA30E01A48844208D10121C013FFF771
:104A8000C7FA0021E013FFF7C3FA24E01548844277
:104A900008D101214014FFF7DBFA00216014FFF771
:104AA000D7FA18E01048844209D101210805FFF720
:104AB000CFFA00214FF48010FFF7CAFA0BE00B4841
:104AC000844208D101214805FFF7C2FA00214FF4C2
:104AD0000010FFF7BDFA10BD003001400038004063
:104AE000003C0040003401400050014000540140AF
:104AF0000246002013890B400BB1012000E000208A
:104B000070470146888970478181704710B500223F
:104B1000028802F441520B884C8823438C8823433B
:104B2000CC8823430C8923434C8923438C8923431A
:104B3000CC8923431A430280838B4FF2FF742340B6
:104B400083830B8A038210BD30B500228B071C0FB4
:104B50000F2303FA04F20B4B8C1053F824309343C9
:104B6000084C8D1044F8253023468C1053F824301F
:104B70008C07240F00FA04F42343024C8D1044F8F0
:104B8000253030BD083801402DE9FC41044600279E
:104B90000025207A00F0100090490978884201D160
:104BA0000127E4E08E48008809381FFA80F8207A4F
:104BB00000F01000894908708A48006800286FD00A
:104BC0008948006889490968451A207A00F001007F
:104BD000C8B1454515D82088C11EA94206D3217AFF
:104BE000C1F34201C1F10701A94204D0072D06D942
:104BF000C11EA94203D100217D4A117000E00E2799
:104C000009E00E2707E0012079490870454501D8E1
:104C10000E2700E04546002F7ED10026734800781D
:104C200000F0010070B37148006840086D490968E0
:104C300011F810006D49096849086A4A126822F89B
:104C400011006A48006840086649096831F8100098
:104C5000218901F47F410843644909684908614A90
:104C6000126822F811006A1E60490968012303EBEB
:104C700051015C4B1B6803EB410004F10A01FBF797
:104C80008CFB26E0A17A2089001261F30F2057499E
:104C900009684908534A126822F81100012614E0F5
:104CA00063E004F10A0010F81620711E30F81100BC
:104CB000001262F30F204D49096806EB5101494A81
:104CC000126822F81100701C86B2681CB6EB500FF7
:104CD000E7D347480078002846D146480078414944
:104CE0000968CDE90010444803683F48026843481A
:104CF000017843480088FEF741FE0746FF2F2CD17C
:104D00000220404908703B4800783F4908703B4802
:104D100000783E49087000E028E0394800883C49A6
:104D20000880314800683B4908602E4800683A49CD
:104D3000086031480068006A384908600120384935
:104D40000870384804600020294908703649087006
:104D500026490860FF20BDE8FC8122480068FBF777
:104D6000D6FA00201F49086000E0032700BF0FBBF0
:104D70000A202080E08820F47040E080E08840F441
:104D80004050E0801548007810B13020208101E0CB
:104D90002020208116480078012805D1134800689A
:104DA00028441249086017E00020104908601E4995
:104DB000087011E000200E4908701B49087009486E
:104DC000006830B107480068FBF7A1FA00200549E8
:104DD00008600020054908603846BCE7C400002090
:104DE00056000020A8000020C8000020C0000020BD
:104DF000BA000020BB000020CC000020BE00002034
:104E0000BC000020940000209500002096000020A7
:104E1000980000209C000020A0000020A40000209A
:104E2000B8000020B4000020B90000202DE9F047B0
:104E300007460E4690469946DDE90854602E04D098
:104E40001EB1208900F47F402081002F3ED1E088F0
:104E500020F47040E080E08840F44050E080402E34
:104E600023D1042D0FD875B10A20208048F003000B
:104E7000E9B2C1F1040140EA810040F0400021891B
:104E80000843208132E0A94503D209F10A002080BD
:104E900002E005F10A002080A581290CE18120892A
:104EA00048F041010843208120E036B90A202080E3
:104EB000208940F02000208118E0602E16D00A20C2
:104EC0002080208940F0600020810FE00A202080AF
:104ED000E08820F47040E080E08840F40050E080FA
:104EE00080202081064850F82700E06002212046FB
:104EF000FDF772FE08B103480460BDE8F0870000CA
:104F0000D05E0008000000202DE9F04106464FF079
:104F100000083446307A00F010005C490978884275
:104F200002D14FF00108AEE0002559480088093849
:104F300087B2307A00F01000544908705548006874
:104F4000384455490968884208D95348006851498E
:104F50000968451A00205149087003E03D460120C8
:104F60004E490870207A20814A48007800F00100FC
:104F7000D0B12089474909684908494A126832F87E
:104F8000111001F47F41084320816A1E41480068E6
:104F9000012303EB5000424B1B6803EB400104F17B
:104FA0000A00FBF7FAF92FE000203A4A126851088C
:104FB0002289384B1B685B08DFF8E4C0DCF800C0CE
:104FC0003CF813304FF47F4C0CEA03231A43228140
:104FD00000BF15E04218324B1B6833F81220130A49
:104FE0004218521CDFF8B8C0DCF800C01CF81220D0
:104FF00043EA022304F10A0222F81030421C90B264
:10500000B0EB550FE6D300BFE08820F47040E0809D
:10501000E08840F44050E080208920F0FF002081AB
:105020001E48007828B12089184909780843208152
:1050300006E020891549097841F0010108432081E3
:10504000072D08D20A2020802089C5F1070140EAF7
:105050004100208101E0E81C2080104800780128F0
:1050600005D10C48006828440A4908600AE00C4849
:105070000068FBF74CF90020094908600549086001
:105080000849087000BF4046BDE8F081C400002018
:1050900054000020C0000020C8000020BA000020FA
:1050A000A8000020B900002038B5044602224FF4C1
:1050B00001716846FDF734FABDF800002043009006
:1050C0001720FDF7ADFF02224FF401716846FDF78E
:1050D00075FA1720FDF7B0FF38BD000038B505465A
:1050E0000C4600940F480078A84201D00D48057086
:1050F0004FF6FF70844208D0BDF8000000900222F5
:105100004FF49A716846FDF759FA06480078009006
:10511000BDF80000009002224FF498716846FDF738
:105120004DFA38BD360000200CB5002001900090EB
:105130003348006840F480303149086000BF30488F
:10514000006800F4003000900198401C0190009825
:1051500018B90198B0F5A04FF1D12948006800F4C2
:10516000003010B10120009001E000200090009874
:10517000012844D122484030006840F08050204946
:10518000403108601F48006840F440401D490860F5
:105190001B48083000681A49083108600846006852
:1051A00008600846006840F4805008601648091FEF
:1051B0000860081F006840F08070091F086000BF89
:1051C0000F48006800F000700028F9D040F202702B
:1051D0000E4908600A480830006820F003000849BA
:1051E000083108600846006840F00200086000BF0F
:1051F00003480830006800F00C000828F8D10CBD06
:10520000003802400070004019544107003C024041
:105210002DE9F04786B000200490039002900190A1
:1052200080464FF0030A4FF00309002400254FF693
:10523000FF76FE4880890640FD48808906400020B0
:10524000FC490880FC4908700220FDF75BF907461D
:105250003888FA490880387900F0020008B14FF028
:1052600001090320FDF74EF907463888F449088004
:10527000387900F0020008B14FF0010AF0480088C8
:10528000F049098801FB0A00EF490988884208DDD6
:10529000ED480088ED4909880844E94909888842B1
:1052A00012DCE7480088E749098801FB0A00E84961
:1052B000098888420CDDE6480088E64909880844E8
:1052C000DF490988884203DD1E2006B0BDE8F0876B
:1052D000DA480088E049098801FB0900DA490988B1
:1052E000884208DDD8480088D84909880844D3494D
:1052F0000988884225DCD1480088D749098801FB04
:105300000900D3490988884208DDD1480088D1497D
:1053100009880844C9490988884212DCC7480088BE
:10532000CD49098801FB0900C549098888420ADD81
:10533000C3480088C34909880844C049098888428D
:1053400001DD1D20C1E702224FF4186105A8FDF719
:10535000E7F8BDF81400059004224FF41A6102A882
:10536000FDF7DEF802980290042240F6A41101A88D
:10537000FDF7D6F801980190AC484488AC484588C0
:10538000BDF8140000F4106000284BD0BDF81400E4
:1053900000F4C06008B9302097E7BDF8140000F4AD
:1053A000007030B9BDF8140000F4806008B13020FE
:1053B0008BE78EB106F0040020B9BDF8140000F4AC
:1053C000007038B906F0080030B9BDF8140000F4D8
:1053D000806008B1302078E7029848B19F49029870
:1053E000884203D39E490298884201D936206CE74F
:1053F000BDF8140000F4007060B1BDF8140000F4B2
:10540000806038B1019828B1DDE90101884201D3FB
:105410004FF00108B8F1000F04D006F0100008B9F1
:10542000302052E78F48007820B3BDF8140000F414
:10543000106048B9022C05D0032C03D0022D01D0F6
:10544000032D50D1302040E7BDF8140000F48060F7
:1054500028B9032C01D0032D01D1302035E7BDF848
:10546000140000F4007018BB022C01D0022D3AD1B8
:1054700030202AE7BDF8140000F41060C8B976485F
:105480000088002808DD01246E480088002801DD1E
:1054900022250AE0002508E06A480088002802DD8D
:1054A0000024012501E00024002501205F498883B4
:1054B00019E069480088002806DDB8F1000F01D026
:1054C000032402E0022400E000245E480088002853
:1054D00008DDBDF8140000F4806008B1032502E087
:1054E000022500E00025032C06D1504902984862AD
:1054F0004F490298486208E0022C06D14B490298B5
:105500004862029880B24A4948625748007818B900
:1055100004B10DB92920D8E604B915B101205349C9
:1055200008705248007880B14B480088002804DD9C
:105530004FF480603F49088007E042480088002817
:1055400003DD4FF400603B490880022C05D0032C9A
:1055500003D0022D01D0032D08D101204449087049
:105560003D48008810B90020324908802F48448007
:105570002F48458000203F4908803F4908803F4927
:1055800008803F490880B8F1010F2CD1DDE9010105
:10559000884212D3DDE90101B0FBF1F03749088000
:1055A000DDE90101B0FBF1F201FB120040B9334823
:1055B0000088401C3149088002E001202F49088002
:1055C000DDE90101B0FBF1F02A490880DDE90101C4
:1055D000B0FBF1F201FB120078B126480088401CB4
:1055E0002449088009E0022C02D1012023490880C7
:1055F000032D02D001201F49088000202149088086
:1056000002224FF4846103A8FCF78AFFBDF80C0066
:10561000039011480088002851DDBDF80C0098B3B4
:105620000222510204A8FCF77BFF2EE0780800203C
:10563000BC0800203E000020060000203A000020A8
:105640003C0000202E0000205A00002054000020C2
:1056500058000020560000203000002020A1070044
:10566000000050C37400002025000020240000200A
:105670000800002020000020220000201000002050
:105680000E0000207600002019E0BDF81000049004
:10569000BDF8100070B1BDF81010881CBDF80C10DA
:1056A000484346F2A7110844491CB0FBF1F04C4AAC
:1056B000108008E0002003904949088003E00020A2
:1056C0000490474908804648008810B9454800784A
:1056D00028B94348008820B14248007808B91F2003
:1056E000F3E54148007840B14048008828B140487F
:1056F000008840F480603E49088000203D490880D1
:105700003D4908803D4908803D4908803D49087071
:105710003D4908703D4908803D4981F840003D49B8
:1057200081F840000885BDF8140000F4007030B323
:10573000029818B900202F49088013E0364A0299D0
:10574000B1FBF2F0052803D201212A4A118008E0BA
:105750004FF6FF7101EA40010A2291FBF2F1254A5E
:10576000118000BFBDF8140000F4806038B1DDE99D
:105770000101884204D21F480088214908801DE0A9
:10578000254A0199B1FBF2F0052803D201211C4AF8
:10579000118008E04FF6FF7101EA40010A2291FBF7
:1057A000F2F1174A1180134A118801EBD172144BA0
:1057B0001B8803EB6202124B1A8000BF0B48008863
:1057C000002802DD0220FCF795FD1448008800281F
:1057D00002DD0320FCF78EFDFEF7C0FB002074E520
:1057E00038000020070000202400002030000020A6
:1057F0003E0000201A000020180000201C0000209D
:105800001E0000200C0000201200002014000020C8
:10581000BC08002078080020A08601002E0000208F
:10582000FF210848007810B10748008870470748F2
:10583000007828B1C820064A10800020054A108050
:105840000846F3E72600002028000020080000207A
:10585000140000201600002010B51F480088002802
:1058600002DD0220FCF7AAFA1C480088002802DDAD
:105870000320FCF7A3FA0C2444F4806444F400648D
:10588000E14388B2FEF72AFC00201549087015494B
:1058900008701549087015490870154908701549B0
:1058A0000880154908801549088015490880154960
:1058B0000880154908801549088015490880154950
:1058C00081F8400014490880144908701449087090
:1058D0001449087010BD0000300000202E00002088
:1058E0000600002024000020080000200C000020FA
:1058F00012000020100000200E0000201A000020DE
:10590000180000201C0000201E00002020000020A5
:1059100022000020BC080020140000200700002006
:105920000500002074000020002002490870024990
:1059300008707047060000200400002010B5002009
:105940003C4908803C480078002871D03B480078EA
:1059500020B13B480088401C3949088039480088FC
:10596000002845DD3848008836490988884220DD0E
:105970003648008800280ADD3548008D35490989F8
:10598000884204DC3248008DC01C31490885324809
:10599000008800280DDD2D48008850B92F48008D63
:1059A0002C490989884204DC2C48008DC01C2B49F5
:1059B000088526480088B0B927480088002812DDED
:1059C000FCF74CFE044600BF04F4006028B91E48F2
:1059D0000088401C1C49088004E000201A49088007
:1059E0001E49088504E018480088401C16490880B4
:1059F0001B48007820B91B48007808B1FEF7C0FAB0
:105A0000FCF7F6F90D48007890B117480088002897
:105A10000EDD154800880A490988884208D1FEF73A
:105A20009DFA11480088012802D10020044908800D
:105A300010BD000018000020080000200500002014
:105A400022000020100000200E0000203000002066
:105A500078080020780000202E000020BC080020DC
:105A600024000020040000202000002010B50020A9
:105A7000084908800848007840B108484088032851
:105A800004D10748008808B9FEF768FA00200549E4
:105A9000088010BD1C00002005000020BC0800206C
:105AA000200000202200002010B51548006840F4B6
:105AB0007000134908601348006840F00100114964
:105AC000086000200F49083108600E4800680E4940
:105AD00008400C4908600D48091D0860081F00684F
