:020000040800F2
:10000000F006002009010008BF1800087518000854
:10001000BD18000899080008891C000800000000AD
:10002000000000000000000000000000451900086A
:100030009D09000800000000C118000859190008B7
:100040002301000823010008230100082301000800
:1000500023010008230100082301000823010008F0
:1000600023010008230100082301000823010008E0
:1000700023010008230100082301000823010008D0
:1000800023010008230100082301000823010008C0
:1000900023010008230100082301000823010008B0
:1000A00000000000230100082301000823010008CC
:1000B0002301000823010008230100082301000890
:1000C0002301000823010008230100082301000880
:1000D000230100087D1C00082301000823010008FB
:1000E0002301000823010008230100082301000860
:1000F00023010008DFF80CD000F0F0FA00480047B8
:1001000069280008F0060020064880470648004796
:10011000FEE7FEE7FEE7FEE7FEE7FEE7FEE7FEE7B7
:10012000FEE7FEE7CD190008F50000082DE9F05FB5
:100130000546002092469B46884606468146402456
:100140001BE0284641464746224600F0C8F8534681
:100150005A46C01A914110D311461846224600F063
:10016000AFF82D1A67EB01084F4622460120002107
:1001700000F0A6F817EB00094E41201EA4F101047F
:10018000DFDC484631462A464346BDE8F09F40EA58
:1001900001039B0703D009E008C9121F08C0042A05
:1001A000FAD203E011F8013B00F8013B521EF9D2EC
:1001B0007047D2B201E000F8012B491EFBD2704714
:1001C0000022F6E710B513460A4604461946FFF723
:1001D000F0FF204610BD80EA010210B502F0004396
:1001E000400022D04A001FD0010E01EB1261C0F383
:1001F0005600C2F3560240F4000042F40002A0FB95
:10020000022000047F39140400D0401C50EA124040
:1002100001D44000491EC2B20C0604EBD010401CB1
:100220004008802A02D003E0002010BD20F0010029
:10023000002900DA0020184310BD420005D0C0F3A9
:10024000C7525242914201DC0020704700EBC1507E
:100250007047C10F80EAE0700844CA079623002166
:1002600000F056B896230022114600F051B800F075
:10027000004230F000400AD0C10D01F56071C0F3BA
:10028000160042EA0151C20840071143704700209E
:100290000146704730B50B4601460020202201245C
:1002A00009E021FA02F59D4205D303FA02F5491B44
:1002B00004FA02F52844151EA2F10102F1DC30BD5A
:1002C000202A04DB203A00FA02F100207047914016
:1002D000C2F1200320FA03F3194390407047202A0B
:1002E00004DB203A21FA02F00021704721FA02F3E0
:1002F000D040C2F1200291400843194670470029BE
:10030000A8BF7047401C490008BF20F0010070479B
:1003100010B4B0FA80FC00FA0CF050EA010404BFFB
:1003200010BC704749B1CCF1200421FA04F411FA51
:100330000CF118BF012121430843A3EB0C01CB1D95
:100340004FEA00614FEA102042BF002010BC704706
:1003500000EBC35010440029A4BF10BC7047401CE0
:10036000490008BF20F0010010BC70472DE9FE4F86
:10037000804681EA0300C00F0C46009021F0004146
:1003800023F00045B8EB0200A94105D240462146C2
:1003900090461C460B46024623F00040104347D0CF
:1003A000270DC7F30A00C3F30A510290401A0190C7
:1003B00040286BDAC3F3130040F4801B0098924688
:1003C00020B10023D2EB030A63EB0B0B01985946D3
:1003D000C0F140025046FFF773FF06460D465046F7
:1003E0005946019A00F08CF910EB08006141002495
:1003F00087EA115284EAE7731A4340D0009A62B345
:10040000019A012A4FEA075215DC001B61EB020139
:100410004FF0004202EA0752CDE90042001C41F5CC
:10042000801132462B4600F08CF903B0BDE8F08F06
:1004300040462146F9E7001B61EB0201001C41F533
:10044000801300185B412018A2F5001747EB030149
:1004500040EAD570B6196D4111E06D084FEA3606D5
:1004600045EAC0754FEA0752001B61EB0201001C10
:1004700041F5801149084FEA3000001951413246D8
:100480002B4603B0BDE8F04F00F04CB900980122B4
:1004900040000023D0EB020263EBE073009821469A
:1004A0004FEAE074B8EB000061EB0401E9E783F088
:1004B00000435BE781F0004158E72DE9FE4F81EAF8
:1004C000030404F0004421F0004100944FF0000BBD
:1004D00023F0004350EA01045ED052EA03045BD0EB
:1004E000C3F30A54C1F30A552C44A4F2F334019423
:1004F000A0FB0254C1F3130141F48011C3F31303B1
:1005000043F4801301FB024400FB034E840A970A64
:1005100044EA815447EA8357A4FB076802958D0A91
:1005200005FB07854FEA932C04FB0C542705029D1D
:100530004FEA065847EA1637B5EB08056EEB070C8D
:10054000870E920E47EA811742EA8312A7FB020147
:10055000B6EB0B0164EB00042B0D43EA0C335E1881
:1005600044EB1C50DA465146E7FB0201C5F3130485
:100570004FEA0B3343EA14534FEA0432019C43EA37
:100580000603A4F10C040294009CCDE900B400F031
:10059000D8F803B0BDE8F08F00200146F9E72DE957
:1005A000F04D81EA030404F0004B21F000451446AD
:1005B0004FF0000A23F0004150EA050220D054EA2F
:1005C00001021DD0C5F30A570246C5F31303C1F358
:1005D0001300C1F30A5640F4801543F48013A7EBCF
:1005E0000608101BD64608F2FD3873EB050002D34F
:1005F00008F1010801E092185B41B8F1000F03DA3D
:1006000000200146BDE8F08D00204FF48011064621
:1006100084460EE0171B73EB050705D3121B63EB33
:10062000050306434CEA010C49084FEA30009218D2
:100630005B4150EA0107EDD152EA030012D082EA91
:10064000040083EA0501084305D0101BAB4106D224
:100650000122002306E000224FF0004302E06FF089
:10066000010253101AEB06004CEB085110EB0A0084
:1006700041EB0B01BDE8F04D00F054B8C1F30A5254
:10068000C1F3130140F2FF3341F480119A4202DAC0
:1006900000200146704740F233439A42A2F23342AF
:1006A00002DC5242FFF71BBEFFF70ABE30B5041E44
:1006B00071F1000404DB4FF00044404264EB01019F
:1006C000141E73F1000405DB1C464FF00043524238
:1006D00063EB0403994208BF904230BD064C074DBE
:1006E00006E0E06840F0010394E807009847103402
:1006F000AC42F6D3FFF702FD702D0008902D0008E4
:10070000202A06DBCB17203A41FA02F043EAE073D5
:1007100006E041FA02F3D040C2F1200291400843C2
:100720001946704710B5141E73F1000408DA401C16
:1007300041F1000192185B411A4301D120F0010000
:1007400010BD2DE9F04D92469B4611B1B1FA81F2F0
:1007500002E0B0FA80F220329046FFF7B1FD044685
:100760000F4640EA0A0041EA0B0153465A46084345
:1007700013D0114653EA010019D0C8F14002504687
:10078000FFF7ADFD05460E46504659464246FFF777
:1007900097FD084305D0012004E020463946BDE816
:1007A000F08D0020054346EAE0762C4337430A9853
:1007B0006305E40AA0EB08000022FD0A44EA47545E
:1007C0000A3002D500200146E9E701051019694108
:1007D000DDE9084500196941BDE8F04DA2E70000D8
:1007E0002DE9F0418AB0242215496846FFF7CFFC75
:1007F0000024144DE846274658F82400686001F0AC
:100800003BF802266F700321342001F04DFA64207A
:1008100000F012F9687838B158F824100AA001F0F5
:1008200077FB0AB0BDE8F081761EEBD1641C092C81
:10083000E2DB0BA001F06CFB0FA001F069FBF0E71D
:10084000D82A000800000020256420626175642019
:1008500066696E642073656E736F720D0A0D0A000F
:1008600063616E206E6F742066696E642073656EBE
:10087000736F720D0A000000706C65617365206310
:100880006865636B20796F757220636F6E6E656348
:1008900074696F6E0D0A0000FEE7000010B50023BA
:1008A000104A15E0362809D039280BD03C2812D040
:1008B00054783F2813D044F0800406E0547844F084
:1008C000010402E0547844F00204401C54705B1CA4
:1008D0008B42E7D310BD547844F00804F5E744F0A8
:1008E0000404F2E7000000202DE9F047002704256A
:1008F000DFF8A08050383E4601F1060A102847D2A2
:10090000DFE800F01108130C1517191B1D1F2146F5
:100910004646462334240325402702E03D24032590
:100920002E27012613E0302411E037240FE03A246B
:100930000DE041240BE0452409E0492407E04D2463
:1009400005E0512403E0552401E0D8F82440DFF805
:100950004890032A19D04DB16A0009EB4400FFF713
:1009600016FCD8F81420294620469047002E0FD0B8
:10097000720009EB47005146FFF709FC3146384643
:10098000D8F81420BDE8F047104703250026E3E718
:10099000BDE8F08708000020CC010020704710B5AA
:1009A00090F821100022022905D00421816380F8EB
:1009B0002020012010BD01680B6823F00E030B609E
:1009C00001680B6823F001030B6090F84010C46BC2
:1009D00001F01C03012101FA03F3636080F8211088
:1009E00080F82020104610BD10B590F8211000248A
:1009F000022903D00421816301241AE001680A68F6
:100A000022F00E020A6001680A6822F001020A6000
:100A100090F84010C36B01F01C02012101FA02F2B0
:100A20005A6080F82110002180F82010416B01B13C
:100A30008847204610BD000070B5044600F028F934
:100A40000546601C02D004484068044400F020F9C8
:100A5000401BA042FAD370BD300000202DE9F04FBA
:100A6000DFF80C92002209F1040A012503240AF19F
:100A7000040B85B00F260BF1040EF0E005FA02F727
:100A80001CEA07037ED091F804C00CF0030CBCF103
:100A9000010F02D0BCF1020F26D1D0F808C0CDF86A
:100AA00000C04FEA420C04FA0CF8CDF810C0DDF893
:100AB00000C02CEA080CCDF800C0D1F80C80DDF89D
:100AC00010C008FA0CF8DDF800C048EA0C08C0F8BD
:100AD0000880D0F804C02CEA070C0F79C7F3001780
:100AE000974047EA0C0747600F79FF43BF070ED0D6
:100AF000C7684FEA420804FA08FC27EA0C07D1F855
:100B000008C00CFA08FC4CEA070CC0F80CC00F79BE
:100B100007F00307022F15D1D70800EB87070297CC
:100B20003F6A4FEA427C4FEADC6806FA08FC27EA93
:100B30000C07D1F810C00CFA08FC4CEA070C029F15
:100B4000C7F820C007684FEA420804FA08FC27EA01
:100B50000C0791F804C00CF0030C0CFA08FC4CEAEA
:100B6000070CC0F800C04F6817F4403F76D0414FE3
:100B7000D7F800C04CF0010CC7F800C03F6807F080
:100B8000010700E06AE000973B4F22F0030C674446
:100B90000297BF684FEA827C4FEA1C7806FA08FC8D
:100BA00027EA0C07DFF8D4C0604502D14FF0000CF3
:100BB0001DE0DFF8CCC0604502D14FF0010C16E01B
:100BC000DFF8C0C0604502D14FF0020C0FE0DFF843
:100BD000B8C0604502D14FF0030C08E0DFF8ACC0AC
:100BE000604502D14FF0040C01E04FF0050C0CFA07
:100BF00008FC4CEA070C029FC7F808C0D9F800703F
:100C0000CC46D1F804809F435FEAC83800D51F4323
:100C1000CCF80070DAF80070D446D1F804809F4315
:100C20005FEA883800D51F43CCF80070DBF800700D
:100C3000DC46D1F804809F435FEAC82800D51F43F3
:100C4000CCF80070DEF80070F446D1F804809F43C1
:100C50005FEA882800D51F43CCF80070521C0B684F
:100C60009C46D3407FF40AAF05B0BDE8F08F00008A
:100C70000004014020380240000001400000024012
:100C80000004024000080240000C02400010024034
:100C900001488068704700003000002002488168E9
:100CA00042681144816070473000002010B5002474
:100CB000032000F079F80F2000F008F808B10124B3
:100CC00001E000F025F8204610BD000070B50E4E82
:100CD00005460024706898B14FF47A71B1FBF0F0CA
:100CE0000A490968B1FBF0F000F0AAFB40B9102DE9
:100CF00006D200222946501E00F036F8356000E08A
:100D00000124204670BD0000300000203C0000207F
:100D10000D4808B5016841F000410160016801F02B
:100D200000410091011F0A6842F001020A6009684F
:100D300001F001010091016841F0805101600068FB
:100D400000F08050009008BD24380240002809DBE4
:100D500000F01F02012191404009800000F1E020D5
:100D6000C0F8001170470000F0B40E4B1B680C4631
:100D7000C3F30223C3F10705042D00D90425191D6F
:100D8000072901D2002300E0DB1E012606FA05F147
:100D9000491E214099409E40761E16403143F0BCCA
:100DA00001F0DCB80CED00E0064900F0070208682D
:100DB0004FF6FF03184040EA0220034A1043086040
:100DC000704700000CED00E00000FA052DE9F04747
:100DD0000E46050079D0DFF88481D8F8000000F0D5
:100DE0000100B04214D2012E05D1D8F8001041F014
:100DF0000401C8F80010D8F8001021F001013143B7
:100E0000C8F80010D8F8000000F00100B0425CD132
:100E10002878534C800705D52068A96820F0F00099
:100E2000084320602878C0075CD04D4968680839BD
:100E300002281AD003281BD0096801281BD0890575
:100E4000002966DA216821F0030101432160FFF7E0
:100E50001FFF6968074641F28830022914D0032930
:100E600020D0012981462AD038E009688903E7E7C4
:100E700009688901E4E78907E2E700BFFFF708FF97
:100E8000C11B494501D926E081462068C0F3810095
:100E90000228F3D126E000BFFFF7FAFEC11B494547
:100EA00001D918E081462068C0F381000328F3D1FE
:100EB00018E000BFFFF7ECFEC11B49450BD82068C6
:100EC000C0F381000128F5D10CE022E0FFF7E0FE3D
:100ED000C11B494502D90320BDE8F087206810F006
:100EE0000C0FF3D1D8F80010404601F00101B142D7
:100EF00011D9012E03D1016841F00401016001689C
:100F000021F0010131430160006800F00100B042AE
:100F100001D00120E0E72878400705D52068E9687E
:100F200020F4E060084320602878000706D5206898
:100F3000296920F4605040EAC100206000F038F8D0
:100F40002168084AC1F30311515CC8400649086092
:100F500006480068BDE8F047FFF7B8BE003C024015
:100F600008380240052D00083C0000203000002019
:100F70000448054900680968044AC1F30221515C2C
:100F8000C84070473C00002008380240152D00087A
:100F90000448054900680968044AC1F3C221515C4C
:100FA000C84070473C00002008380240152D00085A
:100FB00070B5154D2968154801F00C02042A0CD0B3
:100FC000134C082A0AD00C2A0AD0281F0068C0F344
:100FD00042314FF40040491C884070BD204670BD2E
:100FE0000C4AC1F38343D35CC1F381522968521C7C
:100FF000C90302D5A3FB040101E0A3FB0001002308
:10100000FFF794F870BD0000083802400024F40097
:1010100000366E01FC2C00082DE9F84F04007DD04D
:10102000FC480168006801F00C0700F48036207865
:10103000F94DC00741D0082F12D00C2F02D1B6F5C0
:10104000803F0DD06068012811D008B1052818D064
:10105000286820F480302860286820F4802009E087
:101060002868800329D560680028D8D025E0286842
:1010700040F480302860606890B1FFF709FE804638
:101080000AE0286840F480202860F0E7FFF700FEBF
:10109000A0EB080064287BD828688003F6D50CE014
:1010A000FFF7F6FD804605E0FFF7F2FDA0EB080034
:1010B0006428F0D828688003F6D42078DFF85CB381
:1010C000DFF85C8380074FF001094FF0000A35D547
:1010D000042F0AD00C2F00D13EB1E068F8B1C8F857
:1010E0000090FFF7D5FD06460BE0286880070BD57A
:1010F000E068012812D107E0FFF7CAFD801B022833
:10110000C9D828688007F7D5DBF80010226921F4D8
:10111000F85141EA0221CBF800100FE077E1C8F85E
:1011200000A0FFF7B5FD064605E000BFFFF7B0FDE4
:10113000801B0228AFD828688007F7D42078C00623
:1011400074D53FB1A069E0B3C8F82090FFF7A0FDC7
:1011500006464AE02868800502D5A069002884D0A8
:10116000206ADBF800105E4601F46041884210D925
:1011700000F0A8FB0028BDD13068216A20F460404F
:1011800008433060217F306861F31F6030600FE0FA
:1011900096E0316821F4604101433160217F30687D
:1011A00061F31F603060206A00F08CFB0028A1D141
:1011B000216A4FF4004009EB513188409549096894
:1011C00000E025E0974AC1F30311515CC8409649FD
:1011D000086096480068FFF779FD00286FD125E088
:1011E000FFF756FD801B02286AD828688005F7D5CE
:1011F000DBF80010226A21F460411143CBF80010A3
:10120000227FDBF8001062F31F61CBF800100DE0C5
:10121000C8F820A0FFF73CFD064604E0FFF738FDC4
:10122000801B02284CD828688005F7D42078804E8F
:10123000000722D57F48616981B1C0F80090FFF7AF
:1012400027FD834606E000BFFFF722FDA0EB0B0061
:10125000022835D830688007F6D50EE0C0F800A027
:10126000FFF716FD834605E0FFF712FDA0EB0B002C
:10127000022825D830688007F6D4207840076DD53D
:101280006B484FF0000B10380068C0000BD4684862
:101290001038016841F08051016000684FF0010B87
:1012A00000F08050009064480168C90514D40168BA
:1012B00041F480710160FFF7EBFC009008E08DE0E5
:1012C00079E000BFFFF7E4FC0099401A642872D867
:1012D00059480068C005F5D5A06801280AD008B1B2
:1012E000052811D0306820F480703060306820F418
:1012F000806002E0306840F480703060A068A8B17F
:10130000FFF7C6FC00900DE0306840F4806030606C
:10131000F0E700BFFFF7BCFC0099411A41F28830AA
:1013200081425AD830688005F4D50EE0FFF7B0FC52
:10133000009007E0FFF7ACFC0099411A41F28830B9
:1013400081424AD830688005F4D4BBF1000F05D043
:1013500037481038016821F080510160606A58B345
:101360000C2F41D00228504605D0C8F86000FFF786
:101370008FFC044634E04746C8F86000FFF788FC5D
:10138000064604E0FFF784FC801B022825D8286865
:101390008001F7D4D4E90A1001431E48226B036888
:1013A00023F47D031A4311430160C7F86090FFF7EF
:1013B0006FFC044607E010E040E000BFFFF768FC68
:1013C000001B022809D828688001F7D536E000BF45
:1013D000FFF75EFC001B022802D90320BDE8F88F4E
:1013E00028688001F4D429E00128F7D00948006872
:1013F000A26A00F48031914209D1E26A00F47011CE
:10140000914204D1216B00F44000884216D00120A3
:10141000E4E7000008380240003802400438024087
:1014200000004742052D00083C000020300000204D
:101430003438024080064742007000400020CDE76B
:1014400010B5401EB0F1807F01D3012010BD4FF0D8
:10145000E02460610F21601700F080FD0020A06192
:1014600007202061002010BD70477047F8B5026862
:1014700004461068D168536910F00F0F4FF0000553
:1014800053D003F0010601F4907737435FD0C207D1
:1014900005D0CA0503D5226C42F00102226442073E
:1014A00005D5DA0703D0226C42F0020222648207DB
:1014B00005D5DA0703D0226C42F004022264020749
:1014C00007D501F02002324303D0226C42F008021B
:1014D0002264226C002A34D0800604D5880602D506
:1014E000204600F094FA20684069216CC0F3801017
:1014F000090700D430B3204600F071FA2068416932
:1015000049061BD5416921F040014161A06BA8B19A
:1015100058494163A06BFFF767FA002811D0A06B10
:10152000416B01B0BDE8F040084783060FD58B063C
:101530000DD52046BDE8F84000F069BA2046FFF717
:1015400094FFF8BD2046FFF790FF2564F8BD266B99
:101550002023012E52D1C60650D5CE064ED5106896
:1015600050680090506940062AD5A16B0868406811
:101570000004000CEAD0A68D8642E7D9E085886990
:10158000202818D0D06820F48070D060206841698D
:1015900021F0010141612068416921F04001416170
:1015A00084F83E3025632068C16821F01001C160D5
:1015B000A06BFFF7F4F9A08DE18D401A81B219E01C
:1015C000A08DE18D401A81B2E08D0028BED00029A7
:1015D000BCD0D06820F49070D0602068426922F0BE
:1015E0000102426184F83E3025632068C26822F01F
:1015F0001002C2602046FFF737FFF8BD05062BD565
:101600000D0629D594F83D002128F6D1A068B0F543
:10161000805F01D12069B0B1206A411C216221683C
:1016200000784860E08C401E0004000CE084E4D1A7
:101630002068C16821F08001C1602068C16841F064
:101640004001C160F8BD206A0088C0F30800506006
:10165000206A801C2062E5E74006F3D54806F1D5F4
:10166000D168204621F04001D16084F83D3000F07F
:1016700000F9F8BDCF19000870B5040004D094F843
:101680003D00002510B106E0012070BD84F83C50FB
:10169000204600F023F8242084F83D002068C1682B
:1016A00021F40051C160204600F00CFA2068016965
:1016B00021F4904101612068416921F02A014161D2
:1016C0002068C16841F40051C1602564202084F87D
:1016D0003D0084F83E00002070BD0000F0B587B0EA
:1016E000044614216846FEF76BFD264F226800234E
:1016F00025490224032507262448BA4223D10A1D7E
:10170000176847F480471760126802F48042059218
:101710000A6842F001020A60096802AA01F00101A8
:1017200005916902CDE9001482E868006946FFF777
:1017300095F9002211462520FFF716FB2520FFF71B
:1017400005FB07B0F0BD124FBA42FAD10E4A08327B
:10175000176847F400371760126802F400320592E8
:101760000A6842F001020A60096802AA01F0010158
:1017700005910C21CDE9001482E868006946FFF765
:101780006DF9DEE7003801401C38024000000240DD
:101790000044004010B504460068074988420AD159
:1017A0000648007800F02AFB2046BDE810400122E0
:1017B000024900F015BA10BD0038014000000020B9
:1017C0002DE9F843044690F83D001F4616460D46A5
:1017D00020284CD1C5B1BEB194F83C00012846D0B8
:1017E000012084F83C004FF00008C4F8408021201C
:1017F00084F83D00FFF74CFAA6848146E684A06891
:10180000B0F5805F03D004E00120BDE8F8832069D3
:1018100028B12E465FF0000584F83C800EE00026DB
:10182000FAE78021204600F0F6F9A0B9AEB116F82B
:10183000010B21684860E08C401EE084E08C4B4640
:101840004FF0000200970028EBD14FF040012046F6
:1018500000F0E1F930B10320D7E735F8020BC0F30F
:101860000800E6E7202084F83D000020CDE70220B4
:10187000CBE77047FEE700000E4810B50C49016049
:101880000D490C224968416000218160C160C0E9B6
:1018900004128161C161FFF7EFFE08B172B6FEE785
:1018A000BDE8104001220449024800F099B9000047
:1018B000003801404400002000000020FEE7FEE761
:1018C0007047000038B51C49002309681B4A11F015
:1018D000F00F23D118491C310C68E500184C03D5D2
:1018E000216801F4C0540EE00D6845F080550D608C
:1018F0000D6805F08055009524680D6804F4C05407
:1019000025F080550D60B4F5C05F07D1B0F5404FAC
:1019100004D11068012340F004001060106820F02A
:10192000010018431060106800F00100984201D0D7
:10193000012038BD002038BD08380240003C02407C
:1019400000700040704700008B008AB201460148D9
:10195000FFF736BF44000020FFF7A0B910B592B0E2
:1019600034216846FEF72CFC14210DA8FEF728FC54
:101970001548016821F4C05141F400610160012162
:10198000039102201021009000240491CDE9090464
:1019900040040B9000010C906846FFF73DFB08B136
:1019A00072B6FEE70F200D900320CDE90E041094CF
:1019B00001210DA81194FFF709FA002801D072B691
:1019C000FEE712B010BD000000700040704710B577
:1019D000406A0021C185C184FFF747FD10BD016841
:1019E000CA6822F49072CA6001684A6922F0010252
:1019F0004A61016B012904D10168CA6822F0100212
:101A0000CA60202180F83E1000210163704708B5AC
:101A100090F83E10222901D0022008BD82684FF4C0
:101A200080539A4201D1016921B1816A9A421BD047
:101A30004AB10AE00268816A5268C2F308020A8069
:101A4000816A891C08E0026972B10268526802F07A
:101A50007F020A70816A491C8162C18D491E090496
:101A6000090CC18503D019E002685268F1E70168EA
:101A7000CA6822F02002CA600168CA6822F4807233
:101A8000CA6001684A6922F001024A61202180F897
:101A90003E10016B012903D0FFF77CFE002008BD3A
:101AA000002101630168CA6822F01002CA6001685F
:101AB0000A68D20602D50A6849680091818DFFF74D
:101AC000D3FCEBE72DE9F041044600680169E268C8
:101AD00021F44051114301612169A068E269084382
:101AE0006169114322680843D16849F20C63994344
:101AF0000143D16020684169A26921F4407111431A
:101B0000416136492068884202D1FFF741FA01E07D
:101B1000FFF72EFA0246E36964203221B3F5004F45
:101B200002EBC20303EB021362682BD09200B3FBFB
:101B3000F2F5B5FBF0F5B3FBF2F66FF018077D4355
:101B400006EB8505B3FBF2F601EB0515B5FBF0F5E9
:101B5000B6FBF0F605F0F00505EB0615B3FBF2F663
:101B6000B3FBF2F2B2FBF0F27A4306EB820201EB36
:101B70000211B1FBF0F000F00F00216828448860EA
:101B8000BDE8F0815200B3FBF2F6B6FBF0F6B3FB12
:101B9000F2F7B3FBF2F56FF0180C06FB0CF607EB4F
:101BA000860601EBC606B5FBF0F5B6FBF0F62D0197
:101BB00006F0F80605EB4605B3FBF2F6B3FBF2F2CE
:101BC000B2FBF0F202FB0CF206EB820201EBC20167
:101BD000B1FBF0F000F00700CFE700000038014053
:101BE00081628285C28500210164222280F83E2024
:101BF00080F83C100168CA6842F48072CA600168CB
:101C00004A6942F001024A610068C16841F020015E
:101C1000C160002070472DE9F041984617460E46F6
:101C20000446069D1DE0681C1BD02DB1FFF730F85F
:101C3000A0EB0800A84214D92068C16821F4D07133
:101C4000C1602068416921F001014161202084F8D0
:101C50003D0084F83E00002084F83C000320BDE8ED
:101C6000F0812068006836EA000004D00020B84205
:101C7000D9D00020F3E70120F9E700000148FFF781
:101C8000F5BB000044000020FEE70000032802D955
:101C90006FF005007047034A106211700020D06198
:101CA00070470000080000202DE9FC5F0D46064645
:101CB00028446FF0050C90287CD2494C6FF0040941
:101CC0002046D4F8208042684FF0FF0A4FF0AA0B5C
:101CD0004FF0270EF7B2C6F30721B8F1000F0FD06F
:101CE0004FF6FF7000EA45032046B8F1010F007877
:101CF00016D0B8F1020F33D0B8F1030F6ED142E025
:101D0000042D6BD8F2B38DF800A08DF801B08DF8DA
:101D100002E08DF804108DF803700521684659E043
:101D200082B35B1DB3F5807F32D88DF800000320AD
:101D30008DF80100280A8DF802108DF804008DF846
:101D400003708DF805500621684600F0F1F8010A8D
:101D50008DF806108DF8070008216846626839E0A2
:101D6000032D3BD823696BB18DF800A08DF801B02D
:101D70008DF802E08DF804108DF803700522694695
:101D8000984728E017E0E768AFB1B3F5807F03D943
:101D90006FF00300BDE8FC9F4006F1B2000E114A4F
:101DA000B847012817D162692AB10E49002001F510
:101DB00080730BE012E04846ECE700BF31F810708A
:101DC00000EB060C401C23F81C7080B2A842F5D32F
:101DD00029463046904700206662DBE76046D9E737
:101DE00008000020CC00002018B103494861002001
:101DF00070476FF005007047080000202DE9FC4196
:101E00003B4C6169002955D03A49E2698854521C1B
:101E1000E261206A002630B101282FD0022865D067
:101E2000032860D162E00878552804D0521E31485A
:101E3000491CE2613CE00B2A55D30A252D4F0020B6
:101E40004FEA000317F803C05B1C6044C0B2AB420A
:101E5000F8D38B7A8342E9D14888ADF800008888AE
:101E6000ADF80200C888ADF804000889ADF8060096
:101E7000487804226946FEF737FD37E0022A32D956
:101E800048780328D2D18878401D904212D888180B
:101E90000D4630F8020C921E47BA91B2154800F078
:101EA00047F8874208D0E269691C521E1148E26176
:101EB000FEF76DF9BDE8FC81A8780F4B42080021C0
:101EC000606A0AE005EB410701EB000CB7F803700C
:101ED000491C7FBA23F81C7089B29142F2D3114693
:101EE0006269904702E0B2F5807FE3D1E661E1E705
:101EF00008000020CC000020CC01002018B10349CC
:101F00004860002070476FF005007047080000200F
:101F10000FB4054B10B503A9044A029800F000F96C
:101F200010BC5DF814FB00005128000840000020A0
:101F3000F0B5FF23084E1C46002206F5807705E029
:101F4000855C5D40735D63407C5D521C8A42F7DBBB
:101F500044EA0320F0BD0000FC2A00080907090E2E
:101F6000002804DB00F1E02080F80014704700F046
:101F70000F0000F1E02080F8141D704702E008C84F
:101F8000121F08C1002AFAD170477047002001E0F3
:101F900001C1121F002AFBD1704700002DE9FF5F2D
:101FA00082B00021DDE90430020DDDF840B00343CA
:101FB00018D044F61050A2F2FF3242431514119883
:101FC00001281FD0A5EB0B00401C5FEA000A4FF070
:101FD00000064E4FDFF83891B046504615D5CAF18D
:101FE000000413E0119801244AA3012801D16FEAEB
:101FF0000B010298119AC0E90031C0E9024206B013
:10200000BDE8F09FCBF10000DFE704460021404A25
:10201000491842EB0450CDE9001012E0E00707D068
:1020200032463B4640464946FEF747FA80468946D7
:1020300032463B4610461946FEF73FFA06460F4623
:102040006410002CEAD1DDE90401DDE90023BAF1D6
:10205000000F06DAFEF731FA42464B46FEF72DFA3C
:1020600005E0FEF79CFA42464B46FEF798FA044616
:102070000E460022284BFEF719FB03D84FF0FF3025
:10208000014607E00022254B20463146FEF76EF957
:10209000FEF7F4FA102409E0002C0ADB0A220023E0
:1020A000FEF744F8039B30321A55641E50EA0102D1
:1020B000F2D1641C039AC4F111031444119A012A49
:1020C00003D0012208430DD10AE0084304D00020C8
:1020D0004FF0110B119072E7A3EB0B056D1E0DE095
:1020E0005B4504DD4FF0000205F1010504E003DA71
:1020F0004FF00002A5F10105002AECD002981199D9
:10210000C0E90231C0E9004579E700000000144051
:102110000000F03F300000000000F0430000E03F0E
:102120002DE9FF4F95B09B468946064600250FE2F4
:10213000252877D100242746F84A0121059400E09C
:10214000044316F8013F203B01FA03F01042F7D197
:1021500030782A2811D06FF02F033078A0F13002A8
:10216000092A16D8059A44F0020402EB820203EB16
:1021700042021044761C0590EFE759F8042B0592B3
:10218000002A03DA504244F40054059044F002045B
:10219000761C30782E2816D116F8010F44F004046E
:1021A0002A280DD06FF02F023078A0F13003092BD0
:1021B00009D807EB870302EB4303C718761CF3E744
:1021C00059F8047B761C30786C280FD006DC4C283C
:1021D00017D068280DD06A2814D104E0742810D0D4
:1021E0007A280FD10DE044F400140AE044F480147E
:1021F00001E044F440147278824202D104F5801464
:10220000761C761C307866280BD013DC582877D0E3
:1022100009DC002875D04528F6D04628F4D0472898
:102220001AD19DE118E0632835D0642879D065285B
:1022300012D195E1702873D008DC6728F1D06928A5
:102240006FD06E280DD06F2806D1B5E073282CD042
:10225000752875D0782874D05A46179990476D1C08
:1022600075E1C4F30250022809D003280DD0D9F833
:10227000001004280DD00D6009F1040967E1D9F8B8
:102280000010EA17C1E90052F6E7D9F800100D80F6
:10229000F2E70D70F0E719F8041B8DF8001000202C
:1022A0008DF80100EA46012003E059F804AB4FF035
:1022B000FF3061074FF0000102D40DE008F1010189
:1022C0008846B9420FDA8045F8DB1AF80810002971
:1022D000F4D108E008F1010188468142FADB1AF8DE
:1022E00008100029F6D105985B46A0EB08072146A7
:1022F0003846179A00F094FA284400EB080507E0E6
:102300004DE029E10DE01AF8010B5A461799904764
:10231000B8F10108F7D25B4621463846179A13E117
:1023200042E00A220092C4F302524FF0000A022A4D
:1023300008D059F804CB032A4FEAEC710AD00DE01B
:1023400029E02AE009F1070121F00702F2E802C1C1
:10235000914609E00FFA8CFC4FEAEC71042A03D194
:102360004FFA8CFC4FEAEC71002907DA0A4600218B
:10237000DCF1000C61EB02012D2202E0220504D504
:102380002B228DF80420012203E0E20701D0202255
:10239000F7E7904659E00A2102E010220DE01021F3
:1023A0004FF0000A00910BE010224FF0000A44F0B9
:1023B00004040827009203E008224FF0000A00926C
:1023C000C4F30252022A05D059F804CB0021032A93
:1023D00008D009E009F1070121F00702F2E802C183
:1023E000914605E01FFA8CFC042A01D10CF0FF0C89
:1023F0004FF00008220728D5702806D0009B83F0F4
:10240000100353EA0A0305D00EE040228DF80420A1
:10241000012208E05CEA010206D030228DF8042097
:102420008DF8050002229046009B83F0080353EAD2
:102430000A030AD15CEA010201D1620705D5302204
:102440008DF804204FF001087F1E582804D034A0D6
:1024500003900EA802900DE036A0F9E753466046BF
:10246000009AFDF763FE84460398825C0298401E42
:10247000029002705CEA0100F0D1029806A9081AE5
:1024800000F1200A600702D524F4803400E001271F
:10249000574502DDA7EB0A0000E0002000EB0A012F
:1024A000009005984144401A0590E00306D45B462D
:1024B0002146179A059800F0B3F90544002706E075
:1024C00001A85A46C05D179990476D1C7F1C47456F
:1024D000F6DBE0030CD55B462146179A059800F021
:1024E0009FF9054404E030205A46179990476D1C27
:1024F0000099481E00900029F5DC08E00298029936
:102500005A460078491C0291179990476D1CBAF100
:102510000001AAF1010AF1DC65E1000009280100CF
:102520003031323334353637383961626364656649
:10253000000000003031323334353637383941420B
:10254000434445460000000000F058F90544761C5D
:10255000307800287FF4ECAD19B02846BDE8F08F44
:10256000620700D4062709F1070222F0070CFCE8F5
:102570000223E14603F000485FEA080C02D00FF2A4
:10258000702C0DE05FEA045C02D50FF2682C07E0C6
:102590005FEAC47C02D00FF2602C01E0AFF2700C55
:1025A0004FF0FF3823F00043CDF850C065280CD021
:1025B00006DC452809D046281DD047283DD13DE0FE
:1025C000662818D067287ED138E00021112F01DB62
:1025D000112000E0781CCDE9000106A90EA8FFF744
:1025E000DDFCDDE90F010E9A03910021009207F155
:1025F000010A04914DE04FF000400097CDE9011031
:1026000006A90EA8FFF7CAFCDDE90F0203920E9B94
:1026100011990022DDF80CA00093049211B9791CE5
:1026200000EB010AB7EB0A0004D4C0F1FF3007F158
:10263000010A0490AAEB0700019044E0012F00DAA0
:1026400001270021112F01DD112000E03846CDE9DE
:10265000000106A90EA8FFF7A1FCDDE90F010E9A03
:102660000391002104910092BA4621070CD40399EA
:10267000514500DA8A46BAF1010F05DD009AAAF148
:102680000101515C302908D0B84202DA10F1040F80
:1026900006DA0121CDE9011015E0AAF10101E9E70F
:1026A000002805DC049901440491AAEB000102E032
:1026B000411C514500DD8A460499401A401C019096
:1026C0004FF000400290200704D40198504501DBF0
:1026D000CDF8048000208DF84F0002980DF14F07CF
:1026E000B0F1004F25D02B200E9002984FF0020839
:1026F00000280CDA404202902D200E9007E00A21BB
:102700000298FDF7C7FD3031029007F8011DB8F1BE
:102710000001A8F10108F2DC02980028EFD1791E2F
:102720000E980870307800F0200040F0450007F85F
:10273000020D12A8C01B00F107081498007800B120
:10274000012000EB0A01019801EBE071059841447A
:10275000401A401E0590E00306D45B462146179AB6
:10276000059800F05DF805441498007818B15A46B1
:10277000179990476D1CE00324D55B462146179AB4
:10278000059800F04DF805441CE00498002807DB8C
:10279000DDE90301884203DD0098405C179901E000
:1027A000179930205A469047049805F10105401CBE
:1027B00004900198401E019004D12E205A4617998A
:1027C00090476D1CBAF10001AAF1010ADDDC05E0B9
:1027D00017F8010B5A46179990476D1CB8F1000184
:1027E000A8F10108F4DC5B462146179A0598ABE690
:1027F0002D0000002B000000200000002DE9F0411A
:10280000044600251E461746880404D405E03946D0
:102810002020B0476D1C641EF9D52846BDE8F08124
:102820002DE9F041044600251E469046C80301D517
:10283000302700E02027880404D505E041463846CB
:10284000B0476D1C641EF9D52846BDE8F081000034
:1028500013B501231A4669460248FEF7B1FF0098F6
:102860001CBD00008800002090B0FEF71FFAFFF7A3
:1028700075F87448016841F001010160006800F0DA
:1028800001000090FEF7F8FF70486F490C220160CC
:102890004FF4E131416000218160C160C0E9041260
:1028A0008161C161FEF7E8FE08B172B6FEE7502112
:1028B0000020FFF7EBF96648FFF720FB6548FFF7BC
:1028C00093FA6548FFF724FBFDF78AFF63A0FFF743
:1028D0001FFB634D63A0FFF71BFB4FF4FA70FEF77D
:1028E000ABF8DFF8848198F801000028F2D05FA0EF
:1028F000FFF70EFB00240DF118090DF1240A0DF16C
:10290000300B6FF00E0600BF05EB440737F9680F78
:10291000FDF79FFC3146FDF790FC0421FDF78DFC8F
:1029200049F82400B7F90600FDF793FC3146FDF79E
:1029300084FC4F49FDF74FFC4AF82400B7F9120018
:10294000FDF787FC3146FDF778FC4A49FDF743FC6B
:102950004BF82400641C032CD6DB98F80100444695
:10296000C00717D00898FDF782FC81468A46079871
:10297000FDF77DFC074688460698FDF778FC8DE854
:10298000800702460B463CA0FFF7C2FA607820F0B1
:10299000010060706078800717D50B98FDF767FC21
:1029A00081468A460A98FDF762FC074688460998E0
:1029B000FDF75DFC8DE8800702460B4634A0FFF76B
:1029C000A7FA607820F0020060706078400725D593
:1029D000B5F87E00FDF746FC3146FDF72EFC254993
:1029E000FDF7F9FBFDF743FC82468B460E98FDF799
:1029F0003EFC804689460D98FDF739FC06460F4699
:102A00000C98FDF734FC8DE8C00F02460B4626A05B
:102A1000FFF77EFA607820F00400607060780007AD
:102A20000CD5B5F97830B5F97620B5F9741026A033
:102A3000FFF76EFA607820F0080060700020607088
:102A400048E700001C380240004400408800002095
:102A5000491900089D080008202D000831000000D9
:102A6000CC010020320000000000002033000000F4
:102A70000000FA44000034436163633A252E336654
:102A800020252E336620252E33660D0A0000000017
:102A90006779726F3A252E336620252E33662025FE
:102AA0002E33660D0A000000616E676C653A252EB4
:102AB000336620252E336620252E336628252E33B7
:102AC00066290D0A000000006D61673A2564202523
:102AD000642025640D0A0000C0120000802500005B
:102AE000004B00000096000000E1000000C2010061
:102AF000008403000008070000100E0000C18140A0
:102B000001C0804101C0804100C1814001C08041BD
:102B100000C1814000C1814001C0804101C08041AD
:102B200000C1814000C1814001C0804100C181409D
:102B300001C0804101C0804100C1814001C080418D
:102B400000C1814000C1814001C0804100C181407D
:102B500001C0804101C0804100C1814000C181406D
:102B600001C0804101C0804100C1814001C080415D
:102B700000C1814000C1814001C0804101C080414D
:102B800000C1814000C1814001C0804100C181403D
:102B900001C0804101C0804100C1814000C181402D
:102BA00001C0804101C0804100C1814001C080411D
:102BB00000C1814000C1814001C0804100C181400D
:102BC00001C0804101C0804100C1814001C08041FD
:102BD00000C1814000C1814001C0804101C08041ED
:102BE00000C1814000C1814001C0804100C18140DD
:102BF00001C0804101C0804100C1814000C0C101CD
:102C0000C30302C2C60607C705C5C404CC0C0DCD5C
:102C10000FCFCE0E0ACACB0BC90908C8D81819D9CC
:102C20001BDBDA1A1EDEDF1FDD1D1CDC14D4D515FC
:102C3000D71716D6D21213D311D1D010F03031F1EC
:102C400033F3F23236F6F737F53534F43CFCFD3D1C
:102C5000FF3F3EFEFA3A3BFB39F9F83828E8E9290C
:102C6000EB2B2AEAEE2E2FEF2DEDEC2CE42425E5BC
:102C700027E7E62622E2E323E12120E0A06061A12C
:102C800063A3A26266A6A767A56564A46CACAD6DDC
:102C9000AF6F6EAEAA6A6BAB69A9A86878B8B9794C
:102CA000BB7B7ABABE7E7FBF7DBDBC7CB47475B57C
:102CB00077B7B67672B2B373B17170B0509091516C
:102CC0009353529296565797559594549C5C5D9D9C
:102CD0005F9F9E5E5A9A9B5B99595898884849898C
:102CE0004B8B8A4A4E8E8F4F8D4D4C8C448485453C
:102CF0008747468682424383418180400304060819
:102D00000C10182030000000000000000001020339
:102D10000406070809000000000102030400000087
:102D20000D0A2A2A2A2A2A2A2A2A2A2A2A2A2A2A40
:102D30002A2A2A2A2A2A2A2A207769742D6D6F7452
:102D4000696F6E206E6F726D616C206578616D7059
:102D50006C6520202A2A2A2A2A2A2A2A2A2A2A2A6A
:102D60002A2A2A2A2A2A2A2A2A2A2A2A0D0A000054
:102D7000902D000800000020440000007C1F000887
:102D8000D42D000844000020AC0600008C1F000871
:102D90000000000000C20100FF0000000000000071
:102DA0000000000000000000000000000000000023
:102DB0000000000000000000000000000000000013
:102DC00010000000010000000000000068FF1F006C
:042DD00000000000FF
:04000005080000F5FA
:00000001FF
