:020000040800F2
:1000000030040020A1010008350300083103000876
:1000100033030008E9010008A10700080000000000
:10002000000000000000000000000000B90400080B
:10003000EB01000800000000D90300087505000866
:10004000BB010008BB010008BB010008BB010008A0
:10005000BB010008BB010008BB010008BB01000890
:10006000BB010008BB010008BB010008BB01000880
:10007000BB010008BB010008BB010008BB01000870
:10008000BB010008BB010008BB010008BB01000860
:10009000BB010008BB010008BB010008BB01000850
:1000A000BB010008BB010008BB010008BB01000840
:1000B000BB010008BB010008BB010008BB01000830
:1000C000BB010008BB010008BB010008BB01000820
:1000D000BB010008BB010008D5050008BB010008F2
:1000E000BB010008BB010008BB010008BB01000800
:1000F000BB010008BB010008BB010008BB010008F0
:10010000BB010008BB010008BB010008BB010008DF
:10011000BB010008BB010008BB010008BB010008CF
:10012000BB010008BB010008BB010008BB010008BF
:10013000BB010008BB010008BB010008BB010008AF
:10014000BB010008BB010008BB010008BB0100089F
:10015000BB010008BB010008BB010008BB0100088F
:10016000BB010008BB010008BB010008BB0100087F
:10017000BB010008BB010008BB010008BB0100086F
:10018000BB010008BB010008DFF810D000F01AF82E
:100190000048004719080008AFF300803004002031
:1001A0000648804706480047FEE7FEE7FEE7FEE711
:1001B000FEE7FEE7FEE7FEE7FEE7FEE7790500085B
:1001C00089010008064C074D06E0E06840F0010395
:1001D00094E8070098471034AC42F6D3FFF7D8FFF5
:1001E0004008000860080008FEE7704770B586B058
:1001F0000121084600F0F2F80121480400F0FCF863
:10020000224E07220321304600F082F80722022105
:10021000304600F07DF800248DF8164001208DF85E
:10022000170002258DF81450042104918DF8155003
:1002300004A9304600F02EF88DF8145008200490E0
:1002400004A9304600F026F84FF4E1300090ADF8F4
:100250000440ADF80640ADF80840ADF80C400C2065
:10026000ADF80A000A4C6946204600F037FA00F063
:1002700062F8012240F22551204600F013FA0121D4
:10028000204600F0E3F906B070BD00000000024017
:10029000004400402DE9F041002201274FF0030CFB
:1002A00007FA02F50B682B40AB422CD106685300CD
:1002B0000CFA03F4A64306600E79D0F800809E4045
:1002C00046EA080606600E79012E01D0022E12D1F0
:1002D0008668A64386604E79D0F808809E4046EA3C
:1002E000080686604668AE43466045688E7996404B
:1002F000B6B235434560C568A543C560CC799C401E
:10030000C3681C43C460521C102AC9D3BDE8F081E5
:1003100010B54B07DB0E9A40C90800EB8100016A5B
:100320000F249C40A1430162016A1143016210BD88
:10033000FEE7FEE7704708B54FF4C06000F042F8F2
:1003400026208DF8000001208DF801008DF80200B4
:100350008DF80300684600F001F808BD30B50F23A2
:10036000C27801250178002A1FD0154A126802F4CC
:10037000E062C2F5E062C2F30722C2F10404D34096
:100380004278A24084781C401443220101F1E0210C
:1003900081F80024007800F01F018D4040098000A2
:1003A00000F1E020C0F8005130BD01F01F00854091
:1003B0004809800000F1E020C0F8805130BD000005
:1003C0000CED00E002490843024908607047000054
:1003D0000000FA050CED00E070470000054A002916
:1003E00003D01168014311607047116881431160A7
:1003F0007047000030380240054A002903D01168D8
:10040000014311607047116881431160704700001B
:100410004038024070B5244B196801F00C01234CA0
:1004200000291ED0224E04291DD008291DD00460A9
:10043000196801F0F00109091E4A545C0168E140A5
:1004400041601C6804F4E054A40A145D21FA04F429
:1004500084601B6803F460435B0BD25CD140C160D5
:1004600070BD0460E4E70660E2E70F4A121F1168FE
:10047000C1F38055116801F03F0135B1B6FBF1F1D0
:100480001468C4F38814614305E0B4FBF1F1146807
:10049000C4F3881461431268C2F30142521C520033
:1004A000B1FBF2F10160C3E7083802400024F40018
:1004B00040787D0100000020704700000CB500224C
:1004C000019200922749086840F4803008604FF498
:1004D000A043086800F4003000900198401C01908F
:1004E000009810B901989842F3D10868800302D5AA
:1004F0000120009000E000920098012831D11948B5
:100500004030026842F0805202601748026842F4AC
:10051000404202601348083002680260026842F4F8
:1005200000420260026842F4A0520260021F0F4BB8
:1005300013600A6842F080720A600A689201FCD572
:100540000B4A40F205711160016821F0030101605E
:10055000016841F0020101600168C1F381010229D3
:10056000FAD10CBD00380240007000401954400719
:10057000003C02407047000010B51248016841F489
:10058000700101601048016841F0010101600E4AEC
:1005900000210832116002680C4B1A400260031DF2
:1005A0000B4A1A60026822F48022026006480C306E
:1005B0000160FFF783FF03494FF000608039086056
:1005C00010BD000088ED00E000380240FFFFF6FE9D
:1005D0001030002410B5184C40F22551204600F090
:1005E00041F8002818D0204600F0D6F813490870CA
:1005F0000A781348552A01D1026872B10368114A7A
:100600007BB103680A2B0CD0097803681A4402F8FE
:10061000011C0168491C016010BD0168491C016092
:1006200010BD097803681A4402F8011C002101601A
:1006300005490120087010BD004400401000002052
:100640001C0000202000002012000020002904D0FF
:10065000818941F4005181817047818921F40051E1
:100660008181704770B5002440F66A12C1F34213CD
:1006700001F01F05012606FA05F2012B0CD0022B12
:100680000DD0838A1340090A8E40008830400BB198
:1006900000B10124204670BD83891340F3E7038A2B
:1006A0001340F0E710B540F66A13C1F3421301F0AE
:1006B0001F040121A140012B07D0022B07D01430C9
:1006C0003AB102680A43026010BD0C30F8E71030FE
:1006D000F6E702688A43026010BD00007FB5044659
:1006E0000D46208A20F44051E88808432082A089E2
:1006F00041F20C618843A9882A8911436A8902431F
:100700001143A181A08A20F44071A8890843A082E6
:100710006846FFF77FFE1E48844202D01D4884428F
:1007200001D1039800E00298A189090408D500EBE3
:10073000C00101EB001029684900B0FBF1F007E0AF
:1007400000EBC00101EB001029688900B0FBF1F05B
:100750006422B0FBF2F109010B096FF018056B433D
:1007600000EB8300A3891D044FF0320307D503EB90
:10077000C000B0FBF2F000F00700084306E003EB16
:100780000010B0FBF2F000F00F00084320817FBDA5
:1007900000100140001401408088C0F30800704739
:1007A000FEE702E008C8121F08C1002AFAD170470C
:1007B0007047002001E001C1121F002AFBD17047E1
:1007C0001348417882781144C27803791A4411445D
:1007D0004279114482791144C2791144027A114458
:1007E0000C4AA831C9B25170437A8B420ED141787C
:1007F000837841EA03215180C178037941EA0321DA
:1008000091804179807941EA0020D08070470000D2
:100810002000002012000020074C00252570FFF763
:10082000E5FC064E20780028FCD03078532801D112
:10083000FFF7C6FF2570F5E712000020200000201A
:10084000600800080000002020000000A207000847
:10085000800800082000002010040000B2070008F3
:100860000000000001020304010203040607080956
:100870000000000000000000000000000000000078
:040000050800018965
:00000001FF
