:020000040800F2
:100000006007002001010008D10B00088D040008E2
:10001000CD0B0008D1020008DD110008000000002F
:100020000000000000000000000000005D0D00085E
:100030006D03000800000000450C0008710E000868
:100040001B0100081B0100081B0100081B01000820
:100050001B0100081B0100081B0100081B01000810
:100060001B0100081B0100081B0100081B01000800
:100070001B0100081B0100081B0100081B010008F0
:100080001B0100081B0100081B0100081B010008E0
:100090001B0100081B0100081B0100081B010008D0
:1000A0001B0100081B0100081B0100081B010008C0
:1000B0001B0100081B0100081B0100081B010008B0
:1000C0001B0100081B0100081B0100081B010008A0
:1000D0001B010008050F00081B0100088D0F000818
:1000E0001B0100081B0100081B010008DFF80CD0F1
:1000F00000F0DCF800480047DD120008600700202F
:100100000648804706480047FEE7FEE7FEE7FEE7B1
:10011000FEE7FEE7FEE7FEE7FEE7FEE7750E0008F6
:10012000ED00000880EA010210B502F00043400033
:1001300022D04A001FD0010E01EB1261C0F356001D
:10014000C2F3560240F4000042F40002A0FB022079
:1001500000047F39140400D0401C50EA124001D43E
:100160004000491EC2B20C0604EBD010401C4008EF
:10017000802A02D003E0002010BD20F001000029F9
:1001800000DA0020184310BD30B480EA010202F00A
:10019000004530F0004221F0004013D090B1C30D73
:1001A000D40DC2F31601C0F31600E41A41F40001A5
:1001B00040F400027D34914201D3641C00E0490008
:1001C000002C02DA30BC002070474FF400000023FE
:1001D000914201D3891A034340084FEA4101F7D104
:1001E00051B1914202D14FF0004105E002D24FF0EF
:1001F000010101E06FF0010103EBC450284430BC61
:1002000000F01DB8C10F80EAE0700844CA079623C9
:10021000002100F01DB820F00040C10DC0F3160011
:1002200040F400007F2901DA00207047962903DCA2
:10023000C1F19601C840704796398840704700293F
:10024000A8BF7047401C490008BF20F0010070475C
:1002500010B4B0FA80FC00FA0CF050EA010404BFBC
:1002600010BC704749B1CCF1200421FA04F411FA12
:100270000CF118BF012121430843A3EB0C01CB1D56
:100280004FEA00614FEA102042BF002010BC7047C7
:1002900000EBC35010440029A4BF10BC7047401CA1
:1002A000490008BF20F0010010BC7047064C074D04
:1002B00006E0E06840F0010394E807009847103436
:1002C000AC42F6D3FFF716FFA4C00008C4C0000874
:1002D00000BFFEE710B50446204600F0FBFD10BD50
:1002E0001D490A780978491C1B4B19701B49885411
:1002F0000978552903D000211A4611707047164914
:1003000009780B2900DAF9E714494978512904D012
:1003100052290AD0532918D10FE011490F4A921CD3
:1003200013680B6052684A600FE00E490B4A921C3A
:1003300013680B6052684A6007E00B49074A921C39
:1003400013680B6052684A6000BF00BF0021024A78
:10035000117000BFD2E700003C00002060000020C8
:10036000240000202C0000203400002070472DE9DC
:10037000F04102460025002600200023002400272B
:1003800091F803C00CF00F0591F803C00CF0100CAD
:10039000BCF1000F03D091F802C04CEA050591F8BA
:1003A00000C0BCF1000F31D0146800202BE04FF0EA
:1003B000010C0CFA00F3B1F800C00CEA03069E42EF
:1003C00020D183004FF00F0C0CFA03F7BC4305FA61
:1003D00003FC4CEA040491F803C0BCF1280F06D1D9
:1003E0004FF0010C0CFA00FCC2F814C00AE091F8BE
:1003F00003C0BCF1480F05D14FF0010C0CFA00FC12
:10040000C2F810C0401C0828D1D31460B1F800C055
:10041000BCF1FF0F34DD546800202EE000F1080C21
:100420004FF0010808FA0CF3B1F800C00CEA03061B
:100430009E4221D183004FF00F0C0CFA03F7BC430E
:1004400005FA03FC4CEA040491F803C0BCF1280F40
:1004500005D100F1080C08FA0CF8C2F8148091F8E4
:1004600003C0BCF1480F07D100F1080C4FF00108A0
:1004700008FA0CF8C2F81080401C0828CED354604B
:10048000BDE8F081416170470161704700BFFEE740
:1004900010B586B00446012144F2040000F0E4FBEC
:1004A0004FF40070ADF8140018208DF817000320E9
:1004B0008DF8160005A92248FFF759FF4FF4806018
:1004C000ADF8140004208DF8170005A91C48FFF7AB
:1004D0004EFF01940020ADF80800ADF80A00ADF819
:1004E0000C00ADF810000C20ADF80E0001A9154865
:1004F00000F004FE002240F22771124800F0D8FDFF
:10050000012240F225510F4800F0D2FD40210D4854
:1005100000F080FD01210B4800F094FD25208DF8AE
:10052000000001208DF8010007208DF80200012055
:100530008DF80300684600F04DFB06B010BD0000CA
:10054000000801400038014010B586B00446012182
:10055000284800F079FB4FF48060ADF814001820B3
:100560008DF8170003208DF8160005A92248FFF723
:10057000FEFE4FF40060ADF8140004208DF8170063
:1005800005A91D48FFF7F3FE01940020ADF808000F
:10059000ADF80A00ADF80C00ADF810000C20ADF875
:1005A0000E0001A9154800F0A9FD002240F22771B4
:1005B000124800F07DFD012240F225510F4800F065
:1005C00077FD40210D4800F025FD01210B4800F08A
:1005D00039FD27208DF8000001208DF8010008204A
:1005E0008DF8020001208DF80300684600F0F2FA51
:1005F00006B010BD0800040000080140004800409B
:100600002DE9F04107460C4615461E462A2000F00B
:10061000A3FA384600F090FA284600F08DFA2B2015
:1006200000F09AFA04F1220188B200F085FA06F18E
:10063000220188B200F080FA2C2000F08DFABDE88B
:10064000F08170B504460D4616462B4622462946D3
:100650002046FFF7D5FF304600F06EFA70BD2DE959
:10066000F04706460F4614461D46DDF820A0681EDA
:1006700083B2601E82B239463046FFF7C1FFB846EA
:100680000EE0B14606E0504600F056FA09F10100CE
:100690001FFA80F9A145F6DB08F101001FFA80F886
:1006A000A845EEDBBDE8F08708B50121042000F085
:1006B000DBFA3F20ADF8000010208DF80300032086
:1006C0008DF8020069460448FFF751FE3F210248B9
:1006D000FFF7DAFE08BD00000008014010B5FFF783
:1006E000E3FF04216A48FFF7CDFE1E2000F0C2FDA3
:1006F00004216748FFF7C8FE642000F0BBFD2021FD
:100700006348FFF7C1FE642000F0B4FD112000F043
:1007100023FA362000F020FA702000F016FA3A2072
:1007200000F01AFA052000F010FAB22000F014FAD6
:100730000C2000F00AFA0C2000F007FA002000F06C
:1007400004FA332000F001FA332000F0FEF9B7205C
:1007500000F002FA352000F0F8F9BB2000F0FCF9B7
:10076000352000F0F2F9C02000F0F6F92C2000F05E
:10077000ECF9C22000F0F0F9012000F0E6F9C32006
:1007800000F0EAF9132000F0E0F9C42000F0E4F9E9
:10079000202000F0DAF9C62000F0DEF90F2000F08A
:1007A000D4F9D02000F0D8F9A42000F0CEF9A1208F
:1007B00000F0CBF9D62000F0CFF9A12000F0C5F968
:1007C000E02000F0C9F9F02000F0BFF9002000F0AF
:1007D000BCF9042000F0B9F9042000F0B6F90420B7
:1007E00000F0B3F9052000F0B0F9292000F0ADF9D0
:1007F000332000F0AAF93E2000F0A7F9382000F0DD
:10080000A4F9122000F0A1F9122000F09EF928208E
:1008100000F09BF9302000F098F9E12000F09CF9FD
:10082000F02000F092F9072000F08FF90A2000F084
:100830008CF90D2000F089F90B2000F086F90720D3
:1008400000F083F9282000F080F9332000F07DF9D2
:100850003E2000F07AF9362000F077F9142000F0FD
:1008600074F9142000F071F9292000F06EF932209B
:1008700000F06BF9212000F06FF9112000F06CF905
:10088000782000F0F7FC292000F066F910BD000088
:10089000000801402DE9FF5F80468A4617469B46C7
:1008A0000F9D00200290CDF80080284605EBD07106
:1008B000C1F347042046E21704EB5272D2102146DE
:1008C000E31704EB5373DB10A4EBC3030BB1012359
:1008D00000E000231A446A4392B20192A7F120007B
:1008E000C7B20AEB0500401E83B208EB0400401EAD
:1008F00082B251464046FFF783FE002669E00C2D88
:1009000007D107EB4700354901EB8000805D03907C
:100910001BE0102D05D1324800EB0710805D0390DD
:1009200013E0182D07D107EB47002E4901EB00100B
:10093000805D039009E0202D05D12B4800EB871046
:10094000805D039001E0BDE8FF9F4FF000093AE0B1
:100950001098C8B9012000FA09F00399084018B1AD
:10096000584600F0E9F802E00E9800F0E5F8029829
:10097000401CC0B20290029890FBF4F104FB1100FD
:10098000E8B90020029021E0012000FA09F0039963
:10099000084020B15A4651464046FFF752FE08F142
:1009A00001001FFA80F80098A8EB0000A04206D1D1
:1009B000DDF800800AF101001FFA80FA06E009F173
:1009C000010000F0FF09B9F1080FC1DB00BF701C86
:1009D00086B20198864292DB00BFB4E70817000890
:1009E0007C1B00086C2100083C3300082DE9FF4FF8
:1009F00085B0074690461C46DDE91396304606EB67
:100A0000D071C1F3470B21494046FFF78BFB0390A0
:100A1000FFF701FC80B20490002531E0601B401E0E
:100A2000C1B20A2000F04CFE0499B1FBF0F00A219B
:100A3000B0FBF1F201FB120AA01EA84210D1002067
:100A4000A11E01FB0B71CDE90096029088B22E2207
:100A5000129B0699FFF71EFF681CC5B2601CC4B24A
:100A600000200AF13001CAB205FB0B71CDE90096F6
:100A7000029088B2129B0699FFF70CFF681CC5B262
:100A8000A542CBDB09B0BDE8F08F00000000C842F2
:100A90002DE9F05F0746884615461E46DDF828908A
:100AA000002408EB0600401E83B27819401E82B273
:100AB00041463846FFF7A4FDA24618E04FF0000B70
:100AC0000FE019F8140000F040F8012101EB440197
:100AD00019F8010000F039F8641C0BF101001FFA4D
:100AE00080FBB345EDDB0AF101001FFA80FAAA454D
:100AF000E4DBBDE8F09F2DE9FE4F06460F461446A5
:100B00009846DDE90D5ADDF8309010E0CDE9015A44
:100B1000CDF800902278434639463046FFF7BAFEBA
:100B2000284605EBD07106EB61018EB2641C20787B
:100B30000028EBD1BDE8FE8F10B50446201200F06E
:100B40001BF8E0B200F018F810BD10B504462046BE
:100B500000F012F810BD000010B504460821054849
:100B6000FFF790FC204600F007F808210148FFF746
:100B70008BFC10BD0008014070B5044610211248DE
:100B8000FFF780FC002517E001210F48FFF77AFCF2
:100B900004F0800020B102210B48FFF775FC03E050
:100BA00002210948FFF76EFC01210748FFF76CFCA2
:100BB0006006040E681CC5B2082DE5DB1021024852
:100BC000FFF762FC70BD00000008014000BFFEE7B7
:100BD0007047000070B5002100230F22C47804B3D1
:100BE000154C246804F4E064C4F5E064210AC1F102
:100BF0000403CA40447804FA03F184781440214382
:100C000009010E4C0678A155047804F01F05012453
:100C1000AC4005786D11AD0005F1E025C5F8004147
:100C200009E0047804F01F050124AC40044D067867
:100C3000761145F8264070BD0CED00E000E400E0C0
:100C400080E100E07047000029B1064AD269024302
:100C5000044BDA6104E0034AD2698243014BDA6152
:100C6000704700000010024029B1064A9269024311
:100C7000044B9A6104E0034A92698243014B9A61F2
:100C8000704700000010024030B50021002200240F
:100C900000232D4D6D6805F00C0121B1042905D00C
:100CA000082923D105E0294D056022E0274D056084
:100CB0001FE0254D6D6805F47012234D6D6805F435
:100CC0008034022505EB92421CB9214D5543056045
:100CD0000BE01D4D6D6805F400351DB11C4D5543ED
:100CE000056002E0194D5543056002E0174D0560AF
:100CF00000BF00BF144D6D6805F0F0010909154DE6
:100D00006B5C0568DD4045600F4D6D6805F4E06182
:100D1000090A104D6B5C4568DD4085600A4D6D68C1
:100D200005F46051C90A0B4D6B5C4568DD40C56038
:100D3000054D6D6805F44041890B074D6B5CC56836
:100D4000B5FBF3F5056130BD0010024000127A00DA
:100D500000093D004100002051000020704710B5FF
:100D600000F002F810BD00000CB5002001900090CA
:100D70003348006840F480303149086000BF304893
:100D8000006800F4003000900198401C0190009829
:100D900018B90198B0F5A06FF1D12948006800F4A6
:100DA000003010B10120009001E000200090009878
:100DB000012843D12348006840F010002149086011
:100DC0000846006820F0030008600846006840F00C
:100DD000020008601A48406819494860084640689F
:100DE00048600846406840F48060486008464068B3
:100DF00020F47C1048600846406840F4E8104860E1
:100E00000846006840F08070086000BF0C48006829
:100E100000F000700028F9D00948406820F0030075
:100E2000074948600846406840F00200486000BF3B
:100E30000348406800F00C000828F9D10CBD000000
:100E40000010024000200240042808D14FF0E021A9
:100E5000096941F004014FF0E022116107E04FF011
:100E6000E021096921F004014FF0E022116170478F
:100E70007047000010B51348006840F001001149A8
:100E8000086008464068104908400E494860084616
:100E900000680E4908400B4908600846006820F4C5
:100EA000802008600846406820F4FE0048604FF447
:100EB0001F008860FFF753FF4FF00060044908608F
:100EC00010BD0000001002400000FFF8FFFFF6FE1A
:100ED00008ED00E010B50446074801780078401C92
:100EE000054A107005484454012240F22771044815
:100EF00000F0DEF810BD0000400000205A02002083
:100F00000048004010B540F227711C4800F0A6F8D8
:100F1000E0B11B4802780078401C194B1870194842
:100F2000815C164800F056F9154800781649097892
:100F3000884205D1002240F22771104800F0B8F82D
:100F400040F227710D4800F06EF810E040F2255194
:100F50000A4800F083F850B10849091D0988C8B251
:100F6000FFF7B8F940F22551044800F05CF84FF45F
:100F70005871024800F057F810BD000000380140D9
:100F80003D0000205A0100203E00002010B540F234
:100F900027711C4800F062F8E0B11B480278007825
:100FA000401C194B18701948815C164800F012F962
:100FB00040F22771134800F036F8134800781449BE
:100FC0000978884217D1002240F227710D4800F0BD
:100FD0006FF810E040F225510A4800F03FF850B198
:100FE0000849091D0988C8B2FFF77AF940F225516E
:100FF000044800F018F84FF45871024800F013F854
:1010000010BD0000004800403F0000205A020020B0
:101010004000002001F40072B2F5007F00D100BF53
:10102000CA430280704710B50022002340F66A14BC
:10103000A14200D100BF0A1201249440A3B2DC43B4
:10104000048010BD21B1828942F40052828104E003
:1010500082894DF6FF731A408281704770B502464F
:10106000002400230025002040F66A16B14200D17A
:1010700000BFC1F3421501F01F03012606FA03F376
:10108000012D02D19689334006E0022D02D1168A45
:10109000334001E0968A33400C12012606FA04F42C
:1010A0001688344013B10CB1012000E0002070BD5F
:1010B000F0B50346002400260025002040F66A17FC
:1010C000B94200D100BF1846C1F3421401F01F0617
:1010D000012707FA06F5012C01D10C3004E0022C9F
:1010E00001D1103000E014301AB107682F430760B7
:1010F00002E00768AF430760F0BD00002DE9F0474C
:1011000086B005460E460024A24600BFA146002731
:10111000B08900B100BF2F462C8A4CF6FF70044006
:10112000F08804432C82AC894EF6F3100440B0885A
:1011300031890843718908430443AC81AC8A4FF676
:10114000FF400440B0890443AC8201A8FFF79CFD36
:101150001F48874202D1DDF810A001E0DDF80CA0A5
:10116000A88900F4004040B10AEBCA0000EB0A1065
:1011700031684900B0FBF1F807E00AEBCA0000EB68
:101180000A1031688900B0FBF1F86420B8FBF0F078
:1011900004012009642101FB1089A88900F40040A2
:1011A00040B1322000EBC900B0FBF1F000F00700C5
:1011B000044308E0322000EB09106421B0FBF1F099
:1011C00000F00F0004432C8106B0BDE8F08700005A
:1011D00000380140C1F308028280704700BFFEE77B
:1011E000014A024900F013B8C11200085C00002057
:1011F00002E008C8121F08C1002AFAD170477047E0
:10120000002001E001C1121F002AFBD170472DE927
:10121000F04116460F460446002503E03946B04724
:10122000641C6D1C20780028F8D12846BDE8F081A8
:1012300010B56FF00400FFF707FE0A4800680A497E
:10124000B0FBF1F0094908700846007800EB400156
:10125000C1EBC0104FF6FF7101EAC00004490880DD
:1012600010BD00000000002000127A00560000208F
:10127000580000200146114A12884A434FF0E023EB
:101280005A6100229A611A46126942F001021A61FB
:1012900000BF4FF0E022106900F001021AB100F423
:1012A0008032002AF5D04FF0E022126922F00102CC
:1012B0004FF0E0231A6100229A6170475800002025
:1012C00000BF054A128802F04002002AF9D0C2B2DB
:1012D000014B1B1D1A807047003801400EB50024D9
:1012E000FFF7A6FF4FF41650FFF7D2F84FF4165051
:1012F000FFF72AF94FF47A70FFF7BCFF4FF47A70CA
:10130000FFF7B8FFFFF7EAF90020AC234FF4A07213
:1013100001460090FFF7A3F90020C549086010219D
:10132000CDE900014FF6FF73C2A2052102901420FF
:10133000FFF7E1FB00201021CDE900014FF6FF731C
:10134000BEA2142102900846FFF7D5FB0020102111
:10135000CDE900014FF6FF73BAA2232102901420B9
:10136000FFF7C9FB00201021CDE900014FF6FF7304
:10137000B6A2322102901420FFF7BDFB00201021FD
:10138000CDE900014FF6FF73B2A241210290142073
:10139000FFF7B1FB00201021CDE900014FF6FF73EC
:1013A000AEA2502102901420FFF7A5FB00201021CF
:1013B000CDE900014FF6FF73AAA25F21029014202D
:1013C000FFF799FB00201021CDE900014FF6FF73D4
:1013D000A6A26E2102901420FFF78DFB00201021A1
:1013E000CDE900014FF6FF73A2A27D2102901420E7
:1013F000FFF781FB1AE1601CC4B20A2C09DD00244E
:101400009E4800F068F90A20FFF734FF9C4800F07E
:1014100062F99CA0FFF7E4FEA449B1F90000FEF7D1
:10142000F1FE07464FF08E41FEF7AEFE06464FF046
:101430008341FEF777FE0546102000214FF6FF722C
:101440000523CDE9002102902A4619466420FFF7C2
:10145000CDFA9649B1F90200FEF7D4FE07464FF0E7
:101460008E41FEF791FE06464FF08341FEF75AFE8D
:101470000546102000214FF6FF720523CDE900211B
:1014800002902A4614216420FFF7B0FA8749B1F987
:101490000400FEF7B7FE07464FF08E41FEF774FEDC
:1014A00006464FF08341FEF73DFE05461020002121
:1014B0004FF6FF720523CDE9002102902A46232131
:1014C0006420FFF793FA0A20FFF7D4FE7849B1F9B8
:1014D0000000FEF797FE07464FF08E41FEF754FEE0
:1014E00006467449FEF71EFE0546102000214FF601
:1014F000FF720523CDE9002102902A4632216420A3
:10150000FFF774FA6A49B1F90200FEF77BFE07465D
:101510004FF08E41FEF738FE06466649FEF702FEA2
:101520000546102000214FF6FF720523CDE900216A
:1015300002902A4641216420FFF758FA5C49B1F92C
:101540000400FEF75FFE07464FF08E41FEF71CFEDB
:1015500006465849FEF7E6FD0546102000214FF6E5
:10156000FF720523CDE9002102902A465021642014
:10157000FFF73CFA0A20FFF77DFE4F49B1F9000062
:10158000FEF740FE07464FF08E41FEF7FDFD064692
:101590004A49FEF7C7FD0546102000214FF6FF72AD
:1015A0000523CDE9002102902A465F216420FFF740
:1015B0001DFA4149B1F90200FEF724FE07464FF03B
:1015C0008E41FEF7E1FD06463C49FEF7ABFD0546C0
:1015D000102000214FF6FF720523CDE90021029073
:1015E0002A466E216420FFF701FA3349B1F904005D
:1015F000FEF708FE07464FF08E41FEF7C5FD064692
:101600002E49FEF78FFD0546102000214FF6FF7290
:101610000523CDE9002102902A467D216420FFF7B1
:10162000E5F90A20FFF726FE00F062F8E3E6000085
:10163000BC0121426163635F780000006163635F06
:10164000790000006163635F7A0000006779726F60
:101650005F7800006779726F5F7900006779726F59
:101660005F7A0000616E676C655F7800616E676C21
:10167000655F7900616E676C655F7A001700002016
:10168000140000202D2D2D2D2D2D2D2D2D2D2D2D0A
:101690002D2D2D2D2D2D2D2D2D2D2D2D2D2D2D2D7A
:1016A0002D2D2D2D2D2D2D0D0A00000024000020A4
:1016B0002C0000200000FA443400002000003443D5
:1016C00010B50246012000E050430B00A1F10104D7
:1016D000E1B2F9D110BD70B50546002404E0285DE3
:1016E000FFF7F8FB601CC4B2032CF8DB70BD0000F0
:1016F00008B5044878231A461A210090C820FFF73D
:10170000C7F908BD245000080000000000000000D8
:1017100000000000000004040404040000040000B1
:1017200014140A00000000000000000000000A0A73
:101730001F0A0A1F0A0A000000040E1505060C14F1
:10174000150E0400000012150D152E2C2A12000093
:101750000000040A0A3615152916000002020100CD
:101760000000000000000000100808040404040445
:10177000080810000204040808080808040402000D
:1017800000000004150E0E15040000000000000803
:10179000083E0808000000000000000000000000F3
:1017A0000202010000000000003F000000000000F5
:1017B00000000000000000000002000000201010E7
:1017C000080804040202010000000E111111111199
:1017D000110E00000000040604040404040E0000BE
:1017E00000000E1111080402011F000000000E117C
:1017F000100C1010110E00000000080C0C0A091F3C
:10180000081C000000001F01010F1110110E000044
:1018100000000C12010D1311110E000000001E102B
:10182000080804040404000000000E11110E111138
:10183000110E000000000E1111191610090600000B
:101840000000000004000000000400000000000090
:101850000004000000040400000010080402020458
:1018600008100000000000003F003F0000000000E2
:1018700000000204081010080402000000000E110D
:10188000110804040004000000001C22292D2D1D55
:10189000221C0000000004040C0A0A1E123300007F
:1018A00000000F12120E1212120F000000001E1183
:1018B00001010101110E000000000F12121212129C
:1018C000120F000000001F120A0E0A02121F000071
:1018D00000001F120A0E0A020207000000001C127C
:1018E00001013911120C000000003312121E1212F5
:1018F0001233000000001F0404040404041F00004D
:1019000000003E0808080808080809070000371208
:101910000A060A1212370000000007020202020241
:10192000223F000000003B1B1B1B15151535000056
:1019300000003B1216161A1A1217000000000E11B2
:1019400011111111110E000000000F12120E0202EF
:101950000207000000000E1111111117190E1800D6
:1019600000000F12120E0A121237000000001E11A2
:1019700001060810110F000000001F1504040404E4
:10198000040E00000000331212121212120C00009A
:1019900000003312120A0A0C04040000000015159E
:1019A00015150E0A0A0A000000001B0A0A04040AA0
:1019B0000A1B000000001B0A0A0A0404040E0000AF
:1019C00000001F0908040402121F00001C04040484
:1019D0000404040404041C000002020404040808B3
:1019E000081010000E0808080808080808080E006B
:1019F000040A0000000000000000000000000000D9
:101A0000000000000000003F020400000000000091
:101A10000000000000000000000C121C123C00003E
:101A200000030202020E1212120E0000000000005B
:101A3000001C1202120C000000181010101C1212D0
:101A4000123C000000000000000C121E021C0000EE
:101A500000182404041E0404041E000000000000FA
:101A6000003C120C021C221C00030202020E121285
:101A7000123700000004040000060404040E0000F5
:101A800000080800000C0808080808070003020204
:101A9000021A0A060A1300000007040404040404DE
:101AA000041F000000000000000F151515150000B0
:101AB00000000000000F12121237000000000000AA
:101AC000000C1212120C000000000000000F121295
:101AD000120E020700000000001C1212121C103827
:101AE00000000000001B06020207000000000000CA
:101AF000001E020C101E000000000004041E04045E
:101B0000041C000000000000001B1212123C000028
:101B100000000000001B0A0A04040000000000008E
:101B20000015150E0A0A000000000000001B0A0440
:101B30000A1B000000000000003312120C0804030E
:101B400000000000001E0804041E00001808080819
:101B5000080C0808080818000808080808080808F9
:101B60000808080806040404040804040404060021
:101B70001609000000000000000000000000000046
:101B8000000000000000000000000000000000084D
:101B900008080808080800001818000000486C240D
:101BA00012000000000000000000000000000024FF
:101BB00024247F1212127F12121200000000081C4F
:101BC0002A2A0A0C1828282A2A1C080800000022A1
:101BD000251515152A585454542200000000000CF5
:101BE0001212120A76252911916E000000060604D1
:101BF0000300000000000000000000000040201072
:101C00001008080808080810102040000002040806
:101C10000810101010101008080402000000000046
:101C200008086B1C1C6B0808000000000000000086
:101C3000080808087F0808080800000000000000E5
:101C40000000000000000000060604030000000081
:101C500000000000FE000000000000000000000086
:101C600000000000000000000606000000008040A8
:101C70004020201010080804040202000000001890
:101C8000244242424242424224180000000000081E
:101C90000E08080808080808083E00000000003C7C
:101CA0004242422020100804427E00000000003C16
:101CB0004242201820404042221C00000000002028
:101CC0003028242422227E20207800000000007E7C
:101CD0000202021A26404042221C00000000003886
:101CE0002402021A26424242241800000000007E0C
:101CF0002222101008080808080800000000003C14
:101D00004242422418244242423C00000000001893
:101D10002442424264584040241C0000000000005D
:101D20000000181800000000181800000000000053
:101D30000000000800000000000808040000004047
:101D400020100804020408102040000000000000D9
:101D500000007F0000007F00000000000000000283
:101D60000408102040201008040200000000003C7D
:101D70004242464020101000181800000000001CCD
:101D8000225A555555552D42221C000000000008CE
:101D900008181414243C224242E700000000001FEF
:101DA0002222221E22424242221F00000000007C0A
:101DB0004242010101010142221C00000000001FFB
:101DC0002242424242424242221F00000000003FA3
:101DD0004212121E12120242423F00000000003F57
:101DE0004212121E12120202020700000000003C02
:101DF0002222010101712122221C0000000000E7C3
:101E0000424242427E42424242E700000000003E1F
:101E10000808080808080808083E00000000007CC0
:101E200010101010101010101010110F000000777B
:101E300022120A0E0A121222227700000000000766
:101E40000202020202020202427F0000000000774A
:101E5000363636362A2A2A2A2A6B0000000000E38A
:101E600046464A4A52525262624700000000001C35
:101E70002241414141414141221C00000000003FFC
:101E8000424242423E020202020700000000001CE1
:101E90002241414141414D53321C60000000003F4E
:101EA0004242423E1212222242C700000000007C41
:101EB0004242020418204042423E00000000007FDF
:101EC0004908080808080808081C0000000000E786
:101ED0004242424242424242423C0000000000E78D
:101EE0004242222424141418080800000000006B49
:101EF000494949495555362222220000000000E791
:101F0000422424181818242442E700000000007717
:101F10002222141408080808081C00000000007E93
:101F20002120101008040442423F000000780808F5
:101F300008080808080808080808780000000202D5
:101F4000040408080810102020204040001E101033
:101F5000101010101010101010101E000038440047
:101F60000000000000000000000000000000000071
:101F70000000000000000000000000FF0006080054
:101F80000000000000000000000000000000000051
:101F90000000003C4278444242FC00000000000384
:101FA0000202021A26424242261A000000000000E5
:101FB00000000038440202024438000000000060C3
:101FC000404040784442424264D800000000000093
:101FD0000000003C427E0202423C0000000000F093
:101FE0008808087E08080808083E00000000000075
:101FF0000000007C22221C023C42423C0000000304
:102000000202023A4642424242E700000000000C4F
:102010000C00000E08080808083E00000000003010
:1020200030000038202020202020221E0000000345
:1020300002020272120A1612227700000000000E3D
:102040000808080808080808083E0000000000000A
:102050000000007F9292929292B700000000000070
:102060000000003B4642424242E700000000000000
:102070000000003C42424242423C0000000000009E
:102080000000001B26424242221E02070000000000
:102090000000007844424242447840E000000000E2
:1020A000000000774C040404041F0000000000003E
:1020B0000000007C42023C40423E00000000000064
:1020C0000008083E0808080808300000000000006A
:1020D000000000634242424262DC00000000000057
:1020E000000000E74224241408080000000000005B
:1020F000000000EB49495555222200000000000075
:102100000000007624181818246E0000000000005B
:10211000000000E74224241418080807000000000B
:102120000000007E22100808447E000000C020202D
:1021300020202010202020202020C000101010106F
:1021400010101010101010101010101000060808B9
:102150000808081008080808080806000C32C20021
:10216000000000000000000000000000000000006F
:10217000000000000000000000000000000000005F
:10218000000000000000000000000000000000004F
:10219000000000000000000000000000000000003F
:1021A00000000000600060006000600060006000EF
:1021B000600040002000200020000000000000001F
:1021C00060006000600000000000000000000000EF
:1021D000600660063003980188004400000000009B
:1021E00000000000000000000000000000000000EF
:1021F00000000000000000000000000000000000DF
:10220000000000001002100210021002FE07FE077C
:1022100008020801080108010801FE07FE07040181
:10222000040104010401000000000000000000009F
:10223000000040004000F00158034C03CC034C0068
:1022400058007000E000C001C00140034C035C0373
:102250004C034801F0004000400000000000000076
:10226000000000000E010A01910091009100510050
:1022700051003A00AE03A002500450044804480440
:1022800048048402840300000000000000000000F5
:102290000000000038006C006C006C006C006C00EA
:1022A0002C0098071C011A01330133016301E3007C
:1022B000C308C6093C070000000000000000000041
:1022C0000C001C00100010000800040000000000BA
:1022D00000000000000000000000000000000000FE
:1022E00000000000000000000000000000000000EE
:1022F0000004000200018000800040004000200037
:10230000200020002000200020002000400040008D
:1023100080008000000100020004000000000000B6
:1023200002000400080010001000200020004000FF
:1023300040004000400040004000400020002000DD
:10234000100010000800040002000000000000005F
:1023500000000000000000004000C0004000460CEB
:102360004E0FD001F0015E0F460C400040004000CF
:10237000000000000000000000000000000000005D
:10238000000000000000000000004000400040008D
:1023900040004000FE0F4000400040004000400070
:1023A000000000000000000000000000000000002D
:1023B000000000000000000000000000000000001D
:1023C000000000000000000000000000000000000D
:1023D0000C001C00100010000800040000000000A9
:1023E00000000000000000000000000000000000ED
:1023F00000000000FE0700000000000000000000D8
:1024000000000000000000000000000000000000CC
:1024100000000000000000000000000000000000BC
:1024200000000000000000000000000000000000AC
:102430001C001C001C000000000000000000000048
:10244000000400060002000300010001800080007B
:102450004000400060002000200010001000080034
:1024600008000C000400060002000000000000004C
:10247000000000000000F00098010C030C030606A9
:1024800006060606060606060606060606060C03E9
:102490000C039801F00000000000000000000000A4
:1024A00000000000000040007C0060006000600050
:1024B000600060006000600060006000600060001C
:1024C00060006000FC03000000000000000000004D
:1024D000000000000000F800840102030603060368
:1024E000000300018001C00060002000100008020D
:1024F00004020602FE0300000000000000000000CD
:102500000000000000007800C600860186018001FE
:102510008001C00070008001000100030003060379
:1025200006038601F8000000000000000000000023
:1025300000000000000080018001C001A001A00196
:1025400090018801880184018201FE0F80018001D1
:1025500080018001E0070000000000000000000092
:10256000000000000000FC0304000400040004005C
:102570000400F4008C0104030003000306030603B7
:1025800082018401F800000000000000000000004B
:10259000000000000000E00118030C030C00040020
:1025A0000600E60116030E060606060606060406E3
:1025B0000C021803F0000000000000000000000002
:1025C000000000000000F8070C06040204010001EE
:1025D000000180008000400040004000600060007A
:1025E00060006000600000000000000000000000CB
:1025F000000000000000F8010C03060606060606AF
:102600000C021C03F000C8010C03060606060606B1
:1026100006060C03F00100000000000000000000AE
:10262000000000000000F0000C010C03060206068A
:102630000606060606078C06780600060003000359
:102640000C018C0178000000000000000000000078
:10265000000000000000000000000000000000007A
:10266000E000E000E00000000000000000000000CA
:10267000E000E000E00000000000000000000000BA
:10268000000000000000000000000000000000004A
:10269000600060000000000000000000000000007A
:1026A00000006000600040002000200000000000EA
:1026B0000000000000040002000180004000200033
:1026C00010000800040008001000200040008000F6
:1026D00000010002000400000000000000000000F3
:1026E00000000000000000000000000000000000EA
:1026F000FE07000000000000FE07000000000000D0
:1027000000000000000000000000000000000000C9
:1027100000000000040008001000200040008000BD
:1027200000010002000400020001800040002000BF
:10273000100008000400000000000000000000007D
:10274000000000000000E0031806040C040C0C0C50
:102750000C0C000780014000400040000000000019
:10276000E000E000E00000000000000000000000C9
:1027700000000000E00018030C02CC0564056605AB
:10278000A605B604B604B604B604B602E4010C0409
:102790000C021803F0000000000000000000000020
:1027A000000000000000600060005000D0009000B9
:1027B0009000880088010801F80104030403040262
:1027C000020202060F0F00000000000000000000DF
:1027D000000000000000FE008C030C030C030C033F
:1027E0000C038C01FC000C030C020C060C060C06FE
:1027F0000C060C03FE0100000000000000000000B9
:10280000000000000000E00318030C060C040404A0
:1028100006000600060006000600060006040C047A
:102820000C021803F000000000000000000000008F
:102830000000000000007F008C010C030C030C065C
:102840000C060C060C060C060C060C060C060C03FB
:102850000C038C017F00000000000000000000005D
:10286000000000000000FF03060306040604060043
:1028700086008600FE0086008600860006000604AC
:1028800006040602FF030000000000000000000034
:10289000000000000000FF03060306040604060013
:1028A00086008600FE008600860086000600060080
:1028B000060006001F0000000000000000000000ED
:1028C000000000000000F00018010C020C020402DD
:1028D0000600060006000600C60F060306030C03EA
:1028E0000C031803F00000000000000000000000CE
:1028F0000000000000000F0F06060606060606068A
:1029000006060606FE07060606060606060606066E
:10291000060606060F0F0000000000000000000081
:10292000000000000000FC03600060006000600028
:102930006000600060006000600060006000600097
:1029400060006000FC0300000000000000000000C8
:10295000000000000000F807C000C000C000C00078
:10296000C000C000C000C000C000C000C000C00067
:10297000C000C000C000C60066003C0000000000AF
:10298000000000000000CF038601C60046002600BC
:10299000160036002E006E004600C6008600860136
:1029A000060106038F070000000000000000000081
:1029B0000000000000001F000600060006000600E0
:1029C00006000600060006000600060006000604D3
:1029D00006040602FF0300000000000000000000E3
:1029E0000000000000000707860386038E038E03A5
:1029F0004E034E034A035A035A033A033203320387
:102A000032031203870700000000000000000000EE
:102A10000000000000008E0F0C021C021C02340299
:102A20003402640264024402C40284028403840304
:102A3000040304031F020000000000000000000067
:102A4000000000000000F00098010C030C020606D4
:102A500006060606060606060606060606060C0214
:102A60000C039801F00000000000000000000000CE
:102A7000000000000000FF0006030606060606062A
:102A8000060606068603FE0006000600060006008F
:102A9000060006001F00000000000000000000000B
:102AA000000000000000F00098010C030C02060674
:102AB00006060606060606060606060676064C0204
:102AC000CC039801F0008007000300000000000024
:102AD000000000000000FF010603060606060606C9
:102AE00006060603FE004600C600860086010603B1
:102AF000060306060F0E00000000000000000000A4
:102B0000000000000000F8020C03060206020600A6
:102B10000E003C00F800E0038003000702060206F6
:102B200006060C03F0010000000000000000000099
:102B3000000000000000FE076204610861086000F8
:102B40006000600060006000600060006000600085
:102B500060006000F80100000000000000000000BC
:102B60000000000000001E070C020C020C020C0208
:102B70000C020C020C020C020C020C020C020C02E5
:102B80000C021801F000000000000000000000002E
:102B90000000000000000F070602040104010C0100
:102BA0000C018800880098009800500050007000C8
:102BB00030002000200000000000000000000000A5
:102BC000000000000000F70E6204420446044604C0
:102BD00064026402E402E4029C029C0198019801F0
:102BE000880188008800000000000000000000004C
:102BF0000000000000009E070C0108011801900071
:102C0000B0006000200060006000D00090008801EB
:102C1000080104038E07000000000000000000000F
:102C20000000000000000F0F060404020C0208015F
:102C30001801B800B0007000600060006000600023
:102C400060006000F80100000000000000000000CB
:102C5000000000000000FC070C02060302018001D6
:102C600080004000400020002000100018000804F0
:102C70000C040402FE03000000000000000000003D
:102C8000E003200020002000200020002000200081
:102C90002000200020002000200020002000200034
:102CA0002000200020002000E003000000000000C1
:102CB00000000000040004000800080010001000DC
:102CC00010002000200040004000C0008000800074
:102CD00000010001000200020002000400000000E8
:102CE0007C004000400040004000400040004000A8
:102CF00040004000400040004000400040004000D4
:102D000040004000400040007C00000000006000E7
:102D1000900008010000000000000000000000001A
:102D200000000000000000000000000000000000A3
:102D30000000000000000000000000000000000093
:102D40000000000000000000000000000000000083
:102D50000000000000000000000000000000000073
:102D600000000000000000000000FF0F0000000055
:102D700018006000000000000000000000000000DB
:102D80000000000000000000000000000000000043
:102D90000000000000000000000000000000000033
:102DA0000000000000000000000000000000000023
:102DB000F0010C030C030003E0031C030E030603E5
:102DC00006038E0B7C0E00000000000000000000D7
:102DD0000000000008000E000C000C000C000C00AD
:102DE000CC013C031C060C060C060C060C060C065B
:102DF0000C021C03E40100000000000000000000C1
:102E000000000000000000000000000000000000C2
:102E1000F0008C018C018601060006000600060207
:102E20000C020C01F0000000000000000000000097
:102E3000000000000002C0030003000300030003C1
:102E400078038C030C03060306030603060306033C
:102E500004038C077801000000000000000000005F
:102E60000000000000000000000000000000000062
:102E7000E001180308020C060C06FC070C000C000D
:102E800018041802E001000000000000000000002B
:102E9000000000000000C003600630063000300073
:102EA000FE013000300030003000300030003000D3
:102EB00030003000FC0100000000000000000000B5
:102EC0000000000000000000000000000000000002
:102ED000F007D8068C018C018C019801F8000C00D9
:102EE000FC00CC03060306038E03F800000000007C
:102EF0000000000008000E000C000C000C000C008C
:102F0000EC011C030C030C030C030C030C030C035B
:102F10000C030C039E0700000000000000000000EE
:102F200000000000000060006000000000004000A1
:102F30007C00600060006000600060006000600075
:102F400060006000FC0300000000000000000000C2
:102F5000000000000000C001C001000000000001EE
:102F6000F0018001800180018001800180018001E9
:102F70008001800180018001CC007C000000000005
:102F80000000000008000E000C000C000C000C00FB
:102F90008C038C008C004C006C005C008C008C015D
:102FA0000C010C039E070000000000000000000060
:102FB0000000000040007C006000600060006000D5
:102FC0006000600060006000600060006000600001
:102FD00060006000FC030000000000000000000032
:102FE00000000000000000000000000000000000E1
:102FF0003707EE0666066606660666066606660617
:1030000066066606FF0F00000000000000000000DA
:1030100000000000000000000000000000000000B0
:10302000EE011C030C030C030C030C030C030C0338
:103030000C030C039E0700000000000000000000CD
:103040000000000000000000000000000000000080
:10305000F00098010C03060606060606060606069C
:103060000C030C03F0000000000000000000000052
:103070000000000000000000000000000000000050
:10308000EE011C030C060C060C060C060C060C06C6
:103090000C031C03EC010C000C003E0000000000BF
:1030A0000000000000000000000000000000000020
:1030B00078028C030C0306030603060306030603CB
:1030C00004038C03780300030003C0070000000022
:1030D00000000000000000000000000000000000F0
:1030E0009F0358063806180018001800180018002A
:1030F00018001800FF0000000000000000000000A1
:1031000000000000000000000000000000000000BF
:10311000F0031C030C020C023800F000C00304038F
:1031200004038C03FC01000000000000000000000C
:1031300000000000000000002000200030003000EF
:10314000FE01300030003000300030003000300030
:1031500030023002E001000000000000000000002A
:103160000000000000000000000000000000080255
:103170008E030C030C030C030C030C030C030C0355
:103180000C039C0778010000000000000000000014
:10319000000000000000000000000000000000002F
:1031A0001E070C020801080118019000B000B000D1
:1031B000600060002000000000000000000000002F
:1031C00000000000000000000000000000000000FF
:1031D000F70E6204460464026402EC029C0198014A
:1031E00098019801080000000000000000000000A5
:1031F00000000000000000000000000000000000CF
:10320000BC0718011001B00060006000E0009000F1
:10321000080108039E0700000000000000000000F5
:10322000000000000000000000000000000000009E
:103230009E0708010801080190009000B00060009E
:10324000600060002000200024001C00000000003E
:10325000000000000000000000000000000000006E
:10326000FC018401C400440060002000300018020A
:1032700008020C03FC010000000000000000000038
:1032800000038000800080008000800080008000BB
:10329000800040002000400080008000800080000E
:1032A000800080008000800000030000400040009B
:1032B000400040004000400040004000400040000E
:1032C00040004000400040004000400040004000FE
:1032D000400040004000400040004000000000006E
:1032E0000C00100010001000100010001000100062
:1032F00010002000400020001000100010001000FE
:1033000010001000100010000C00000000001C0055
:103310002204C2048003000000000000000000003E
:10332000000000000000000000000000000000009D
:10333000000000000000000000000000000000008D
:10334000000000000000000000000000000000007D
:10335000000000000000000000000000000000006D
:10336000000000000000000000000000000000005D
:10337000000000000000000000000000000000004D
:10338000000000000000C001C001C001C001C00178
:10339000C001C001800080008000800080008000AB
:1033A000800000000000000000008001C003C00396
:1033B000800100000000000000000000000000008C
:1033C0000000E01CE01CF01E700E38071803080116
:1033D0008400000000000000000000000000000069
:1033E00000000000000000000000000000000000DD
:1033F00000000000000000000000000000000000CD
:1034000000000000000000002010201020102010FC
:103410002010FE7FFE7F100810081008100810080A
:1034200010081008FE7FFE7F080408040804080442
:103430000804000000000000000000000000000080
:103440000000000000010001C007601910311831B0
:103450001839183938017001E001C0038007000FE6
:10346000001D003900311C311C310C310C11180DBC
:10347000E007000100010001000000000000000062
:1034800000000000000000001C1036186308630CE8
:1034900063046304630263026301361D9C37802268
:1034A00080634063406320632063306310221836DA
:1034B000081C0000000000000000000000000000E8
:1034C0000000000000000000F00098018C018C0159
:1034D0008C018C018C00CC007800183E1C0836084A
:1034E000320863046304C304C303834306438E2684
:1034F000781C000000000000000000000000000038
:1035000000001C003C003C003000300010000C00AB
:1035100006000000000000000000000000000000A5
:10352000000000000000000000000000000000009B
:10353000000000000000000000000000000000008B
:1035400000000040002000100008000C00040006ED
:1035500000030003000380018001800180018001DD
:1035600080018001800100030003000300060006C3
:10357000000C0008001000200040000000000000C7
:10358000000002000400080010003000200060006D
:10359000C000C000C0008001800180018001800166
:1035A000800180018001C000C000C0006000600098
:1035B00030001000080004000200000000000000BD
:1035C0000000000000000000000000000001800377
:1035D000800300011C713C79783DC0070001C007E1
:1035E000783D3C791C71000180038003800100005C
:1035F00000000000000000000000000000000000CB
:1036000000000000000000000000000000000001B9
:10361000000100010001000100010001FC7F000128
:103620000001000100010001000100010000000094
:10363000000000000000000000000000000000008A
:10364000000000000000000000000000000000007A
:10365000000000000000000000000000000000006A
:103660000000000000000000000000001C003C0002
:103670003C003000300010000C000600000000008C
:10368000000000000000000000000000000000003A
:10369000000000000000000000000000FE7F0000AD
:1036A000000000000000000000000000000000001A
:1036B000000000000000000000000000000000000A
:1036C00000000000000000000000000000000000FA
:1036D00000000000000000000000000000000000EA
:1036E0000000000000000000000018003C003C004A
:1036F00018000000000000000000000000000000B2
:103700000000004000600020003000100018000899
:10371000000C00040006000200030001800180008C
:10372000C0004000600020003000100018000800B9
:103730000C00040006000200000000000000000071
:103740000000000000000000C007600C30181830B6
:10375000183018200C600C600C600C600C600C6061
:103760000C600C600C601820183018303018600C99
:10377000C007000000000000000000000000000082
:10378000000000000000000000018001F80180013D
:103790008001800180018001800180018001800121
:1037A0008001800180018001800180018001C003CF
:1037B000F81F0000000000000000000000000000F2
:1037C0000000000000000000E007101C0818043092
:1037D00004300C300C3000300018000800040002E7
:1037E0000001800040002020102008200430FC1F31
:1037F000FC1F0000000000000000000000000000AE
:103800000000000000000000E003180E0C0C0C1873
:103810000C180C180018000C0006C003000E00184D
:103820000010003000300C300C300C100C18180C4C
:10383000E0030000000000000000000000000000A5
:103840000000000000000000000C000E000E000F41
:10385000800E800E400E600E200E100E100E080E10
:10386000040E040EFE7F000E000E000E000E000E71
:10387000000EC07F000000000000000000000000FB
:103880000000000000000000F03FF03F10001000BA
:10389000100008000800C807280C1818081000308D
:1038A0000030003000300C300C3004180418080CC4
:1038B000F003000000000000000000000000000015
:1038C0000000000000000000800FC0102030103009
:1038D0001800180008000C008C0F6C183C301C609D
:1038E0000C600C600C600C601860182030306018A0
:1038F000C007000000000000000000000000000001
:103900000000000000000000F83FF83F1C100C0809
:103910000408040400040002000200010001000188
:10392000800080008000C000C000C000C000C00057
:10393000C0000000000000000000000000000000C7
:103940000000000000000000E007300C18180C30E8
:103950000C300C301C3038187008E007B007180E17
:103960000C1C063806300630063006300C18180CD1
:10397000E003000000000000000000000000000064
:103980000000000000000000E00318040C080C1800
:103990000610063006300630063006380C3C183665
:1039A000F03100300018001800180C0C0C060C0345
:1039B000F001000000000000000000000000000016
:1039C00000000000000000000000000000000000F7
:1039D0000000000000008001C003C003800100005F
:1039E000000000000000000000008001C003C003D0
:1039F0008001000000000000000000000000000046
:103A000000000000000000000000000000000000B6
:103A1000000000000000C000C00000000000000026
:103A20000000000000000000000000000000C000D6
:103A3000C000800080004000400000000000000046
:103A40000000000000000020001000080004000634
:103A500000038001C0006000300018000C00180056
:103A600030006000C0008001000300060004000870
:103A70000010002000000000000000000000000016
:103A80000000000000000000000000000000000036
:103A9000000000000000FE7F0000000000000000A9
:103AA0000000FE7F00000000000000000000000099
:103AB0000000000000000000000000000000000006
:103AC000000000000000040008001000200060005A
:103AD000C000800100030006000C00180030001830
:103AE000000C000600038001C000600020001000F0
:103AF00008000400000000000000000000000000BA
:103B0000000000000000C0073018083008600C609A
:103B10001C601C601C600030001C0006000180005E
:103B2000800080008000000000008001C003C0030E
:103B30008001000000000000000000000000000004
:103B40000000000000000000C007601810301820BE
:103B50000C2F8C4D864CC64CC64C664C6644664455
:103B6000662666266615CC1C0C40082018303018D6
:103B7000C00700000000000000000000000000007E
:103B80000000000000000001C001C001C0014001B0
:103B900060032003200320033006100610061006E1
:103BA000F80F080C080C080C0C0C04180418061864
:103BB0001F7C00000000000000000000000000006A
:103BC0000000000000000000FE07181C1838183024
:103BD0001830183018301818180CF8071818183042
:103BE00018201860186018601860186018301818CD
:103BF000FE0F0000000000000000000000000000B8
:103C00000000000000000000C027603810301820BD
:103C10000C400C40040006000600060006000600EA
:103C20000600060006000C400C400C20183030182E
:103C3000C0070000000000000000000000000000BD
:103C40000000000000000000FE03180E18181830D5
:103C50001830183018601860186018601860186004
:103C60001860186018601830183018101818180EDE
:103C7000FE03000000000000000000000000000043
:103C80000000000000000000FE3F183018201860FF
:103C90001840180018081808180CF80F180C180805
:103CA000180818001800180018401840182018307C
:103CB000FE3F0000000000000000000000000000C7
:103CC0000000000000000000FE7F1870184018C0BF
:103CD00018801800181018101818F81F1818181045
:103CE0001810180018001800180018001800180004
:103CF0007E00000000000000000000000000000046
:103D00000000000000000000C013701C101018100C
:103D10000C200C2004000600060006000600060029
:103D200006FC063006300C300C30183018303008E5
:103D3000C0070000000000000000000000000000BC
:103D400000000000000000003F7E0C180C180C184A
:103D50000C180C180C180C180C180C18FC1F0C184C
:103D60000C180C180C180C180C180C180C180C1833
:103D70003F7E000000000000000000000000000086
:103D80000000000000000000F81F80018001800199
:103D9000800180018001800180018001800180011B
:103DA000800180018001800180018001800180010B
:103DB000F81F0000000000000000000000000000EC
:103DC0000000000000000000E07F00060006000682
:103DD00000060006000600060006000600060006B3
:103DE00000060006000600060006000600060006A3
:103DF000000600060E060E038E01FC000000000007
:103E000000000000000000007E7C1818180818044C
:103E100018061802180198019801D801B803380350
:103E200018071806180E180C181C18181830183017
:103E30007EFC000000000000000000000000000008
:103E400000000000000000007E00180018001800AC
:103E500018001800180018001800180018001800A2
:103E600018001800180018001840184018201830C2
:103E7000FE3F000000000000000000000000000005
:103E800000000000000000001FF81C381C381C381F
:103E90001C3C343434343434343674326432643256
:103EA00064326431C431C431C431C430C43084306C
:103EB0009FFC000000000000000000000000000067
:103EC00000000000000000001F7C1C103C1034109B
:103ED000341074106410E410C410C41184118413DD
:103EE000041304170416041E041C041C041C0418E8
:103EF0001F1800000000000000000000000000008B
:103F00000000000000000000C003300C181808106A
:103F10000C300C30066006600660066006600660C5
:103F20000660066006600C200C3008101818300C73
:103F3000C0030000000000000000000000000000BE
:103F40000000000000000000FE0F18181830186074
:103F5000186018601860186018301818F80F1800EA
:103F60001800180018001800180018001800180091
:103F70007E000000000000000000000000000000C3
:103F80000000000000000000C003300C18180C10E6
:103F90000C300C2006600660066006600660066055
:103FA000066006600660E4612C331C321816300E81
:103FB000C007004C007C003800000000000000003A
:103FC0000000000000000000FE07181C1838183020
:103FD0001830183018301818180CF8079803180300
:103FE000180718061806180E180C180C181C1818A4
:103FF0007E780000000000000000000000000000CB
:104000000000000000000000E027303818300C20CD
:104010000C200C000C0018007800E003800F001E3C
:1040200000380070006004600460086018303818C0
:10403000C80F0000000000000000000000000000A9
:104040000000000000000000FC3F8C2184618241E0
:104050008241800180018001800180018001800116
:104060008001800180018001800180018001800148
:10407000E007000000000000000000000000000059
:1040800000000000000000003F7C0C100C100C1021
:104090000C100C100C100C100C100C100C100C1040
:1040A0000C100C100C100C100C100C10080838041C
:1040B000E00300000000000000000000000000001D
:1040C00000000000000000003EF818201820182012
:1040D0003010301030103010600860086008E00CBC
:1040E000C004C004C0048003800380038003000177
:1040F00000010000000000000000000000000000BF
:104100000000000000000000DFF3866186218621A8
:104110008C210C218C238C138C138C134C13581270
:104120005816580E380E380E380E300C1004100485
:10413000100400000000000000000000000000006B
:1041400000000000000000007E3E1808380830041F
:10415000300470026002E001C001C00180018003F0
:104160004003400720062006100C100C0818081801
:104170003E7C000000000000000000000000000085
:1041800000000000000000007E7C1C1018101808C1
:104190003008300C700460046002C002C002C0012C
:1041A0008001800180018001800180018001800107
:1041B000E007000000000000000000000000000018
:1041C0000000000000000000F83F18180818040C58
:1041D000040E00060007000380038001C001C00038
:1041E000E000600070003000382018201C100C180F
:1041F000FE1F0000000000000000000000000000A2
:104200000000C03F4000400040004000400040002F
:10421000400040004000400040004000400040009E
:10422000400040004000400040004000400040008E
:10423000400040004000C03F0000000000000000BF
:1042400000000000000008001800180010003000F6
:104250002000600060004000C000800080018001FC
:10426000000100030002000600060004000C000824
:1042700000180018001000300020000000000000AE
:104280000000FC0300020002000200020002000223
:10429000000200020002000200020002000200020E
:1042A00000020002000200020002000200020002FE
:1042B000000200020002FC030000000000000000F9
:1042C00000008007C0062008101000000000000059
:1042D00000000000000000000000000000000000DE
:1042E00000000000000000000000000000000000CE
:1042F00000000000000000000000000000000000BE
:1043000000000000000000000000000000000000AD
:10431000000000000000000000000000000000009D
:10432000000000000000000000000000000000008D
:1043300000000000000000000000FFFF000000007F
:1043400000007800C0000001000000000000000034
:10435000000000000000000000000000000000005D
:10436000000000000000000000000000000000004D
:10437000000000000000000000000000000000003D
:10438000000000000000000000000000000000002D
:10439000000000000000F00318060C0C0C0C000CD0
:1043A000800F700C1C0C0C0C060C060C064C0C4FF1
:1043B000F8380000000000000000000000000000CD
:1043C00000000000000010001E0018001800180077
:1043D000180018001800180FD81838303860186006
:1043E0001860186018601860186018203830781845
:1043F000C8070000000000000000000000000000EE
:1044000000000000000000000000000000000000AC
:10441000000000000000C007700C181818180C18D5
:104420000C000C000C000C000C2018201810300898
:10443000C0070000000000000000000000000000B5
:104440000000000000000010001E001800180018F6
:10445000001800180018E01B301C181818180C1849
:104460000C180C180C180C180C180818181C307A9A
:10447000E009000000000000000000000000000053
:10448000000000000000000000000000000000002C
:10449000000000000000C007300C181808100C3095
:1044A0000C30FC3F0C000C000C0018201810701889
:1044B000C007000000000000000000000000000035
:1044C0000000000000000000003E80C380C0C0C0AB
:1044D000C000C000C000FC1FC000C000C000C00081
:1044E000C000C000C000C000C000C000C000C000CC
:1044F000F80F0000000000000000000000000000B5
:1045000000000000000000000000000000000000AB
:10451000000000000000C077306C10181818181840
:1045200018181018300CF00718001800F00FF03FA2
:1045300008700C600C600C603838E00F0000000060
:1045400000000000000010001E00180018001800F5
:10455000180018001800980FD81838301830183084
:10456000183018301830183018301830183018300B
:104570007EFC0000000000000000000000000000C1
:1045800000000000000000008003800380030000A2
:10459000000000000001F80180018001800180011D
:1045A0008001800180018001800180018001800103
:1045B000F81F0000000000000000000000000000E4
:1045C0000000000000000000003800380038000043
:1045D000000000000010801F0018001800180018CC
:1045E000001800180018001800180018001800180B
:1045F000001800180018180C1806F003000000003E
:1046000000000000000010001E0018001800180034
:10461000180018001800183E180C18061803180186
:104620009801D801380318071806180C181C181818
:104630007E7C000000000000000000000000000080
:104640000000000000000001F801800180018001ED
:104650008001800180018001800180018001800152
:104660008001800180018001800180018001800142
:10467000F81F000000000000000000000000000023
:10468000000000000000000000000000000000002A
:10469000000000000800EE1C9C338C318C318C3102
:1046A0008C318C318C318C318C318C318C318C3122
:1046B000DE7B0000000000000000000000000000A1
:1046C00000000000000000000000000000000000EA
:1046D0000000000010001E0FD818383018301830B5
:1046E000183018301830183018301830183018308A
:1046F0007EFC000000000000000000000000000040
:1047000000000000000000000000000000000000A9
:10471000000000000000C007701C103018300C6052
:104720000C600C600C600C600C6018301830301895
:10473000C0070000000000000000000000000000B2
:104740000000000000000000000000000000000069
:104750000000000010009E0F581838301820186014
:1047600018601860186018601860183038307818B1
:10477000980718001800180018007E0000000000BC
:104780000000000000000000000000000000000029
:10479000000000000000C023303C183818300C30F6
:1047A0000C300C300C300C300C3008301838303CE9
:1047B000E033003000300030003000FC000000002A
:1047C00000000000000000000000000000000000E9
:1047D0000000000060007E3C60666061E000E00078
:1047E00060006000600060006000600060006000C9
:1047F000FE070000000000000000000000000000B4
:1048000000000000000000000000000000000000A8
:10481000000000000000E027303818301820180091
:104820007000E003800F001C043004300C301C18B2
:10483000EC0F00000000000000000000000000007D
:104840000000000000000000000000008000800068
:104850008000C000E000FC1FC000C000C000C0001D
:10486000C000C000C000C000C000C020C020801137
:10487000000F000000000000000000000000000029
:104880000000000000000000000000000000000028
:104890000000000010201E3C18301830183018306E
:1048A000183018301830183018301830183830F4E4
:1048B000E013000000000000000000000000000005
:1048C00000000000000000000000000000000000E8
:1048D0000000000000007E3C18181808380830045A
:1048E0003004700260026002E001C001C001C0003B
:1048F0008000000000000000000000000000000038
:1049000000000000000000000000000000000000A7
:10491000000000000000DFF78E630C238C238C2343
:104920009813981358165816700E700E700E2004B7
:104930002004000000000000000000000000000053
:104940000000000000000000000000000000000067
:10495000000000000000FC3E70087004E004C0028B
:10496000C0018003800340076006200C100C18185B
:104970003E7E00000000000000000000000000007B
:104980000000000000000000000000000000000027
:104990000000000000007E7C18181808300830085D
:1049A000300460046004C002C002C00280018001C3
:1049B00080018000800080004C003C00000000006E
:1049C00000000000000000000000000000000000E7
:1049D000000000000000FC1F0C0C040E0406000385
:1049E00080038001C000E0007020302038301C18A7
:1049F000FC1F00000000000000000000000000009C
:104A0000000000300008000400040004000400045A
:104A100000040004000400040004000280010002FD
:104A20000004000400040004000400040004000466
:104A30000004000400040008003000000001000130
:104A4000000100010001000100010001000100015E
:104A5000000100010001000100010001000100014E
:104A6000000100010001000100010001000100013E
:104A70000001000100010001000100010000000030
:104A800000000C001000200020002000200020006A
:104A90002000200020002000200040008001400075
:104AA0002000200020002000200020002000200006
:104AB00020002000200010000C0000000000380042
:104AC000C400864002610022001C000000000000BB
:104AD00000000000000000000000000000000000D6
:104AE00000000000000000000000000000000000C6
:104AF000000000000000000000000000D6D02000F0
:104B000020002000FE03220222022202FE032202D3
:104B1000200020002000BEB0FC010401FC010401C3
:104B2000FC012000FF070401FC01200024013202E7
:104B3000D4B0FE070204FA0402040204FE05520483
:104B400052044A0586050204FE07B5E7100010006E
:104B5000FF0111011101FF0111011101FF011104F8
:104B60001004E007D7D30000FC01800040002000C3
:104B70002000FF0720002000200020003800D6D0B1
:104B80008000800080008000FC1F8410841084104E
:104B900084108410FC1F841080008000800080003E
:104BA000BEB0F80F0808F80F0808F80F8000FF7F64
:104BB0000000F80F08080808F80F80008410A220F1
:104BC0004000D4B00000FE3F0220F2270220022065
:104BD000FA2F222122212221122912290A2E022013
:104BE000FE3F0220B5E7800080008000FC1F84109B
:104BF00084108410FC1F841084108410FC1F8450C7
:104C000080408040007FD7D30000FE1F00080004D2
:104C1000000280018000FF7F800080008000800013
:104C200080008000A0004000D6D0000000000000FE
:104C3000001800000800000800000800080818F824
:104C4000FF1F180818180818180818180818180846
:104C500018180818F8FF1F080808000800000800C6
:104C600000080000080000180000180000180000EC
:104C70000000BEB0000000000000400006C0FF07BA
:104C8000400006C0FF07400006C0FF0740080200C2
:104C90003000FEFF3F000000C0FF07C00002C00060
:104CA00002C00002C0FF0380100080110160100EDE
:104CB0003010180C1E30001C00000000D4B00000A2
:104CC00000000000080030F8FF1F08001008C010A6
:104CD000083F10080010080010080013C8FF100853
:104CE0002210082210082210082210082112082180
:104CF0001488601648C013280010080010F8FF1F21
:104D0000080010000000B5E70000000000000018D7
:104D100000000800000800000800F0FF0F10080461
:104D2000100804100804100804F0FF07100804100D
:104D30000804100804100804F0FF07100800000819
:104D40001000081000082000183000F01F000000BC
:104D5000D7D3000000000000000004F0FF0F0000A7
:104D60000600000100C00000280000180000180024
:104D7000001830FEFF7F0018000018000018000027
:104D80001800001800001800001800001800001893
:104D900000001F00000C00000000D6D00000000042
:104DA0000000000000800000008001000080010081
:104DB0000080010000800100008001001080010CD3
:104DC000F0FFFF0F308001043080010430800104C7
:104DD00030800104308001043080010430800104FF
:104DE00030800104F0FFFF073080010430800104AF
:104DF00000800100008001000080010000800100AF
:104E0000008001000080010000800100008001009E
:104E1000008001000080000000000000BEB0000023
:104E2000000000000000000000000001800100FF01
:104E3000FF01000380010003800100FFFF01000368
:104E400080010003800100FFFF010081810000005C
:104E500003000000031CFCFFFF3F000040000003B4
:104E6000C00100FFFF010003C0000003C0000003F9
:104E7000C00000FFFF000001410000040100000E1F
:104E8000710000078101800101076000010E189880
:104E9000011C04E0011800C0000000000000D4B0B4
:104EA000000000000000000000000008F0FFFF1FED
:104EB0003000000C3000000C3000100C30FE3F0CB5
:104EC0003004000C3000000C3000000C3000000CEE
:104ED0003000C00CF0FFFF0D3030060E3030060CF5
:104EE0003010060C3010060C3010060C3018860CF2
:104EF0003018860C3008060D300C860D3006EE0F8B
:104F00003002FC0D3001000CF000000C3000000CF1
:104F1000F0FFFF0F3000000C100000040000000044
:104F2000B5E7000000000000000000C0000000C065
:104F3000010000C0000000C0000000C0000000C070
:104F40000000E0FFFF0360C0000360C0000360C01A
:104F5000000360C0000360C0000360C00003E0FF06
:104F6000FF0360C0000360C0000360C0000360C0B6
:104F7000000360C00003E0FFFF0360C0000160C0E9
:104F8000000000C0000800C0001000C0001000C0F9
:104F9000001800C001380080FF1F00000000000062
:104FA0000000D7D300000000000000000000000057
:104FB00000000003C0FFFF07000080070000C000E2
:104FC000000060000000180000000C0000800300DA
:104FD0000080030000800100008001080080011CA7
:104FE000FCFFFF3F00800100008001000080010005
:104FF00000800100008001000080010000800100AD
:10500000008001000080010000800100008001009C
:105010000080010000FC010000E0000000400000F2
:1050200000000000FFFFFFFFFFFFFFFFFFFFFFFF8C
:10503000FFFFFFFFFFFFFFFFFFFFFFFFFFFFFFFF80
:10504000FFFFFFFFFFFFFFFFFFFFFFFFFFFFFFFF70
:10505000FFFFFFFFFFFFFFFFFFFFFFFFFFFFFFFF60
:10506000FFFFFFFFFFFFFFFFFFFFFFFFFFFFFFFF50
:10710000FFFFFFFFFFFFFFFFFFFFFFFFFFDFFFDFCF
:10711000FFDFFFFFFFFFFFFFFFFFFFFFFFFFFFFF9F
:10712000FFFFFFFFFFFFFFFFFFFFFFFFFFFFFFFF6F
:10713000FFFFFFFFFFFFFFFFFFFFFFFFFFFFFFFF5F
:10714000FFFFFFFFFFFFFFFFFFFFFFFFFFFFFFFF4F
:10715000F7FFF7FFF7FFF7FFF7FEF7FEF7FFF7FF81
:10716000FFFFFFFFFFFFFFFFFFFFFFFFFFFFFFFF2F
:10717000FFFFFFFFFFFFFFFFFFFFFFFFFFFFFFFE20
:10718000FFFFFFFFFFFFFFFFFFFFFFFFFFFFFFFF0F
:10719000FFFFFFFFFFFFFFFFFFFFFFFFFFFFFFFFFF
:1071A000FFFFFFFFFFFFFFFFFFFFFFFFFFFFFFFFEF
:1071B000FFFFFFFFFFFFFFFFFFFFFFFFFFFFFFFFDF
:1071C000FFFFFFFFFFFFFFFFFFFFFFFFFFFFFFFFCF
:1071D000FFFFFFFFFFFFFFFFFFFFFFFFFFFFFFFFBF
:1071E000FFFFFFFFFFFFFFFFFFFFFFFFFFFFFFFFAF
:1071F000FFFFFFFFFFFFFFFFFFFFFFFFFFDEFFBD02
:10720000FFDEFFFEFFFEFFFEFFFEFFFEFFFEFFFEB6
:10721000FFFEFFFEFFFEFFFEFFFEFFFEFFFEFFFE86
:10722000FFFEFFFEFFFEFFFEFFFEFFFEFFFEFFFE76
:10723000FFFEFFFEFFFEFFFEFFFEFFFEFFFEFFFE66
:10724000FFFFFFFFFFFFFFFFFFFFFFDFFF9EFF9E30
:10725000FFFFFFFFFFFFFFFFFFFFFFFFFFFFFFFF3E
:10726000FFFFFFFFFFFFFFFFFFFFFFFFFFFFFFFF2E
:10727000FFFFF79FEFBEFFFEFFFEFFFEFFFEFFFEDC
:10728000FFFEFFFEFFFEFFFEFFFEFFFEFFFEFFFE16
:10729000FFFEFFFEFFFEFFFEFFFEFFFEFFFEFFFE06
:1072A000FFFEFFFEFFFEFFFEFFFEFFFEFFFEFFFEF6
:1072B000FFFEFFFEFFFEFFFEFFFEFFFEF79EFFFF4D
:1072C000FFFFFFFFFFFFFFFFFFFFFFFFFFFFFFFFCE
:1072D000FFFFFFFFFFFFFFFFFFFFFFFFFFFFFFFFBE
:1072E000FFFFFFFFFFFFFFFFFFFFFFFFFFFFFFDDD0
:1072F000FFDDF7BEF7BEF7BFF7BFF7BFF7BFF7BFBA
:10730000F7BFF7BFF7BFF7BFF7BFF7BFF7BFF7BFCD
:10731000F7BFF7BFF7BFF7BFF7BFF7BFF7BFF7BFBD
:10732000F7BFF7BFF7BFF7BFF7BFF7BFF7BFF7BFAD
:10733000FF9DFF9DFF9DFF9DFFDDEFDDF7FFF7DE6A
:10734000FFFFFFFFFFFFFFFFFFFFFFFFFFFFFFFF4D
:10735000FFFFFFFFFFFFFFFFFFFFFFFFFFFFFFDF5D
:10736000FFFFEF5DF73BF79EF79EF7BFF7BFF7BF55
:10737000F7BFF7BFF7BFF7BFF7BFF7BFF7BFF7BF5D
:10738000F7BFF7BFF7BFF7BFF7BFF7BFF7BFF7BF4D
:10739000F7BFF7BFF7BFF7BFF7BFF7BFF7BFF7BF3D
:1073A000F7BFF7BFF7BFF7BFF7BFFFBEF79DFFFF00
:1073B000FFFFFFFFFFFFFFFFFFFFFFFFFFFFFFFFDD
:1073C000FFFFFFFFFFFFFFFFFFFFFFFFFFFFFFFFCD
:1073D000FFFFFFFFFFFFFFFFFFFFFFDEBB47BAE737
:1073E000BB05BB06BB05BB05BB05BB05BB05BB059C
:1073F000BB05BB05BB05BB05BB05BB05BB05BB058D
:10740000BB05BB05BB05BB05BB05BB05BB05BB057C
:10741000BB05BB05BB05BB05B307BB23BB06B30759
:10742000AB27A347A327AB4AB4AFFFDDFFFFFFFFA6
:10743000FFFFFFFFFFFFFFFFFFFFFFFFFFFFFFFF5C
:10744000FFFFFFFFFFFFFFFFFFFFFFFFFFFFFFFE4D
:10745000FFFFFFDDAB28BB05BB05BB05BB05BB05BF
:10746000BB05BB05BB05BB05BB05BB05BB05BB051C
:10747000BB05BB05BB05BB05BB05BB05BB05BB050C
:10748000BB05BB05BB05BB05BB05BB05BB05BB05FC
:10749000BB05BB05BB05BB05B306AB28FFFFFFFE65
:1074A000FFDFFFFFFFFFFFFFFFFFFFFFFFFFFFFF0C
:1074B000FFFFFFFFFFFFFFFFFFFFFFFFFFFFFFFFDC
:1074C000FFFFFFFFFFFFFFFFFFFFFFDDC346C2E639
:1074D000C2E4C2E5C2E5C2E5C2E5C2E5C2E5C2E575
:1074E000C2E5C2E5C2E5C2E5C2E5C2E5C2E5C2E564
:1074F000C2E5C2E5C2E5C2E5C2E5C2E5C2E5C2E554
:10750000C2E5C2E5C2E5C2E5BB23C2E5C2E5C303ED
:10751000BAE4B349FF7BE7BDFFFFF7DFFFFFFFFFE3
:10752000FFFFFFFFFFFFFFFFFFFFFFFFFFFFFFFF6B
:10753000FFFFFFFFFFFFFFFFFFFFFFFFFFFFFFFE5C
:10754000FFFFFFDDB307C2E5C2E5C2E5C2E5C2E564
:10755000C2E5C2E5C2E5C2E5C2E5C2E5C2E5C2E5F3
:10756000C2E5C2E5C2E5C2E5C2E5C2E5C2E5C2E5E3
:10757000C2E5C2E5C2E5C2E5C2E5C2E5C2E5C2E5D3
:10758000C2E5C2E5C2E5C2E4BB05AB27FFFFFFFED3
:10759000FFDFFFFFFFFFFFFFFFFFFFFFFFFFFFFF1B
:1075A000FFFFFFFFFFFFFFFFFFFFFFFFFFFFFFFFEB
:1075B000FFFFFFFFFFFFFFFFFFFFFFDDC325C2C689
:1075C000C2E4C2E5C2E4C2E4C2E4C2E4C2E4C2E48A
:1075D000C2E4C2E4C2E4C2E4C2E4C2E4C2E4C2E47B
:1075E000C2E4C2E4C2E4C2E4C2E4C2E4C2E4C2E46B
:1075F000C2E4C2E4C2E4C2E4C303CB46B322B2E5B0
:10760000D50FFFFEFFDEFF9EFFFFFFFFFFFFFFFF27
:10761000FFFFFFFFFFFFFFFFFFFFFFFFFFFFFFFF7A
:10762000FFFFFFFFFFFFFFFFFFFFFFFFFFFFFFFE6B
:10763000FFFFFFDDAAE7C2E5C2E5C2E5C2E5C2E49D
:10764000C2E4C2E4C2E4C2E4C2E4C2E4C2E4C2E40A
:10765000C2E4C2E4C2E4C2E4C2E4C2E4C2E4C2E4FA
:10766000C2E4C2E4C2E4C2E4C2E4C2E4C2E4C2E4EA
:10767000C2E4C2E5C2E5C2E4BB05AB27FFFFFFFEE3
:10768000FFDFFFFFFFFFFFFFFFFFFFFFFFFFFFFF2A
:10769000FFFFFFFFFFFFFFFFFFFFFFFFFFFFFFFFFA
:1076A000FFFFFFFFFFFFFFFFFFFFFFDDC325C2C599
:1076B000C2E3C2E4CAE4CAE4CAE4CAE4CAE4CAE46B
:1076C000CAE4CAE4CAE4CAE4CAE4CAE4CAE4CAE44A
:1076D000CAE4CAE4CAE4CAE4CAE4CAE4CAE4CAE43A
:1076E000C2E4C2E4C2E4C2E4AAE4B283A2C7FFBC1B
:1076F000FFDEFF7EFFDEEFFFFFFFFFFEFFFEFFFF6F
:10770000FFFFFFFFFFFFFFFFFFFFFFFFFFFFFFFF89
:10771000FFFFFFFFFFFFFFFFFFFFFFFFFFFFFFFE7A
:10772000FFFFFFDDAAE7CAC4CAC4CAC4CAC4CAE408
:10773000CAE4CAE4CAE4CAE4CAE4CAE4CAE4CAE4D9
:10774000CAE4CAE4CAE4CAE4CAE4CAE4CAE4CAE4C9
:10775000CAE4CAE4CAE4CAE4CAE4CAE4CAE4CAE4B9
:10776000CAE4C2E4C2E4CAE4C2E5B307FFFFFFFE15
:10777000FFDFFFFFFFFFFFFFFFFFFFFFFFFFFFFF39
:10778000FFFFFFFFFFFFFFFFFFFFFFFFFFFFFFFF09
:10779000FFFFFFFFFFFFFFFFFFFFFF9DCB46C2C5BF
:1077A000C2E3C2E4C2E4C2E4C2E4C2E4C2E4C2E4AA
:1077B000C2E4C2E4C2E4C2E4C2E4C2E4C2E4C2E499
:1077C000C2E4C2E4C2E4C2E4C2E4C2E4C2E4C2E489
:1077D000C303CAC4C2E3BAE6B200F718FFDFFFFF73
:1077E000FFFFFFFFFFFFFFFFFFFFFFFFFFFFFFFFA9
:1077F000FFFFFFFFFFFFFFFFFFFFFFFFFFFFFFFF99
:10780000FFFFFFFFFFFFFFFFFFFFFFFFFFFFFFFF88
:10781000FFFFFFBDAB07C2E4C2E4C2E4C2E4C2E4BE
:10782000C2E4C2E4C2E4C2E4C2E4C2E4C2E4C2E428
:10783000C2E4C2E4C2E4C2E4C2E4C2E4C2E4C2E418
:10784000C2E4C2E4C2E4C2E4C2E4C2E4C2E4C2E408
:10785000C2E4C2E4CAE4C2E4BAE5B307FFFFFFFE34
:10786000FFBFFFFFFFFFFFFFFFFFFFFFFFFFFFFF68
:10787000FFFFFFFFFFFFFFFFFFFFFFFFFFFFFFFF18
:10788000FFFFFFFFFFFFFFFFFFFFFF9DCB46C2C5CE
:10789000C2E3C2E4C2E4C2E4C2E4C2E4C2E4C2E4B9
:1078A000C2E4C2E4C2E4C2E4C2E4C2E4C2E4C2E4A8
:1078B000C2E4C2E4C2E4C2E4C2E4C2E4C2E4C2E498
:1078C000CAC3BB05BAA4CB23FF1AEFBDFFFEFFFE60
:1078D000FFFFFFFFFFFFFFFFFFFFFFFFFFFFFFFFB8
:1078E000FFFFFFFFFFFFFFFFFFFFFFFFFFFFFFFFA8
:1078F000FFFFFFFFFFFFFFFFFFFFFFFFFFFFFFFF98
:10790000FFFFFFBDAB07C2E4C2E4C2E4C2E4C2E4CD
:10791000C2E4C2E4C2E4C2E4C2E4C2E4C2E4C2E437
:10792000C2E4C2E4C2E4C2E4C2E4C2E4C2E4C2E427
:10793000C2E4C2E4C2E4C2E4C2E4C2E4C2E4C2E417
:10794000C2E4C2E4CAE4C2E4BAE5B307FFFFFFFE43
:10795000FFBFFFFFFFFFFFFFFFFFFFFFFFFFFFFF77
:10796000FFFFFFFFFFFFFFFFFFFFFFFFFFFFFFFF27
:10797000FFFFFFFFFFFFFFFFFFFFFF9DCB46C2C5DD
:10798000C2E3C2E4C2E4C2E4C2E4C2E4C2E4C2E4C8
:10799000C2E4C2E4C2E4C2E4C2E4C2E4C2E4C2E4B7
:1079A000C2E4C2E4C2E4C2E4C2E4C2E4C2E4C2E4A7
:1079B000C2E5C2E2CB259368FFFFFFFFFFFFF7FFA1
:1079C000FFFFFFFFFFFFFFFFFFFFFFFFFFFFFFFFC7
:1079D000FFFFFFFFFFFFFFFFFFFFFFFFFFFFFFFFB7
:1079E000FFFFFFFFFFFFFFFFFFFFFFFFFFFFFFFFA7
:1079F000FFFFFFBDAB07C2E4C2E4C2E4C2E4C2E4DD
:107A0000C2E4C2E4C2E4C2E4C2E4C2E4C2E4C2E446
:107A1000C2E4C2E4C2E4C2E4C2E4C2E4C2E4C2E436
:107A2000C2E4C2E4C2E4C2E4C2E4C2E4C2E4C2E426
:107A3000C2E4C2E4CAE4C2E4BAE5B307FFFFFFFE52
:107A4000FFBFFFFFFFFFFFFFFFFFFFFFFFFFFFFF86
:107A5000FFFFFFFFFFFFFFFFFFFFFFFFFFFFFFFF36
:107A6000FFFFFFFFFFFFFFFFFFFFFF9DCB46C2C5EC
:107A7000C2E3C2E4C2E4C2E4C2E4C2E4C2E4C2E4D7
:107A8000C2E4C2E4C2E4C2E4C2E4C2E4C2E4C2E4C6
:107A9000C2E4C2E4C2E4C2E4C2E4C2E4C2E4C2E4B6
:107AA000BAE4CAE4A389FFBFFFFEFFFFF7FFFFFFB1
:107AB000FFFFFFFFFFFFFFFFFFFFFFFFFFFFFFFFD6
:107AC000FFFFFFFFFFFFFFFFFFFFFFFFFFFFFFFFC6
:107AD000FFFFFFFFFFFFFFFFFFFFFFFFFFFFFFFFB6
:107AE000FFFFFFBDAB07C2E4C2E4C2E4C2E4C2E4EC
:107AF000C2E4C2E4C2E4C2E4C2E4C2E4C2E4C2E456
:107B0000C2E4C2E4C2E4C2E4C2E4C2E4C2E4C2E445
:107B1000C2E4C2E4C2E4C2E4C2E4C2E4C2E4C2E435
:107B2000C2E4C2E4CAE4C2E4BAE5B307FFFFFFFE61
:107B3000FFBFFFFFFFFFFFFFFFFFFFFFFFFFFFFF95
:107B4000FFFFFFFFFFFFFFFFFFFFFFFFFFFFFFFF45
:107B5000FFFFFFFFFFFFFFFFFFFFFFDDC346C2E5A3
:107B6000C303C2E5C2E4C2E4C2E4C2E4C2E4C2E4C4
