:020000040800F2
:1000000038040020A1010008D105000831030008D0
:10001000CF050008E90100083D0A000800000000C3
:10002000000000000000000000000000550700086C
:10003000EB01000800000000750600081108000828
:10004000BB010008BB010008BB010008BB010008A0
:10005000BB010008BB010008BB010008BB01000890
:10006000BB010008BB010008BB010008BB01000880
:10007000BB010008BB010008BB010008BB01000870
:10008000BB010008BB010008BB010008BB01000860
:10009000BB010008BB010008BB010008BB01000850
:1000A000BB010008BB010008BB010008BB01000840
:1000B000BB010008BB010008BB010008BB01000830
:1000C000BB010008BB010008BB010008BB01000820
:1000D000BB010008BB01000871080008BB01000853
:1000E000BB010008BB010008BB010008BB01000800
:1000F000BB010008BB010008BB010008BB010008F0
:10010000BB010008BB010008BB010008BB010008DF
:10011000BB010008BB010008BB010008BB010008CF
:10012000BB010008BB010008BB010008BB010008BF
:10013000BB010008BB010008BB010008BB010008AF
:10014000BB010008BB010008BB010008BB0100089F
:10015000BB010008BB010008BB010008BB0100088F
:10016000BB010008BB010008BB010008BB0100087F
:10017000BB010008BB010008BB010008BB0100086F
:10018000BB010008BB010008DFF810D000F01AF82E
:1001900000480047B50A0008AFF30080380400208B
:1001A0000648804706480047FEE7FEE7FEE7FEE711
:1001B000FEE7FEE7FEE7FEE7FEE7FEE715080008BC
:1001C00089010008064C074D06E0E06840F0010395
:1001D00094E8070098471034AC42F6D3FFF7D8FFF5
:1001E000EC0A00080C0B0008FEE7704770B586B0FB
:1001F0000121084600F040FA0121480400F04AFAC3
:10020000224E07220321304600F082F80722022105
:10021000304600F07DF800248DF8164001208DF85E
:10022000170002258DF81450042104918DF8155003
:1002300004A9304600F02EF88DF8145008200490E0
:1002400004A9304600F026F84FF4E1300090ADF8F4
:100250000440ADF80640ADF80840ADF80C400C2065
:10026000ADF80A000A4C6946204600F085FB00F014
:10027000B0F9012240F22551204600F061FB012136
:10028000204600F031FB06B070BD000000000240C7
:10029000004400402DE9F041002201274FF0030CFB
:1002A00007FA02F50B682B40AB422CD106685300CD
:1002B0000CFA03F4A64306600E79D0F800809E4045
:1002C00046EA080606600E79012E01D0022E12D1F0
:1002D0008668A64386604E79D0F808809E4046EA3C
:1002E000080686604668AE43466045688E7996404B
:1002F000B6B235434560C568A543C560CC799C401E
:10030000C3681C43C460521C102AC9D3BDE8F081E5
:1003100010B54B07DB0E9A40C90800EB8100016A5B
:100320000F249C40A1430162016A1143016210BD88
:10033000FEE7002904D0018841F480610180704704
:10034000018821F4806101807047034600209A8A69
:100350001B8B1B041A4322F07F42914300D10120E2
:100360007047002904D0018841F0010101807047E5
:10037000018821F001010180704700002DE9F0475C
:1003800007460C46DFF87C800121404600F078F8F3
:100390001D4D4FF461766E60DFF87090404649461F
:1003A000FFF7D3FF0028F9D029780022404600F05B
:1003B00003F96E60DFF8589040464946FFF7C5FFE5
:1003C0000028F9D02146404600F0FFF86E60104C3E
:1003D000A41C21464046FFF7B8FF0028F9D0397821
:1003E000404600F0F2F86E6021464046FFF7ADFF50
:1003F0000028F9D00121404600F04EF80120BDE868
:10040000F08700000054004020000020010003009D
:100410008200070010B500F005F8BDE8104000F0BC
:10042000A5B800001CB50121480500F033F90121F1
:10043000022000F021F9114C042206212046FFF78A
:1004400067FF042207212046FFF762FF4021009149
:1004500002218DF804108DF8051001218DF8061089
:1004600000218DF8071069462046FFF713FF802111
:10047000009169462046FFF70DFF1CBD00040240B5
:10048000002904D0018841F48071018070470188FF
:1004900021F4807101807047002904D0018841F463
:1004A000007101807047018821F40071018070475C
:1004B0007FB504460D46A08820F03F06684600F050
:1004C000F7F802982749B0FBF1F189B20E43A680F4
:1004D000228822F001022280234B2A689A4209D8FE
:1004E0005200B0FBF2F080B2042800D20420491C74
:1004F000218423E0EB88A3F53F46FF3E0BD002EBBF
:10050000C20303EB0212B0FBF2F080B240F4804071
:10051000020506D007E002EB4202B0FBF2F080B227
:10052000F6E740F0010040F400404FF4967251436A
:100530004FF47A72B1FBF2F1491C2184A083208828
:1005400040F00100208020884FF6F5310840A9884E
:100550006A89114301432180A889298908432081A0
:100560007FBD000040420F00A08601001FB50020A3
:10057000ADF804004BF6FF70ADF806000A20ADF8A8
:1005800008004FF48060ADF80A000001ADF80C00DF
:1005900007480090074C69462046FFF789FF012174
:1005A0002046FFF7DEFE01212046FFF7C2FE1FBDF9
:1005B000801A060000540040002A02D041F00101D8
:1005C00001E001F0FE010182704701827047FEE701
:1005D000704708B54FF4C06000F042F826208DF84F
:1005E000000001208DF801008DF802008DF8030055
:1005F000684600F001F808BD30B50F23C278012528
:100600000178002A1FD0154A126802F4E062C2F590
:10061000E062C2F30722C2F10404D3404278A24050
:1006200084781C401443220101F1E02181F8002468
:10063000007800F01F018D404009800000F1E020AB
:10064000C0F8005130BD01F01F008540480980000E
:1006500000F1E020C0F8805130BD00000CED00E05A
:100660000249084302490860704700000000FA058B
:100670000CED00E070470000054A002903D0116826
:100680000143116070471168814311607047000099
:1006900030380240054A002903D011680143116037
:1006A0007047116881431160704700004038024074
:1006B00070B5244B196801F00C01234C00291ED0A1
:1006C000224E04291DD008291DD00460196801F0AC
:1006D000F00109091E4A545C0168E14041601C6850
:1006E00004F4E054A40A145D21FA04F484601B6845
:1006F00003F460435B0BD25CD140C16070BD046009
:10070000E4E70660E2E70F4A121F1168C1F3805563
:10071000116801F03F0135B1B6FBF1F11468C4F383
:100720008814614305E0B4FBF1F11468C4F3881444
:1007300061431268C2F30142521C5200B1FBF2F154
:100740000160C3E7083802400024F40040787D01CE
:1007500000000020704700000CB5002201920092BA
:100760002749086840F4803008604FF4A0430868C7
:1007700000F4003000900198401C0190009810B9DE
:1007800001989842F3D10868800302D501200090B7
:1007900000E000920098012831D1194840300268E9
:1007A00042F0805202601748026842F44042026000
:1007B0001348083002680260026842F40042026096
:1007C000026842F4A0520260021F0F4B13600A68D5
:1007D00042F080720A600A689201FCD50B4A40F22E
:1007E00005711160016821F003010160016841F0A9
:1007F000020101600168C1F381010229FAD10CBD37
:10080000003802400070004019544007003C02408C
:100810007047000010B51248016841F47001016092
:100820001048016841F0010101600E4A00210832C0
:10083000116002680C4B1A400260031D0B4A1A60DB
:10084000026822F48022026006480C300160FFF743
:1008500083FF03494FF000608039086010BD00003D
:1008600088ED00E000380240FFFFF6FE1030002463
:1008700010B5184C40F22551204600F041F80028F0
:1008800018D0204600F0D6F8134908700A781348AB
:10089000552A01D1026872B10368114A7BB103681D
:1008A0000A2B0CD0097803681A4402F8011C01686D
:1008B000491C016010BD0168491C016010BD097828
:1008C00003681A4402F8011C002101600549012057
:1008D000087010BD004400401A0000201C000020D9
:1008E0002800002010000020002904D0818941F454
:1008F000005181817047818921F4005181817047C5
:1009000070B5002440F66A12C1F3421301F01F05CE
:10091000012606FA05F2012B0CD0022B0DD0838A9A
:100920001340090A8E40008830400BB100B1012409
:10093000204670BD83891340F3E7038A1340F0E734
:1009400010B540F66A13C1F3421301F01F040121F0
:10095000A140012B07D0022B07D014303AB1026816
:100960000A43026010BD0C30F8E71030F6E7026869
:100970008A43026010BD00007FB504460D46208A00
:1009800020F44051E88808432082A08941F20C619C
:100990008843A9882A8911436A8902431143A181A6
:1009A000A08A20F44071A8890843A0826846FFF716
:1009B0007FFE1E48844202D01D48844201D1039824
:1009C00000E00298A189090408D500EBC00101EB01
:1009D000001029684900B0FBF1F007E000EBC0010E
:1009E00001EB001029688900B0FBF1F06422B0FB34
:1009F000F2F109010B096FF018056B4300EB83005E
:100A0000A3891D044FF0320307D503EBC000B0FBF0
:100A1000F2F000F00700084306E003EB0010B0FB23
:100A2000F2F000F00F00084320817FBD001001406C
:100A3000001401408088C0F308007047FEE702E020
:100A400008C8121F08C1002AFAD170477047002059
:100A500001E001C1121F002AFBD170471348417801
:100A600082781144C27803791A44114442791144BE
:100A700082791144C2791144027A11440C4AA83196
:100A8000C9B25170437A8B420ED14178837841EAE2
:100A900003219180C178037941EA0321D180417912
:100AA000807941EA00201081704700002800002072
:100AB000100000200B4C00252570FFF797FBFFF777
:100AC000A9FC094E07480121801CFFF757FC20783C
:100AD0000028F7D03078532801D1FFF7BFFF2570E9
:100AE000F0E7000010000020280000200C0B000898
:100AF00000000020280000003E0A0008340B000817
:100B000028000020100400004E0A00080000000029
:100B100001020304010203040607080900000102A0
:100B2000000000000000000000000000360000008F
:040B3000B01E0400EF
:040000050800018965
:00000001FF
