:020000040800F2
:10000000D006002029020008731F00080D13000805
:10001000711F00081F0400082520000800000000D0
:10002000000000000000000000000000771F000832
:100030002104000800000000751F0008791F000857
:10004000430200084302000843020008430200087C
:10005000430200084302000843020008430200086C
:10006000430200084302000843020008430200085C
:10007000430200084302000843020008430200084C
:10008000430200084302000843020008430200083C
:10009000430200084302000843020008430200082C
:1000A000430200084302000843020008430200081C
:1000B000430200084302000843020008111300082D
:1000C00043020008430200084302000843020008FC
:1000D00043020008430200084302000843020008EC
:1000E00043020008430200084302000843020008DC
:1000F00043020008430200084302000843020008CC
:1001000043020008430200084302000843020008BB
:1001100043020008430200084302000843020008AB
:10012000430200084302000843020008430200089B
:10013000430200084302000843020008430200088B
:10014000430200084302000843020008430200087B
:10015000430200084302000843020008430200086B
:10016000430200084302000843020008430200085B
:100170004302000843020008430200080000000098
:10018000430200084302000800F002F800F03CF8C7
:100190000AA090E8000C82448344AAF10107DA45E2
:1001A00001D100F031F8AFF2090EBAE80F0013F0F8
:1001B000010F18BFFB1A43F001031847E41E0000AB
:1001C000041F0000103A24BF78C878C1FAD852073B
:1001D00024BF30C830C144BF04680C6070470000C1
:1001E0000023002400250026103A28BF78C1FBD840
:1001F000520728BF30C148BF0B6070471FB501F0E0
:100200003DFF1FBD10B510BD00F0CFF81146FFF740
:10021000F5FF01F019FF00F0EDF803B4FFF7F2FF6E
:1002200003BC00F0F5F80000094880470948004782
:10023000FEE7FEE7FEE7FEE7FEE7FEE7FEE7FEE796
:10024000FEE7FEE704480549054A064B70470000F3
:100250001520000889010008D0000020D0060020E9
:10026000D0020020D002002053EA020C00F0698086
:100270002DE9F04B4FF00006002B1FBFB3FA83F5BA
:1002800003FA05F424FA05F65E4012BF1643B2FAEB
:1002900082F502FA05F4C5F120051EBF22FA05FC1D
:1002A00044EA0C04203556EA044C4FEA144418BFC3
:1002B000641C4FF000084FF00009904271EB030CF2
:1002C00039D3002919BFB1FA81F701FA07F6B0FA5C
:1002D00080F700FA07F6C7F120071EBF20FA07FCD7
:1002E00046EA0C062037B6FBF4FCA7EB0507103FE7
:1002F00007F01F0BCBF120060CFA0BFB2CFA06F6CD
:1003000044BFB3460026202FA4BF5E464FF0000B2B
:100310005BEA060C08BF4FF0010B19EB0B09ABFBB6
:10032000027C48EB0608C01B06FB02CC0BFB03CC8F
:1003300071EB0C01C1E70B46024641464846BDE859
:10034000F08B13B54FF000004FF00001AFF30080C9
:10035000BDE81C4070474FF0000200B513469446BC
:100360009646203922BFA0E80C50A0E80C50B1F10D
:100370002001BFF4F7AF090728BFA0E80C5048BF21
:100380000CC05DF804EB890028BF40F8042B08BFBF
:10039000704748BF20F8022B11F0804F18BF00F8BB
:1003A000012B7047704770477047754600F02CF876
:1003B000AE4605006946534620F00700854618B052
:1003C00020B5FFF73FFFBDE820404FF000064FF09B
:1003D00000074FF000084FF0000B21F00701AC467A
:1003E000ACE8C009ACE8C009ACE8C009ACE8C00999
:1003F0008D46704710B50446AFF300802046BDE837
:100400001040FFF70ABF0000004870476C00002052
:1004100001491820ABBEFEE7260002007047FEE748
:10042000704772B6FEE790F83510022903D080219C
:10043000416501207047052180F83510006801688A
:1004400021F0010101600020704790F835007047ED
:100450002DE9F84FDFF8BCA10022012503264FF05B
:100460000F090AF1040BAAF1040E00BF0B6805FA8C
:1004700002F42340A34270D10F7907F00307012F44
:1004800001D0022F16D187684FEA420806FA08FC0D
:1004900027EA0C07D1F80CC00CFA08FC4CEA070C50
:1004A000C0F808C04768A7430C79C4F3001494400F
:1004B0003C4344600C79E443A4070AD0C4684FEA83
:1004C000420C06FA0CF7BC438F6807FA0CF7274377
:1004D000C7600C7904F00304022C12D1D40800EB9D
:1004E000840CDCF820405707FF0E09FA07F824EACD
:1004F0000804D1F8108008FA07F848EA0408CCF894
:10050000208004684FEA420C06FA0CF7BC430F79CE
:1005100007F0030707FA0CF7274307604C6814F449
:10052000403F70D03C4C276847F4804727602468E0
:1005300022F0030704F480440094384C07EB040CC9
:10054000DCF8084897074FEA177809FA08F7BC4320
:10055000334FB84202D1002724E054E0314FB84273
:1005600001D101271EE0304FB84201D1022719E026
:100570002E4FB84201D1032714E02D4FB84201D1CC
:1005800004270FE02B4FB84201D105270AE02A4F7C
:10059000B84201D1062705E0284FB84201D107270C
:1005A00000E0082707FA08F72743CCF80878DAF8BC
:1005B00000405746D1F804C09C435FEACC2C00D5DC
:1005C0001C433C60DBF800405F46D1F804C09C430C
:1005D0005FEA8C2C00D51C433C60DEF80040774677
:1005E000D1F804C09C435FEA8C3C00D51C433C60BE
:1005F000084F083F3C68D1F804C09C435FEACC3CFC
:1006000000D51C433C60521C102AFFF42FAFBDE8FC
:10061000F88F0000083C014044380240003001409F
:10062000000002400004024000080240000C0240AA
:10063000001002400014024000180240001C02405A
:10064000014880687047000008000020704770472C
:100650002DE9F047026800215368C66A90F83E40D1
:1006600090F83D50102C12D0402C10D0046C002C6F
:100670007DD05469E443A6077AD4DE43B60577D427
:10068000036C03B19169BDE8F04701F091BA976935
:1006900051694FF42A0CC9435FEAC1784FF02A49E7
:1006A00004D066452AD04E4528D010E0DE43B6057A
:1006B0000DD4C16A614501D1012103E0C16A4945F8
:1006C00001D10821C162BDE8F04701F05DB90E0714
:1006D00016D4DE43B60513D4416CC9B21161416B27
:1006E00009B1C96B29B9816B002907D0C96B0029F1
:1006F00004D00068416841F400614160BDE8F087C2
:100700008E0706D4DE43B60503D4BDE8F04701F0FA
:10071000AFB8FE43526876074FEA02521DD4002A52
:10072000ECDB0A0608D4DA43520505D4490705D59F
:10073000BDE8F04701F040B84907DFD4D943890547
:10074000DCD4212D05D0402CD8D1BDE8F04701F0F4
:1007500061B9BDE8F04700F0EDBF002ACEDB4A06E4
:100760000BD4DA43520508D4490708D501E00DE05F
:100770000EE0BDE8F04700F069BF4907BED4D94399
:100780008905BBD4BDE8F04700F0F7BE916970E77A
:10079000E10606D4D943890503D4BDE8F04701F04A
:1007A0002BBA2821212D27D0292D25D0650655D4F7
:1007B000DD436D0552D4640752D590F83D30448D29
:1007C000002C9BD01269446A2270426A521C426219
:1007D000428D521E4285428D002A8FD12A2B8DD107
:1007E0000268536823F4806353602222026380F816
:1007F0003D1000F049FA81E7250623D4DD436D055D
:1008000020D4640720D590F83D30448D002CF2D0E0
:10081000446A24781461426A521C4262428D521E1C
:100820004285428D002AE6D1292BE4D10268536823
:1008300023F4806353602122026380F83D1000F0AE
:1008400024FA5BE76107D6D4D9438905D3D4418D17
:100850000029D0D0416A097811610AE06107CAD441
:10086000D9438905C7D4418D0029C4D01169426A92
:100870001170416A491C4162418D491E41853DE725
:100880007047000070B5040025D094F83D000025A5
:1008900020B984F83C50204600F0BAF9242084F8AE
:1008A0003D002068016821F00101016020680168B5
:1008B00041F4004101602068016821F400410160B9
:1008C00000F018FB4D4A6168914201D84C4900E0A4
:1008D0004C49884201D2012070BD4B492368B0FBCE
:1008E000F1F15E6826F03F060E435E606368934256
:1008F00006D94FF4967359434FF47A73B1FBF3F171
:100900002368491C1E6A26F03F063143196261685C
:10091000914210D84900401EB0FBF1F2521CC2F3C4
:100920000B02042A01D2042022E0B0FBF1F0401CAB
:10093000C0F30B001CE0A268F2B301EBC10303EBB0
:100940000116431EB3FBF6F35B1C43F480431B0507
:1009500049D092B301EBC10202EB0111401EB0FB82
:10096000F1F0401CC0F30B0040F4804040F4004024
:100970002168CA694CF6FF739A431043C861D4E9F1
:10098000071001432068026822F0C0021143016091
:10099000D4E9030101432068826848F2FF339A4397
:1009A00011438160D4E9050108432168CA6822F037
:1009B000FF021043C86001E00EE016E02068016805
:1009C00041F0010101602564202084F83D00256389
:1009D00084F83E50002070BD01EB4106431EB3FB7E
:1009E000F6F35B1CB3E70120C2E701EB4101401EB7
:1009F000B0FBF1F0401CC0F30B00B7E7A08601008C
:100A000080841E0000093D0040420F00704770477F
:100A100070477047704700002DE9FF4F83B09A463A
:100A2000DDE9119793460446DDF84080FFF708FEA4
:100A3000054694F83D00202870D119230122714900
:100A40002046009501F086F90028F5D194F83C0085
:100A5000012863D0012084F83C0020680168C907A0
:100A600003D1016841F0010101602068016821F4AF
:100A700000610160222084F83D00402084F83E009F
:100A800000262664C4F82480A4F82A90608D20856E
:100A90005D48E062CDE9007553465A462046049908
:100AA00001F008F800287CD1208DD0B1012821D098
:100AB0000228206824D0416980690090208D032895
:100AC00069D801282BD0514902283B464FF000023B
:100AD000009559D08846204601F03CF9002860D1A5
:100AE0003CE02068416981690091016841F400712E
:100AF000016077E02068016821F480610160F0E71F
:100B0000016821F4806101602068016841F400619E
:100B10000160206841698069009063E06FE02A46C7
:100B20003946204601F095F998BB20680069616A52
:100B300008704EE02068016841F40071016020688F
:100B40000069616A0870606A401C6062218D491EFC
:100B50002185618D491E6185216838E02068016822
:100B600021F48061016020680069616A0870606A30
:100B7000401C6062208D401E2085608D401E608577
:100B80003B46002241460095204601F0E3F800B9BB
:100B9000D0E706E0FFE72A463946204601F059F93A
:100BA00018B1012007B0BDE8F08F20680069616AC4
:100BB0000870606A401C6062218D491E2185618D2C
:100BC000491E618521684A69D24352070AD40969DE
:100BD0000170606A401C6062208D401E2085608D1F
:100BE000401E6085208D00287FF468AF202084F8A7
:100BF0003D0084F83E6084F83C600020D2E702208B
:100C0000D0E70000020010000000FFFF0400010018
:100C100010B586B0044614216846FFF79CFB1749BF
:100C20002068884228D116480021026842F002025A
:100C30000260006800F002000590C02000901220C1
:100C4000CDE90101032003900420049069460D487A
:100C5000FFF7FEFB0A481030016841F40011016003
:100C60000068002200F40010059011461F2000F0DB
:100C700075F81F2000F064F806B010BD0054004065
:100C800030380240000402407047704702488168D3
:100C90000278114481607047080000200B4810B5AD
:100CA000016841F400710160016841F480610160F4
:100CB000016841F480710160032000F06FF80F209B
:100CC00000F006F800F024F8002010BD003C0240BF
:100CD00070B50D4D04464FF47A712878B1FBF0F0F1
:100CE0000A490968B1FBF0F000F0FCFA48B9102C91
:100CF00007D200222146501E00F030F800206C6020
:100D000070BD012070BD000008000020140000200C
:100D10000A4808B5016841F480410160006800F4A8
:100D2000804000900548001F016841F0805101603B
:100D3000006800F08050009008BD00004438024078
:100D4000002809DB00F01F020121914040098000CA
:100D500000F1E020C0F8001170470000F0B40E4B25
:100D60001B680C46C3F30223C3F10705042D00D909
:100D70000425191D072901D2002300E0DB1E0126EE
:100D800006FA05F1491E214099409E40761E164004
:100D90003143F0BC01F047B90CED00E0064900F02A
:100DA000070208684FF6FF03184040EA0220034A92
:100DB00010430860704700000CED00E00000FA05E9
:100DC0002DE9F0470E46050065D0DFF81481D8F80C
:100DD0000000F7B200F00700B04207D288F80070B8
:100DE000D8F8000000F00700B04254D128683D4C0C
:100DF000810712D5400703D5206840F4E0502060F9
:100E00002878000703D5206840F4604020602068FF
:100E1000A96820F0F000084320602878C0072DD092
:100E2000304968680839012812D0022813D00328F5
:100E300011D00968890700292DDA216821F0030102
:100E400001432160FFF7FCFB814641F2883A0EE046
:100E500009688903EFE709688901ECE7FFF7F0FB10
:100E6000A0EB0901514502D90320BDE8F0872068B5
:100E7000696800F00C00B0EB810FEFD1D8F80010DA
:100E8000404601F00701B14207D90770006800F041
:100E90000700B04201D00120E7E72878400705D5D8
:100EA0002068E96820F4E0500843206028780007B3
:100EB00006D52068296920F4604040EAC10020601E
:100EC00000F028F82168084AC1F30311515CC840BA
:100ED0000649086006480068FFF7FAFE0020C4E7EC
:100EE000003C024008380240862000081400002020
:100EF0000C0000200448054900680968044AC1F351
:100F00008221515CC840704714000020083802401C
:100F100096200008154810B5006810F00C0214481F
:100F200013D01449042A0FD0082A0ED10F4C241FC5
:100F30002268236802F03F025B0207D52068C0F3F5
:100F40008810A0FB010106E0084610BD2168C1F32E
:100F50008811A1FB00010023FFF786F92168C1F386
:100F60000141491C4900B0FBF1F010BD08380240B6
:100F70000024F40040787D012DE9F84F04006ED084
:100F80002078DFF84C93C007A9F104054AD009F195
:100F900004000168C1F38101012908D00068C0F391
:100FA000810002280AD1D9F80000400206D528683D
:100FB000800337D560680028E1D033E06068B0F581
:100FC000803F10D0B0F5A02F286810D020F48030DA
:100FD0002860286820F4802028606068A8B1FFF7A6
:100FE0002FFB06460DE0286840F48030F4E740F41B
:100FF00080202860F7E700BFFFF722FB801B6428F2
:1010000073D828688003F7D50CE0FFF719FB064674
:1010100005E000BFFFF714FB801B6428F0D82868A8
:101020008003F7D42078DFF8AC8280074FF0000A05
:101030003ED5A748001D016811F00C0F08D00068CC
:10104000C0F3810002280BD1D9F80000400207D478
:101050002868800716D5E068012800D112E033E146
:10106000E068B8B10120C8F80000FFF7E9FA0646C9
:1010700005E000BFFFF7E4FA801B0228C0D828680B
:101080008007F7D52868216920F0F80040EAC10000
:1010900028600DE0C8F800A0FFF7D2FA064604E089
:1010A000FFF7CEFA801B02281FD828688007F7D4E4
:1010B0002078000722D5864F87486169703771B163
:1010C00001210160FFF7BCFA064604E0FFF7B8FA19
:1010D000801B022809D838688007F7D50EE0C0F8D1
:1010E00000A0FFF7ADFA064605E082E0FFF7A8FA98
:1010F000801B02287DD838688007F7D42078400705
:1011000068D5DFF8CCB100270BF13C0BDBF8000011
:10111000C0000BD4DBF8001041F08051CBF8001078
:10112000DBF80000012700F0805000906B4E306823
:10113000C00510D4306840F480703060FFF780FA4A
:10114000009005E0FFF77CFA0099401A022850D879
:101150003068C005F6D55E4EA0686C3601280FD009
:101160000528306810D020F001003060306820F091
:1011700004003060A068B8B1FFF762FA00900FE099
:10118000306840F00100F4E740F004003060F7E719
:10119000FFF756FA0099411A41F28830814266D829
:1011A00030688007F4D50EE0FFF74AFA009007E0B8
:1011B000FFF746FA0099411A41F28830814256D829
:1011C00030688007F4D42FB1DBF8001021F0805193
:1011D000CBF80010A069C8B33D49091D0968C1F3E7
:1011E000810102294AD00228504607D0C8F8600081
:1011F00000E03CE0FFF724FA04463BE04746C8F82D
:101200006000FFF71DFA064605E000BFFFF718FA79
:10121000801B02282BD828688001F7D4D4E9070165
:101220000843A16A2E4A490802EB0141626A41EA79
:101230008211084394F82C1040EA0161C9F80010AB
:1012400001203866FFF7FCF9044606E03EE000BFE7
:10125000FFF7F6F9001B022809D828688001F7D5A6
:1012600034E000BFFFF7ECF9001B022802D903208D
:10127000BDE8F88F28688001F4D427E00128F7D072
:10128000D9F80000E26900F4800191421CD1226A81
:1012900000F03F01914217D147F6C071626A0140E8
:1012A000B1EB821F10D1A26A4FF0FF3300F440313E
:1012B00003EB5202B1EB024F06D194F82C1000F070
:1012C0007060B0EB016F01D00120D1E70020CFE7C3
:1012D0000438024000004742800E47420070004040
:1012E0000000FFFF10B5401EB0F1807F01D3012048
:1012F00010BD4FF0E02460610F21601700F093FEF5
:101300000020A06107202061002010BDFEE7000042
:101310000148FFF79DB900001800002038B5806B28
:10132000002190F83D202B4B46F2A8141B68B3FB1C
:10133000F4F3C3EBC30303EB830300933BB15B1EE6
:10134000009303681B689B0505D5009BF6E7036CBB
:1013500043F020030364436B03B1D963836B03B190
:10136000D96303681C6824F480641C604185436B66
:1013700003B11965836B03B1196503681C6824F018
:1013800001041C6090F83D402023602C0BD02824E1
:1013900034EA02020FD080F83D3080F83E1000BFE2
:1013A000FFF76EFA38BD80F83D3080F83E100164DA
:1013B000FFF74CF938BD0268136843F0010313606E
:1013C0000268136843F480631360016380F83D4052
:1013D000E6E70000140000200EB54FF47A738DE8A4
:1013E0000D000A46012336210148FFF715FB0EBD0B
:1013F0001800002070B5044690F83D0094F83E10A7
:10140000102901D0402906D1222804D121680A6878
:1014100022F400620A60282131EA00024FF0000540
:101420004FF0200626D021684968090505D46028B8
:1014300003D084F83D6084F83E50256320684168FD
:10144000090537D5416821F400614160606B90F86F
:1014500035203C49012A11D00165606BFEF7E3FF9E
:1014600038B32068016821F00101016084F83D6013
:10147000606B1CE0256384F83D10DFE7A06B01651D
:10148000A06BFEF7D0FFA0B120684169C9434906AF
:1014900005D40069616A0870606A401C6062206857
:1014A000016821F00101016084F83D60A06B016DCD
:1014B000884710E094F83D10602910D04169C94375
:1014C000490605D40069616A0870606A401C606260
:1014D0002046FFF7D5F9206CC1071CD115E084F830
:1014E0003D6025644169C943490605D40069616AC4
:1014F0000870606A401C60622068016821F0010188
:1015000001602046FFF7A2F8E5E7810703D4410711
:1015100001D4000704D52068416821F4E0614160EE
:1015200094F83D00216C49070BD5282809D10648BD
:10153000E062256384F83D6084F83E502046FFF762
:1015400065FA70BD1D1300080000FFFF01684A69BD
:10155000D24352050FD46FF480624A61002140F8F3
:10156000301F202242738173026942F0040202613B
:101570000173012070470020704710B5C26A438D87
:101580000168042B06D0438D032B08D0438D022B1A
:101590001DD012E04A6822F480624A600CE04B6879
:1015A00023F480634B60042A06D0022A04D0016829
:1015B0000A6822F480620A6001680969426A11704F
:1015C000416A491C4162418D491E418510BD012A75
:1015D00030D0102A2ED0042A30D0022A2ED00A6809
:1015E00042F400720A6001680969426A1170416A36
:1015F000491C4162428D521E4285026812690A707E
:10160000416A491C4162418D491E418501684A6811
:1016100022F440724A60202180F83D1090F83E206C
:101620000021402A80F83E100CD012210163FFF700
:10163000EEF910BD0A6822F48062D3E70A6842F42A
:101640008062CFE70163FFF7E4F910BD38B590F889
:101650003D1022290FD1418D03290DD90168096957
:10166000426A1170416A491C4162418D491E41859F
:10167000418D032906D038BDC26A022A02D0012951
:1016800006D029B10068416821F48061416038BD0D
:10169000274946F2A81300220968B1FBF3F101EBD8
:1016A0008101009101682023009C641E009422D0D7
:1016B0000C68A405F8D40C6824F480640C600168FC
:1016C0004C6824F4E0644C6001680969446A217044
:1016D000416A491C4162418D491E418580F83D3077
:1016E00090F83E1080F83E2040291DD01221016361
:1016F000FFF78DF938BD046C44F0200404644C6895
:1017000024F4E0644C6001680969446A2170416A0C
:10171000491C4162418D491E418580F83D3080F869
:101720003E20FFF7ADF838BD0263FFF772F938BD10
:101730001400002010B5C26A90F83D1021290BD189
:10174000418D51B1416A026809781161416A491CB1
:101750004162418D491E418510BD20230021082A88
:1017600013D0202A11D012F5803F0ED002685468A1
:1017700024F4E06454601122026380F83E1080F883
:101780003D3000BFFFF744F910BD0268546824F4EF
:10179000E06454600268146844F4007414600163E7
:1017A00080F83D3090F83E2080F83E10402AE9D184
:1017B000FFF730F910BD000010B590F83D1090F81B
:1017C0003E30C26A048DB4B1212903D0402B11D11F
:1017D00022290FD1418DE1B390F83E10402942D02B
:1017E000416A026809781161416A491C4162418D70
:1017F000491E418510BD2129E8D120230021082A56
:1018000013D0202A11D012F5803F0ED00268546800
:1018100024F4E06454601122026380F83E1080F8E2
:101820003D3000BFFFF7F4F810BD0268546824F49F
:10183000E06454600268146844F400741460016346
:1018400080F83D3090F83E2080F83E10402AE9D1E3
:1018500000E002E0FFF7DEF810BD0068416821F407
:101860008061416010BDBDE8104000F0D3B80000B9
:1018700078B590F83E50C26A036B90F83D60002442
:101880000168222E7AD1066D0EB9402D76D0056DF5
:101890001DB90569B5F5404F09D0458D05B3468D95
:1018A000384D012E0ED0438D022B3AD05DE04A69AF
:1018B0008A6900920A6842F480720A60016D491CCC
:1018C000016578BDAA4213D10A6822F480620A60D9
:1018D00001684A68120503D50A6822F4806216E09E
:1018E0004A698A6900920A6842F400720A6039E023
:1018F000082A10D0202A0ED0122B0AD0042A03D096
:10190000022A01D0102AE7D10A6842F480620A60F4
:1019100024E0012AE0D00A6822F480620A600168AB
:10192000DEE7042A21D0022A1FD0102A1DD00B681E
:1019300023F480630B6001680B6843F400630B6061
:1019400001684B681B0509D5AA4212D0012A10D0A4
:10195000082A0ED0102A0CD0202A0AD001684A6921
:1019600089690091046578BD08E00B6843F48063E1
:10197000E5E74A6842F480524A60EFE748698869BF
:101980000090F0E70000FFFF90F83E10402910D0D3
:101990000169B1F5804F19D0016DA9B3016D01291D
:1019A00010D1416C5FF0F10201F4407142EAD111B3
:1019B00006E0016D0029416C05D0C9B241F001017A
:1019C00000680161704701F0FE01F9E790F83D10F1
:1019D0002129416C09D0C9B241F0010102681161AD
:1019E000416B29B1C96B49B902E001F0FE01F5E78D
:1019F000816B0029E6D0C96B0029E3D000684168FB
:101A000041F4006141607047FFE7416CF02201F44E
:101A10004071CBE710B590F83D10026D22B3026D16
:101A2000012A2FD0026D022A1DD122292FD0428DEA
:101A30000AB1212933D0428D002A14D1212912D193
:101A400001684A6822F4E0624A6001680A6842F468
:101A500000720A6000210163202280F83D2080F896
:101A60003E10FEF7D7FF10BDC16C0129816C02D07A
:101A7000C1F3072108E00268C9B21161016D891C38
:101A8000016510BD816CC9B20268116104E0016892
:101A90000A6842F480720A60016D491CF0E7416AED
:101AA000026809781161416A491C4162418D491EF1
:101AB000418510BD2DE9F84F0446006889460B9D0D
:101AC00001689846174641F480610160206801680A
:101AD00041F48071016000954FF0011B00225946CE
:101AE00020460A9B00F036F94FF4007A40B1206896
:101AF0000068C00501D5C4F840A00320BDE8F88FF8
:101B0000216809F0FE0008612B46284920460A9A00
:101B100000F054F9F0BB20684169806900902A46C2
:101B200020460A9900F0C8F940B1206C04283AD147
:101B30002068016841F40071016034E0FEB2B8F140
:101B4000010F09D02168380A08612A4620460A99FF
:101B500000F0B2F90028E8D1206806612A46204644
:101B60000A9900F0A9F90028DFD12068016841F442
:101B70008071016000950022594620460A9B00F0C2
:101B8000E9F80028B3D1216809F0FF0040F0010016
:101B9000086100E007E02B46044920460A9A00F05D
:101BA0000DF90028AAD00120A8E7000002000100DA
:101BB00038B50C4690F83D20002128259543026851
:101BC0000B4605D051699169009180F83C3038BDD1
:101BD000556825F480655560E243540700D501211E
:101BE000120601D5828900E0028B80F83C3092B267
:101BF000FEF72DFD38BD0000F8B590F83D600446B5
:101C00000068416821F4E061416020680025416975
:101C10000091016841F0010101602068016821F430
:101C20008061016020684168090520D5474F222E58
:101C300048D02A2E46D0616B096849686185618D5C
:101C400019B1216C41F004012164416821F4006163
:101C50004160606BFEF7F9FB012808D0606B0765F7
:101C6000606BFEF7E0FB10B1606B016D8847608D23
:101C700008B320684169C943490708D40069616A0B
:101C80000870606A401C6062608D401E608520683C
:101C90004169C943490608D40069616A0870606AED
:101CA000401C6062608D401E6085608D18B1206CA4
:101CB00040F004002064206C00B32046BDE8F840EA
:101CC000FFF798BBA16B096849686185618D19B1FF
:101CD000216C41F004012164416821F400614160FC
:101CE000A06BFEF7B2FB0128C1D0A06B0765A06B0B
:101CF000FEF799FB0028BAD0A06BB6E72A2E06D1D2
:101D00002563282084F83D002046FEF7BDFF94F8A7
:101D10003D10202028290DD0216B222901D0222E10
:101D200007D1256384F83D0084F83E502046FEF735
:101D3000ABFFF8BD0649E162256384F83D0084F8F5
:101D40003E502046FEF762FEF8BD00001D1300085D
:101D50000000FFFF2DE9F0471E4690460D46044661
:101D6000C1F30747DDF8209008E0701C06D0FEF7AD
:101D700067FCA0EB0900B0420FD876B12068012FB4
:101D800018D0806925EA00000004000C14D000215E
:101D90004145EAD00020BDE8F087002044F8300F2C
:101DA00020216173A073216941F02001216120731A
:101DB0000120F0E74069E5E70121E9E72DE9F04777
:101DC0009A4691460E46044600254FF02008C1F37E
:101DD000074725E020684069C043400514D42068C7
:101DE000016841F40071016021686FF4806048610E
:101DF000256384F83D8084F83E50206C40F0040058
:101E0000206484F83C501FE0B9F1FF3F08D0FEF792
:101E100017FCA0EB0A0149450CD8B9F1000F09D015
:101E20002068012F13D0806926EA00000004000C0E
:101E30000BD0CFE744F8305F84F80D80A57320699C
:101E400040F02000206125730120BDE8F087406943
:101E5000EAE72DE9F041002590460E46044620278A
:101E600017E04069C043C0060CD454F8301B6FF033
:101E70001000486144F810596777A577206A2062FE
:101E8000257717E0FEF7DCFBA0EB0800B04208D88E
:101E90003EB120684169C9434906E2D40020BDE84B
:101EA000F08144F8305F6773A573206940F020002B
:101EB000206125730120F2E770B516460D460446F1
:101EC0000DE02046FFF742FB08B1012070BD681C01
:101ED00005D0FEF7B5FB801BA84207D835B12068B6
:101EE0004069C0430006ECD4002070BD002044F8D7
:101EF000300F20216173A073216941F0200121611D
:101F00002073E2E7094808B5016841F080010160EB
:101F1000016801F080010091016841F00201016057
:101F2000006800F00200009008BD00003038024058
:101F30000D4810B50B4901600C49416000214FF478
:101F400080428160C0E9031241618161C161016227
:101F5000FEF798FC002803D0BDE81040FEF761BAF8
:101F600010BD00000054004018000020A0860100B1
:101F7000FEE7FEE770477047FEF788BE30B593B0C6
:101F800030216846FEF7E7F914210CA8FEF7E3F9C3
:101F90001E480025016841F080510160006800F092
:101FA000805011901A48016841F480410160006836
:101FB000022400F480401190012000900004019060
:101FC0008001CDE90640192008904FF4A870CDE9B2
:101FD000090404200B906846FEF7CEFF08B172B6E4
:101FE000FEE70CA90F2081E831004FF4A0500F90BC
:101FF0004FF48050109005210CA8FEF7E1FE002858
:1020000001D072B6FEE713B030BD00004038024088
:10201000007000400248016841F47001016070479F
:1020200088ED00E0FEE70907090E002804DB00F157
:10203000E02080F80014704700F00F0000F1E0206D
:1020400080F8141D70470000FEF728FEFFF796FF8A
:10205000FFF758FFFFF76CFF0125074C002602220F
:102060000C210548FFF7B8F9606818B10128F6D1CE
:102070006660F4E76560F2E7000000204FF0407012
:10208000E1EE100A704700000000000000000102AD
:102090000304060708090000000001020304000011
:1020A000C02000080000002018000000C401000843
:1020B000D820000818000020B8060000E001000841
:1020C00000000000000000000100000010000000FF
:0820D000000000000024F400F0
:040000050800018965
:00000001FF
